:020000040800F2
:1000000000500020A9210008D91E0008DB1E0008AE
:10001000DD1E0008DF1E0008E11E000800000000D1
:10002000000000000000000000000000E31E0008C7
:10003000E51E000800000000E71E0008E91E000899
:10004000F1210008F1210008F1210008F121000848
:10005000F1210008F1210008F1210008F121000838
:10006000F1210008F1210008F1210008F91E000823
:10007000F1210008F1210008F1210008F121000818
:10008000F1210008F1210008051F0008F1210008F6
:10009000F1210008F1210008F1210008F1210008F8
:1000A000F1210008F1210008F1210008F1210008E8
:1000B000F1210008F1210008F1210008F1210008D8
:1000C000F1210008F1210008F1210008F1210008C8
:1000D000F1210008F1210008F1210008F1210008B8
:1000E000F1210008F1210008F121000800000000C2
:1000F0000000000000000000000000000000000000
:0C01000000000000000000005FF808F1A3
:10010C0010B5054C237833B9044B13B10448AFF345
:10011C0000800123237010BD7C0000200000000033
:10012C00B02A000808B5034B1BB103490348AFF3D1
:10013C00008008BD0000000080000020B02A0008EC
:10014C00034613F8012B002AFBD1181A013870470B
:10015C0038B50E4B054618784FF47A73B3FBF0F3B1
:10016C000B4A1068B0FBF3F000F0A4FB044658B93E
:10017C000F2D09D8024629464FF0FF3000F05AFBEC
:10018C00044B20461D6038BD012038BD0000002006
:10019C001400002004000020074A08B5136803204F
:1001AC0043F01003136000F033FB0020FFF7D0FF87
:1001BC0001F0F2FD002008BD00200240034A044B70
:1001CC0011681B780B441360704700BFB40000200B
:1001DC0000000020014B1868704700BFB4000020DD
:1001EC0038B50446FFF7F6FF0546631C1EBF044BEB
:1001FC001B78E418FFF7EEFF401B8442FAD838BD99
:10020C0000000020436A10B59A6A12F0500F1BD1FF
:10021C009A6A42F400729A621A68926802F4602236
:10022C00B2F5602F0CD1DA6852B99A6A22F4807256
:10023C009A629A6AD2045EBF9A6A42F001029A628A
:10024C00184601F0FDFB10BD1B6ABDE810401B6B8E
:10025C001847704708B5406AFFF7FBFF08BD7047A9
:10026C00036810B55A680446900627D51A6891079A
:10027C0024D5A26AD2065EBFA26A42F40072A262C0
:10028C009A6802F46022B2F5602F10D1E26872B95C
:10029C005A6822F020025A60A36A23F48073A36286
:1002AC00A36ADB045EBFA36A43F00103A36220468A
:1002BC0001F0C6FB6FF0120223681A6023685A68BB
:1002CC00100630D51A6851072DD5A26AD2065EBF2A
:1002DC00A26A42F40052A2629A6802F4E042B2F5B9
:1002EC00E04F0AD05A68500516D49A6802F460227E
:1002FC00B2F5602F10D1E26872B95A6822F0800210
:10030C005A60A36A23F48053A362A36AD9055EBF23
:10031C00A36A43F00103A362204600F077FA6FF062
:10032C000C0223681A6023685A6852060DD51B68A4
:10033C00DB070AD5A36A204643F48033A362FFF798
:10034C008EFF6FF0010223681A6010BD7047406A7F
:10035C0008B5836A43F040038362C36A43F0040325
:10036C00C362FFF7F3FF08BD002373B5019390F848
:10037C002430012B74D001234D6880F82430062DD5
:10038C0002684FEA85030C6825D82B441F25566B51
:10039C00053B9D4026EA050504FA03F32B43536302
:1003AC00092C4FEA44038D682FD907262344D168C2
:1003BC001E3B9E4021EA060105FA03F30B43D36072
:1003CC00A4F11003012B2BD90023002280F8242048
:1003DC00184602B070BD0C2D0BD82B441F25166B84
:1003EC00233B9D4026EA050504FA03F32B431363D4
:1003FC00D6E72B441F25D66A413B9D4026EA0505CE
:10040C0004FA03F32B43D362CAE70726116923448A
:10041C009E4021EA060105FA03F30B431361CFE773
:10042C00104B9A4216D193681B02CDD49368102CB2
:10043C0043F400039360C7D10B4B0C4A1B68B3FB0E
:10044C00F2F20A2353430193019B002BBCD0019B76
:10045C00013BF8E7836A43F0200383620123B4E78E
:10046C000223B5E7002401401400002040420F0095
:10047C00002373B50193036804469A68D20702D52A
:10048C00002002B070BD9A6842F001029A60124BD3
:10049C00124A1B68B3FBF2F30193019BC3B9FFF73C
:1004AC0099FE064623689D6815F00105E8D1FFF713
:1004BC0091FE801B0228F5D9A36A84F8245043F0DE
:1004CC001003A362E36A012043F00103E362D8E75F
:1004DC00019B013BE0E700BF1400002040420F00ED
:1004EC0090F8243010B5012B044658D0012380F825
:1004FC002430FFF7BDFF00284DD1A36A294A23F40D
:10050C00706323F0010343F48073A3622368934266
:10051C0004D125494A6812F4702F32D1A26A22F410
:10052C008012A2625A68520541BFA26A22F440525C
:10053C0042F48052A262A26A12F480521CBFE26A98
:10054C0022F00602E262002284F824206FF00202FC
:10055C001A605A6842F020025A609A6802F46022CB
:10056C00B2F5602F13D10F4A934205D1A2F58062E8
:10057C00526812F4702F0AD19A6842F4A0029A6061
:10058C0010BDA26A42F48012A2624A68CBE79A6854
:10059C0042F48012F3E7002384F8243010BD0220CB
:1005AC0010BD00BF00280140002401402DE9D841B6
:1005BC009046404B026804469A420F4602D03E4990
:1005CC008A4203D15B6813F4702F6ED194F82430F7
:1005DC00012B6CD00123204684F82430FFF748FF10
:1005EC00064600285DD1A06A216820F47060324B69
:1005FC0020F0010040F480709942A06204D12D4A91
:10060C00536813F4702F3ED1A36A23F48013A362B2
:10061C004B685A0505D5A36A23F4405343F4805321
:10062C00A362A36A206A13F4805318BFE36A3A46A4
:10063C0018BF23F00603E362002384F824301F4B19
:10064C004C3183621E4BC3621E4B03636FF002037B
:10065C0041F84C3C51F8443C43F4807341F8443C21
:10066C00434600F083F923689A6802F46022B2F5DD
:10067C00602F9A680CBF42F4A00242F480129A6078
:10068C003046BDE8D881A36A43F48013A362536853
:10069C005B0541BFA06A20F4405040F48050A0623A
:1006AC00BFE7002384F82430EAE70126E8E70226B6
:1006BC00E6E700BF002401400028014011020008B9
:1006CC00610200085B03000838B5036804469A68A9
:1006DC00D20701D4002038BD9A6822F001029A603A
:1006EC00FFF778FD054623689B68DB07F2D5FFF71B
:1006FC0071FD401B0228F6D9A36A012043F01003B8
:10070C00A362E36A43F00103E36238BD70B50446AB
:10071C00002871D0836A23B9C36280F8243001F0B9
:10072C008BFB2046FFF7D0FFA36A13F0100FA36AD0
:10073C0064D1002862D1E16923F48853626823F004
:10074C00020343F002030A43A168A362E368B1F514
:10075C00807F42EA430238D0012914BF06464FF489
:10076C0080766569012D07D1002B30D1A369013B3F
:10077C0046EA433545F400662368B1F5807F5D6831
:10078C0025F4694545EA06055D609E681D4D05EA40
:10079C00060545EA02059D6001D0012920D1216999
:1007AC0001390905DD6A25F470052943D962996878
:1007BC00154B0B409A4215D10023E362A36A23F038
:1007CC00030343F00103A36270BD0E46C9E7A36A9D
:1007DC0043F02003A362E36A43F00103E362CBE737
:1007EC000021DFE7A36A23F0120343F01003A36296
:1007FC00E36A43F00103E362012070BD43F0100390
:10080C00A362F9E7FDF7E1FFFE0E1FFF7047000042
:10081C00074A0002D36800F4E06023F4E0631B0491
:10082C001B0C43F0BF6343F400330343D3607047A6
:10083C0000ED00E0174B30B5DC68C4F30224C4F1C2
:10084C000703251D042B28BF0423062D4FF001059B
:10085C0098BF002405FA03F303F1FF3388BF033C70
:10086C001940A14005FA04F4013C2240002842EA58
:10087C0001024FEA0212AFBF00F16040064B00F0DC
:10088C000F00D2B2A5BFD2B200F561401A5480F865
:10089C00002330BD00ED00E014ED00E0012342091F
:1008AC0000F01F0003FA00F0014B43F822007047E0
:1008BC0000E100E00138B0F1807F0AD2F021064B54
:1008CC00064A586082F823100020072298601A60AC
:1008DC0070470120704700BF10E000E000ED00E021
:1008EC00044B04281A680CBF42F0040222F00402E4
:1008FC001A60704710E000E0704708B5FFF7FCFF86
:10090C0008BD000010B550B314220168154B846863
:10091C000B44B3FBF2F39B000364134B0A68C363F1
:10092C00436822F47F522343C46822F030022343ED
:10093C00046923434469234384692343C4692343DF
:10094C0013430B600122002380F821208362C362D1
:10095C0003634363836380F82030184610BD012085
:10096C0010BD00BFF8FFFDBF00000240F0B590F8CD
:10097C002040012C35D0012490F8215080F82040E3
:10098C00A5424FF000064FF0020428D180F8214018
:10099C00046886632668076C26F001062660C66B21
:1009AC00BD407560636043680568102BC36A0BBF5C
:1009BC00A260A160E160E2604BB1236843F00E03DA
:1009CC0023602B68002043F001032B60F0BD2368EB
:1009DC0023F004032360236843F00A03F0E780F854
:1009EC0020600220F0BD000070B40425C66B026CC0
:1009FC003468036895402542196832D04D0730D5CC
:100A0C001A6896065EBF1A6822F004021A603E4A03
:100A1C00934219D01432934218D01432934217D007
:100A2C001432934217D01432934217D0143293429B
:100A3C000CBF4FF480034FF08063344A5360C36A99
:100A4C00002B5ED070BC18470423F6E74023F4E774
:100A5C004FF48063F1E74FF48043EEE74FF48023CB
:100A6C00EBE702259540254235D08D0733D51A6822
:100A7C00940606D41A6822F00A021A60012280F841
:100A8C002120214A934219D01432934218D01432A7
:100A9C00934217D01432934217D01432934217D08A
:100AAC00143293420CBF4FF400134FF00073174AEB
:100ABC005360002380F82030836AC1E70223F6E7F5
:100ACC002023F4E74FF40073F1E74FF40053EEE703
:100ADC004FF40033EBE708259540254211D0090768
:100AEC000FD5196821F00E011960012303FA02F2E7
:100AFC007260836380F82130002380F82030036B10
:100B0C009EE770BC704700BF080002400000024026
:100B1C002DE9F74F00221646654BDFF8A4E1DFF80C
:100B2C00A4C14FF001080C6808FA06F808EA04049E
:100B3C00A0457FD14D68122D00F0AF8000F2888067
:100B4C00022D00F0A7807CD8002D00F08E80012DA6
:100B5C0000F09E804FF00F09FF2C93BF824606F1E8
:100B6C008045083DD0F800B092BFB500D0F804B075
:100B7C00AD0009FA05F82BEA080802FA05F588BF5A
:100B8C0000F1040A48EA0505CAF80050D1F804A09F
:100B9C001AF0805F4ED0474D464FAD6926F00308E2
:100BAC0045F00105BD61BD6908F1804805F00105FE
:100BBC00019508F5803806F0030B019D4FEA8B0B6D
:100BCC00D8F8085009FA0BF925EA09093A4DA84258
:100BDC0068D005F58065A84266D005F58065A84209
:100BEC0064D005F58065A8420CBF0325042505FAE1
:100BFC000BF545EA0905C8F808501D681AF4803F42
:100C0C0014BF2543A5431D605D681AF4003F14BF53
:100C1C002543A5435D609D681AF4801F14BF2543CE
:100C2C00A5439D60DD681AF4001F14BF2C4325EA10
:100C3C000404DC600136102E7FF473AF03B0BDE802
:100C4C00F08F032D22D0112D84D1CA68043281E794
:100C5C001A4FBD4209D012D8DFF86C904D4504D024
:100C6C0009F580394D457FF475AF8A68C2B1012A08
:100C7C000CBFC0F81080C0F8148008226AE77545D4
:100C8C00F3D06545F1D0DFF84490EBE7002261E743
:100C9C00CA685FE7CA6808325CE7CA680C3259E771
:100CAC00042257E70025A2E70125A0E702259EE7CD
:100CBC000004014000100240000801400000211017
:100CCC000000311000003210000011100000221042
:100CDC000AB1016170470904FBE7000003682DE9C4
:100CEC00F341DB07054610D42B689F075ED42B68B5
:100CFC00190700F195802B685A0700F1BF80EA694B
:100D0C00002A40F02D81002014E0904C636803F021
:100D1C000C03042B07D0636803F00C03082B0CD1D5
:100D2C006368DE0309D523689C03DDD56B68002B53
:100D3C00DAD1012002B0BDE8F0816B68B3F5803FD9
:100D4C0010D1236843F480332360FFF743FA06463F
:100D5C0023689803C8D4FFF73DFA801B6428F7D9A1
:100D6C000320E7E79BB9236823F4803323602368CF
:100D7C0023F480232360FFF72DFA0646236899039A
:100D8C00B2D5FFF727FA801B6428F7D9E8E7B3F54B
:100D9C00A02F236803D143F480232360D1E723F4ED
:100DAC0080332360236823F48023CDE7674C63688A
:100DBC0013F00C0F07D0636803F00C03082B10D151
:100DCC006368DA030DD423689B0702D52B69012BCA
:100DDC00AFD123686A6923F0F80343EAC2032360A6
:100DEC0085E72A695A4B6AB101221A60FFF7F2F9BA
:100DFC00064623689F07ECD4FFF7ECF9801B02280A
:100E0C00F7D9ADE71A60FFF7E5F9064623689807AE
:100E1C007FF56DAFFFF7DEF9801B0228F6D99FE74F
:100E2C00AA694A4C4B4BDAB101221A60FFF7D2F98E
:100E3C000646636A9B070DD54FF4FA52464B1B6866
:100E4C00B3FBF2F3019300BF019B5A1E0192002BDE
:100E5C00F9D150E7FFF7BEF9801B0228E9D97FE7EB
:100E6C001A60FFF7B7F90646636A9F077FF543AF31
:100E7C00FFF7B0F9801B0228F6D971E7334CE36910
:100E8C00D80024D40127E36943F08053E361E3697C
:100E9C0003F080530093009B304E3368D90518D56E
:100EAC00EB68012B26D1236A43F001032362FFF781
:100EBC0091F941F288368046236A9B073FD5002F73
:100ECC003FF41DAFE36923F08053E36117E700277C
:100EDC00E2E7336843F480733360FFF77BF98046B5
:100EEC003368DA05DCD4FFF775F9A0EB0800642849
:100EFC00F6D935E7ABB9236A41F2883823F0010300
:100F0C002362236A23F004032362FFF763F9064686
:100F1C00236A9807D3D5FFF75DF9801B4045F7D9B5
:100F2C001EE7052B236A03D143F004032362BAE7BF
:100F3C0023F001032362236A23F00403B6E7FFF7CF
:100F4C0049F9A0EB0800B042B6D909E700100240FD
:100F5C000000424280044242140000200070004015
:100F6C00224C636803F00C03082B3FF4E2AE002321
:100F7C001F4E022A33602BD1FFF72CF9074623684A
:100F8C0099011FD42B6AB3F5803F05D16268A9681B
:100F9C0022F400320A436260696A62680B4322F4ED
:100FAC0074121343636001233360FFF713F9054692
:100FBC0023689A013FF5A7AEFFF70CF9401B0228F6
:100FCC00F6D9CDE6FFF706F9C01B0228D7D9C7E63C
:100FDC00FFF700F9054623689B017FF594AEFFF7F8
:100FEC00F9F8401B0228F6D9BAE600BF00100240FF
:100FFC006000424230B5194B87B002AC03F11005CA
:10100C00224618685968083303C2AB421446F7D11C
:10101C0001238DF80430022311498DF805304B68FB
:10102C0003F00C02082A17D1C3F3834206A802442A
:10103C00DB0312F8102C0CD54B680A48C3F3404361
:10104C00504306AA134413F8143CB0FBF3F007B05A
:10105C0030BD05485043FAE70248F8E7C82A0008B3
:10106C000010024000127A0000093D004D4A2DE9A3
:10107C00F0411368054603F007038B420E4628D354
:10108C002A68910732D4D20738D4464A136803F041
:10109C0007039E4273D32A68434C12F0040F79D194
:1010AC00130706D563682A6923F4605343EAC20325
:1010BC006360FFF79FFF63683C4AC3F30313D35C81
:1010CC00D8403B4B18600020FFF742F80020BDE8E9
:1010DC00F081136823F007030B431360136803F0CC
:1010EC0007039942CCD00120BDE8F0812E49A868B5
:1010FC004B6823F0F00303434B60C4E76A682A4C47
:10110C00012A23681CD113F4003FECD0636841F230
:10111C00883823F0030313436360FFF75BF86B68B5
:10112C000746012B14D1636803F00C03042BACD0DD
:10113C00FFF750F8C01B4045F5D90320BDE8F081FE
:10114C00022A02D113F0007FDFE713F0020FDCE775
:10115C00022B0FD1636803F00C03082B95D0FFF71B
:10116C0039F8C01B4045F5D9E7E7FFF733F8C01B4A
:10117C004045E2D8636813F00C0FF6D185E713688D
:10118C0023F0070333431360136803F007039E42F5
:10119C00A9D180E76368E96823F4E0630B436360DB
:1011AC007EE700BF0020024000100240C0CB0008C8
:1011BC0014000020014B1868704700BF1400002079
:1011CC0003682DE9F341D907054620D5354CE36971
:1011DC00DA0032D40127E36943F08053E361E36919
:1011EC0003F080530193019B2F4E3368DB0526D50A
:1011FC00236A13F4407336D1236A6A6823F440736C
:10120C00134323621FB1E36923F08053E361286821
:10121C00830706D5234AA968536823F440430B433C
:10122C00536010F010001BD01E4AE9685368002070
:10123C0023F480030B43536012E00027D4E7336898
:10124C0043F480733360FEF7C5FF80463368D805DE
:10125C00CED4FEF7BFFFA0EB08006428F6D903201C
:10126C0002B0BDE8F0816A6802F440729342C3D0C8
:10127C0001200E4A236A1060002023F44071106094
:10128C002162D907B8D5FEF7A5FF41F2883806468A
:10129C00236A9A07B0D4FEF79DFF801B4045F7D90F
:1012AC00DDE700BF001002400070004040044242E5
:1012BC004FF07F63054A1361030203F4407300F09F
:1012CC00FC00184380001061704700BF000C014007
:1012DC00002808BF0120014B18707047D300002074
:1012EC00002208210148FFF7F3BC00BF00080140B1
:1012FC00012208210148FFF7EBBC00BF00080140A8
:10130C00012202481146FFF7E3BC00BF0008014070
:10131C00002210210148FFF7DBBC00BF0008014090
:10132C00012210210148FFF7D3BC00BF0008014087
:10133C001FB504220323694603488DE80C00FFF710
:10134C00E7FB05B05DF804FB000801400022042116
:10135C000148FFF7BDBC00BF000801400122042179
:10136C000148FFF7B5BC00BF000801401FB50022C3
:10137C000323042001218DE80F0069460248FFF782
:10138C00C7FB05B05DF804FB0008014000220221F8
:10139C000148FFF79DBC00BF000801401FB50222A9
:1013AC000323694603488DE80C00FFF7B1FB05B039
:1013BC005DF804FB00080140012202210148FFF7FF
:1013CC0087BC00BF00080140012208B5074B1A700A
:1013DC00FFF78EFFFFF794FFFFF7EEFFFFF7A0FF7D
:1013EC00FFF796FFBDE80840FFF79ABFC600002044
:1013FC001FB500220323022001218DE80F0069464E
:10140C000248FFF785FB05B05DF804FB00080140BE
:10141C0008B5FFF7BBFFBDE80840FFF7CDBF08B527
:10142C00FFF746FFFFF7F4FFBDE80840FFF7C4BF26
:10143C0010B50446000AFFF7F2FFE0B2BDE8104019
:10144C00FFF7EDBF10B50446FFF780FF2046FFF70E
:10145C00EFFFBDE81040FFF781BF38B505460C46DD
:10146C00FFF73EFF2846FFF7EDFF2046FFF7E0FFB2
:10147C00BDE83840FFF73CBF70B506460D4600246A
:10148C00002D00DC70BD06EB440336F814005988BF
:10149C00043D0234FFF7E1FF2DB224B2F0E7000067
:1014AC00044B0120198821F4005189B21980FFF7EF
:1014BC00D4BF00BFC4000020F8B50E461746044642
:1014CC001D46194B81B21888FFF7C7FF174BB1B2F5
:1014DC001888FFF7C2FFBC4201D1AE4222D0144B98
:1014EC0014481B780088DB075DBF44EA072424B24C
:1014FC00274646EA052544BF2EB23546A1B2FFF772
:10150C00ACFF0D48B1B20088FFF7A7FF0B4AB9B288
:10151C001088FFF7A2FF0A4BA9B21888BDE8F84063
:10152C00FFF79BBFF8BD00BF0C0000200E00002091
:10153C00CC00002010000020120000200800002029
:10154C000A00002070B5174B0D461B781646DB07BA
:10155C0017D5002824DB002922DB134B1B8898426B
:10156C001EDA124B1B8899421ADA03460A460146C8
:10157C002846FFF7A1FF3146BDE870402220FFF757
:10158C006CBF00280CDB00290ADB084B1B88984237
:10159C0006DA054B1B88994202DA0B460246E8E74D
:1015AC0070BD00BFCC000020CE000020CA0000207F
:1015BC002DE9F04106460F46154698460024AC42EC
:1015CC0001DBBDE8F08130194246394600B2FFF725
:1015DC00B9FF0134F3E72DE9F04106460F461546F5
:1015EC0098460024AC4201DBBDE8F0813919424633
:1015FC0009B23046FFF7A6FF0134F3E72DE9F041BD
:10160C001F460E4680461446BDF818502B46FFF771
:10161C00CFFF791E31442B462246404609B2FFF7D4
:10162C00C7FF2B463A4631464046FFF7D4FF601EB3
:10163C0040442B463A463146BDE8F04100B2FFF734
:10164C00CABF0B4649428A420BDD9A42A8BF002210
:10165C00104481B2002ABCBFC91889B24120FFF7DF
:10166C00FCBE0022F4E70000F8B500F00300394E90
:10167C0002283070384C394D0AD0032854D0012838
:10168C0059D1F02323804FF4A0732B80F82300E072
:10169C00982313F0800F14BF4FF4A041002113F0D6
:1016AC00400F14BF4FF40072002213F0200F14BF30
:1016BC000827002741F42451294B41F03F011143E5
:1016CC0001201980FFF7C9FE47F4C04141F07001B9
:1016DC001120FFF7C2FE3378224913F0010F224A82
:1016EC00224B234F234E244827D04FF04F0EA1F806
:1016FC0000E04E2119804523138046233B80442370
:10170C003380002103802A882388013A013B084654
:10171C001BB212B2FFF7D0FE0022B4F90010104633
:10172C00BDE8F840FFF78DBFF02323804FF4A07382
:10173C002B802823ADE74823ABE74FF04E0EA1F8E2
:10174C0000E04F211980442313803B8045233380D4
:10175C004623D6E7CC000020CE000020CA00002093
:10176C00C40000200C000020100000200E000020FF
:10177C0008000020120000200A0000202DE9F04192
:10178C00002ABDF8184004DA95B26A42284412B215
:10179C0000B2234D02442D8812B2AA42C8BF2AB20D
:1017AC0020EAE07092B2151A002B2DB204DA9EB228
:1017BC00734231441BB209B21A4E0B4436881BB229
:1017CC00B342C8BF33B221EAE1719BB25E1A013A4F
:1017DC00013B1BB212B2FFF76FFE36B2FFF780FD72
:1017EC002220FFF72FFEB542BEBF2B4635461E46C4
:1017FC004FEA1428E4B2B6B233B2002B03DCBDE8D6
:10180C00F041FFF775BD2F464046013FFFF707FE3D
:10181C003FB22046FFF703FE002FF5D1013EEAE769
:10182C00CA000020CE0000202DE9F04F8BB00593AC
:10183C00BDF8503000250693A0235343079308238B
:10184C009DF85480099104931FFA80F94F464E4637
:10185C000024BDF82420ABB21FFA88FA03FB0A213E
:10186C0009B2039107991344A1EB850108910FFA72
:10187C0083FB089B1D4A03EB44131344DB69012BC8
:10188C0025D1B8F1010F18D1059A09EB040059467E
:10189C0000B2FFF757FE013456445744052CB6B23C
:1018AC00BFB2E6D1049B0135013B13F0FF036DB2CF
:1018BC000493CBD10BB0BDE8F08F059A0FFA88F3E7
:1018CC0000921A46039930B2FFF758FFE3E7B8F1DC
:1018DC00010F03D109EB0400069AD8E7069A0FFA18
:1018EC0088F3009203991A4638B2EDE77C2B000876
:1018FC000A2873B502460BD100221C4B1A801C4AD5
:10190C001C4B1978138803EBC103138002B070BD14
:10191C000D28FBD0184B154C1B781549154D7BB178
:10192C000620B4F900302E7800FB0630134B1B88D0
:10193C00984205DD002323800B8803EBC6030B8044
:10194C002E780F4BB1F900101B8801960D4EB4F98F
:10195C00000036880096FFF767FF2B78228803EB90
:10196C00430302EB43032380D0E700BFD0000020E9
:10197C00C8000020D3000020D2000020CA000020A4
:10198C00D6000020D400002038B50C4C20800C4828
:10199C0001800C499DF810000A800B4A1380FFF758
:1019AC0097FC0598FEF7CCFB059C2518AC4200D1A2
:1019BC0038BD14F8010BFFF79BFFF7E7D0000020B0
:1019CC00C8000020D6000020D400002007B500215C
:1019DC00064B074AB3F90030B2F9002000900846D4
:1019EC00FFF7CCFE03B05DF804FB00BFCE00002077
:1019FC00CA00002008B5FFF7FBFCFFF7B7FCFFF7A8
:101A0C00E3FCA4210548FFF737FD0020FFF748FD54
:101A1C00BDE808400020FFF7D9BF00BFD82A000856
:101A2C00F022054B41F289201A804FF4A072034B2F
:101A3C001A80FFF7DFBF00BFCA000020CE000020D5
:101A4C0008B50268094B9A420FD1094B094A19682B
:101A5C0011605A68084B1A600022084B1A60FFF795
:101A6C0085FCBDE80840FFF7C3BC08BD002401405D
:101A7C004C010020B0000020B8000020BC00002069
:101A8C004FF4803310B594B001220B930021022443
:101A9C0012934FF4E0130AA80A920C910E9211942F
:101AAC001393FFF71BF900B1FEE70F2305934FF4D7
:101ABC00806307900990214605A806940893FFF7C8
:101ACC00D5FA00B1FEE74FF4004301A8019403934B
:101ADC00FFF776FB044600B1FEE7FFF76BFB4FF414
:101AEC007A73B0FBF3F0FEF7E5FE0420FEF7F8FE88
:101AFC00224621464FF0FF30FEF79CFE14B010BD7D
:101B0C00F0B5394B85B001931021052304240093C3
:101B1C00084600231F22FFF737FF344B0094019334
:101B2C001F22002337211020FFF72EFF00941F24C3
:101B3C0002252F4B1F220193642100231020FFF755
:101B4C0023FF00949B232D220A215B20FFF756FDD7
:101B5C00009499232B220B215C20FFF74FFD254B82
:101B6C002246019300950023A8211020FFF70CFFBB
:101B7C00214B2246019300950023A8218220FFF7D8
:101B8C0003FF1E4B2246019300950023BC2110201D
:101B9C00FFF7FAFE1A4F1B4B02AE1A883946304635
:101BAC0000F046FB22468DE860000023BC21282073
:101BBC00FFF7EAFE144B2246019300950023BC214B
:101BCC008220FFF7E1FE114B39461A88304600F0AF
:101BDC002FFB8DE8600000232246BC21AA20FFF7D2
:101BEC00D3FE05B0F0BD00BF7CCB000882CB000853
:101BFC008FCB000896CB000899CB00089CCB000833
:101C0C009FCB0008CA000020A2CB0008CE00002009
:101C1C0080B5554C8AB0FEF7BFFAFFF731FFA369C8
:101C2C00002243F01003A361A3694FF4C04103F0F9
:101C3C0010030293029BA3694C4843F02003A36159
:101C4C00A369002503F020030393039BA3690126DA
:101C5C0043F00403A361A369022703F00403049374
:101C6C00049BA3694FF0030843F00803A361A36925
:101C7C0003F008030593059BFFF72AF800221921AE
:101C8C003B48FFF725F800224FF47F613948FFF7F6
:101C9C001FF84FF4C04306A93448069307960895DD
:101CAC000997FEF735FF192306A9314806930796C5
:101CBC000895CDF82480FEF72BFF062306A92C48A7
:101CCC000693CDF81C80FEF723FF4FF47F6306A923
:101CDC002848069307960895CDF82480FEF718FF40
:101CEC0063692A4633436361636929463340019330
:101CFC000B20019BFEF79EFD0B20FEF7CFFD1E4C2B
:101D0C001E4B204623604FF48073A3604FF4602376
:101D1C00E5606561E36165602761FEF7F7FC00B182
:101D2C00FEE7089006A9204606960796FEF71CFBD0
:101D3C0000B1FEE706A9204606970797FEF714FBAD
:101D4C0000B1FEE7FFF76CFE3A460D492046FEF760
:101D5C002DFC0C4B40461E60FFF786FCFFF7D0FEB7
:101D6C0000F08EF9FAE700BF0010024000100140AD
:101D7C0000080140000C0140D80000200024014064
:101D8C004C010020BC0000200148FEF7A9BB00BF9D
:101D9C00D8000020FEE70000254B07B59A69032008
:101DAC0042F001029A619A6902F001020092009AD3
:101DBC00DA6942F08052DA61DB6903F080530193F7
:101DCC00019BFEF725FD00226FF00B001146FEF77C
:101DDC0031FD00226FF00A001146FEF72BFD0022A8
:101DEC006FF009001146FEF725FD00226FF004008C
:101DFC001146FEF71FFD00226FF003001146FEF79F
:101E0C0019FD00226FF001001146FEF713FD0022B0
:101E1C004FF0FF301146FEF70DFD064A536823F0D4
:101E2C00E06343F00073536003B05DF804FB00BF44
:101E3C00001002400000014030B502681E4B87B014
:101E4C009A42054635D103F56C439A691B4842F416
:101E5C0000729A619B6902A903F400730193019BC0
:101E6C000623029303230393FEF752FE8022144CA5
:101E7C00144BE2604FF4007222614FF40062236055
:101E8C0062610023202220466360A360A261E361AB
:101E9C00FEF738FD18B176210B48FFF77BFF0022C7
:101EAC002C62122011466562FEF7C4FC1220FEF76C
:101EBC00F5FC07B030BD00BF002401400008014014
:101ECC000801002008000240A5CB00087047FEE77F
:101EDC00FEE7FEE7FEE770477047704708B5FEF770
:101EEC006DF9BDE80840FEF708BD00000148FEF79B
:101EFC007BBD00BF080100200148FEF7B1B900BF4F
:101F0C00D80000200F4B1A6842F001021A60596881
:101F1C000D4A0A405A601A6822F0847222F4803208
:101F2C001A601A6822F480221A605A6822F4FE029F
:101F3C005A604FF41F029A604FF00062034B9A6094
:101F4C00704700BF001002400000FFF800ED00E0F9
:101F5C0010B50D4CFFF722FAFFF718FA20460022B5
:101F6C004FF40071FEF7B4FE012220464FF480714D
:101F7C00FEF7AEFEFFF7EAF9BDE810400122034B75
:101F8C001A60FFF701BF00BF000C0140BC0000202D
:101F9C0010B50D4CFFF7CCF9204600224FF48071A0
:101FAC00FEF796FEFFF7D2F9FFF706FA002220465D
:101FBC004FF40071FEF78CFEBDE810400122034B7C
:101FCC001A60FFF7E1BE00BF000C0140BC0000200E
:101FDC0010B50E4C002220464FF48071FEF778FEAF
:101FEC00012220464FF40071FEF772FEFFF7AEF9A6
:101FFC00FFF79EF9FFF7CAF9FFF7D0F9BDE81040DB
:10200C000122034B1A60FFF7BFBE00BF000C01405A
:10201C00BC0000202DE9F0470025FFF7D9FFA946A9
:10202C00134E144FDFF85480D6F800A0BAF1000F0D
:10203C0019D13C68D8F8003004F58054E41A0E4BE2
:10204C00C82C1C60D4BF00240124AC4208BF09F189
:10205C00010A2546FFF7BCFFD146B9F1090FE3DDB4
:10206C002846BDE8F0870120FEF7BAF8F5E700BF77
:10207C00BC000020B8000020A0000020B000002010
:10208C002DE9F04100253E4E86B0FFF761FF2C464E
:10209C00B0463C4F3368002B6CD140F2DB523B68AE
:1020AC00934298BFE418FFF753FF0135132DF1DD70
:1020BC00142294FBF2F24FF4FC6402AD324F33491C
:1020CC0028463A6000F0B4F8009412235022A8215C
:1020DC002820FFF753FB0223019500931F22234670
:1020EC00A8212820FFF750FC002501232C46C8F816
:1020FC000030FFF74DFF264ED8F80030002B3BD1B7
:10210C0033681C44FFF744FF0135132DF4DD142212
:10211C004FF4FC6594FBF2F204AE1E4C1B493046A6
:10212C00226000F085F812235022A8219A200095F5
:10213C00FFF724FB02231F220093A8212B469A2091
:10214C000196FFF721FCFFF765FFB8B13B68A3F2DE
:10215C00EF23B3F5F47F11D82368FB3BB3F5B87FBD
:10216C000CD800224FF400510B48FEF7B1FD06B01D
:10217C00BDE8F081013D98E7013DC5E70122F1E79B
:10218C00BC000020B0000020980000209FCB00086D
:10219C00B80000209C00002000100140002103E04A
:1021AC000B4B5B58435004310A480B4B42189A4274
:1021BC00F6D30A4A02E0002342F8043B084B9A4249
:1021CC00F9D3FFF79FFE00F00FF8FFF721FD7047E2
:1021DC000CCC0008000000207C0000207C000020BB
:1021EC0058010020FEE7000070B500250C4E0D4C88
:1021FC00A41BA410A54209D100F054FC00250A4EE2
:10220C000A4CA41BA410A54205D170BD56F825306C
:10221C0098470135EEE756F8253098470135F2E737
:10222C0004CC000804CC000804CC000808CC00083E
:10223C000EB44FF4027100B59CB0ADF814106FF0F1
:10224C000041049107914FF6FF711DAB029006906F
:10225C00084853F8042BADF81610006802A9019336
:10226C0000F066F80022029B1A701CB05DF804EBBB
:10227C0003B07047180000202DE9F0478E688246A5
:10228C009E420C469146984635D88A8912F4906F36
:10229C0031D00223256809696F1A656905EB45057C
:1022AC0095FBF3F508F101033B449D4238BF1D46F5
:1022BC00530531D5294600F047FB064650B90C238F
:1022CC00CAF80030A3894FF0FF3043F04003A381DC
:1022DC00BDE8F0873A46216900F0C4FAA38923F4DB
:1022EC00906343F08003A38126613E4426604646FA
:1022FC006561ED1BA560464528BF464649463246FA
:10230C00206800F0BAFAA36800209B1BA360236826
:10231C001E442660BDE8F0872A4600F073FB064693
:10232C000028E1D12169504600F0C2FAC7E700004D
:10233C002DE9F04F9DB003938B8980461C060D460A
:10234C0016460FD50B696BB9402100F0FDFA2860D9
:10235C00286128B90C23C8F800304FF0FF30C4E0D6
:10236C0040236B610023099320238DF829303023FF
:10237C004FF0010B8DF82A3037463C4614F8013BE0
:10238C00002B3CD1B7EB060A0BD0534632462946FC
:10239C004046FFF771FF013000F0A280099B5344C7
:1023AC0009933B78002B00F09B8000234FF0FF3209
:1023BC0004930793059206938DF853301A930522D4
:1023CC002178504800F040FA671C049BD8B9D90614
:1023DC0044BF20228DF853201A0744BF2B228DF8BE
:1023EC00532022782A2A16D000210A20079A274641
:1023FC003B780134303B092B50D9C9B111E0252B66
:10240C00C0D02746B9E73F4A3C46801A0BFA00F089
:10241C0018430490D3E7039A111D12680391002A04
:10242C0001DB079204E0524243F00203079204934B
:10243C003B782E2B0DD17B78791C2A2B32D1039B28
:10244C0002371A1D1B680392002BB8BF4FF0FF33E5
:10245C0005932D4C03223978204600F0F5F938B15C
:10246C004023001B03FA00F0049B01370343049341
:10247C003978062225487E1C8DF8281000F0E4F9E6
:10248C00002835D0224BFBB9039B073323F00703FD
:10249C0008330393099B4B4409936DE700FB02320D
:1024AC000121A4E700230A24184605930F463A7825
:1024BC000131303A092A03D9002BCAD00590C8E75C
:1024CC0004FB00200123F1E703AB00932A46114BD8
:1024DC0004A94046AFF30080B0F1FF3F8146D9D14B
:1024EC00AB895B063FF539AF09981DB0BDE8F08F9D
:1024FC0003AB00932A46074B04A9404600F084F82E
:10250C00EAE700BFD0CB0008D6CB0008DACB000836
:10251C0000000000852200082DE9F04791461F4677
:10252C008A680B6906469342B8BF1346C9F8003057
:10253C0091F843200C46DDF8208012B10133C9F824
:10254C0000302368990642BFD9F800300233C9F82D
:10255C000030256815F0060507D104F1190AE36867
:10256C00D9F800209B1A9D422ADB94F8433022684C
:10257C00003318BF012392062FD404F143023946CD
:10258C003046C047013022D02368E56803F00603CB
:10259C00042B18BF0025D9F800204FF0000908BF04
:1025AC00AD1AA368226908BF25EAE5759342C4BF3A
:1025BC009B1AED181A344D451BD10020BDE8F0874D
:1025CC000123524639463046C047013003D14FF003
:1025DC00FF30BDE8F0870135C1E73020E11881F804
:1025EC0043005A1C94F845102244023382F84310DD
:1025FC00C3E70123224639463046C0470130E6D0B6
:10260C0009F10109D7E700002DE9F04317460A7ECE
:10261C0085B06E2A984606460C460C9B01F1430E7B
:10262C0000F0BC801AD8632A2ED00AD8002A00F0F9
:10263C00C880582A00F08A8004F1420584F84220B0
:10264C002AE0642A01D0692AF6D121681A6811F0AF
:10265C00800F23D0111D1960136827E0732A00F036
:10266C00B48008D86F2A2AD0702AE5D10A6842F0C3
:10267C0020020A6003E0752A21D0782ADCD1782266
:10268C006F4984F8452064E01A6801F14205111D78
:10269C001960136884F842300123A3E011F0400F55
:1026AC0002F104011960D7D0B2F90030002B03DA23
:1026BC002D225B4284F8432062490A2217E02068ED
:1026CC00196810F0800F03D0081D18600B6806E025
:1026DC0010F0400F01F104001860F7D00B886F2A3E
:1026EC0014BF0A2208225749002084F84300656869
:1026FC00002DA560C0F29C80206820F004002060B2
:10270C00002B3FD1002D40F095807546082A0BD147
:10271C002368DA0708D5236962689A42DEBF302342
:10272C0005F8013C05F1FF35AEEB05032361CDF84F
:10273C0000803B4603AA21463046FFF7EDFE0130F0
:10274C0055D14FF0FF3005B0BDE8F08381F845203E
:10275C003C492268186812F0800F00F104051D60D6
:10276C0001D0036802E05506FBD50388D00744BFAF
:10277C0042F0200222601BB9226822F02002226063
:10278C001022B1E77546B3FBF2F002FB1033CB5CC1
:10279C0005F8013D03460028F5D1B7E708681A682B
:1027AC0010F0800F496904D0101D1860136819606F
:1027BC0007E010F0400F02F1040018601368F6D027
:1027CC001980002375462361B1E71A68111D196041
:1027DC00156800216268284600F036F808B1401BE5
:1027EC00606063682361002384F843309FE72369AA
:1027FC002A4639463046C0470130A2D023689B0791
:10280C0007D5002504F11909E368039A9B1A9D4228
:10281C0005DBE068039B9842B8BF184693E7012399
:10282C004A4639463046C04701308AD00135EBE77D
:10283C00002BA7D10B7804F1420584F8423065E7F0
:10284C00F2CB0008E1CB000810B5C9B202449042AB
:10285C00034601D1002010BD1C7801308C42F6D10A
:10286C00184610BD10B5431E0A44914200D110BD4C
:10287C0011F8014B03F8014FF7E7884210B501EB53
:10288C00020303D8421E99420CD110BD9842F9D2D2
:10289C008118D21AD34200D110BD13F8014D01F8A2
:1028AC00014DF7E711F8014B02F8014FEBE700007F
:1028BC0038B50546002943D051F8043C0C1F002BB9
:1028CC00B8BFE41800F0D4F81E4A1368104633B9A8
:1028DC00636014602846BDE8384000F0CAB8A342D3
:1028EC000BD921686218934201BF1A685B685218B1
:1028FC00226063600460EDE713465A680AB1A24295
:10290C00FAD919685818A0420BD1206801445818FC
:10291C0082421960DED110685268014419605A6015
:10292C00D8E702D90C232B60D4E7206821188A42FF
:10293C0001BF116852680918216062605C60C9E7C8
:10294C0038BD00BFA400002070B5CD1C25F00305D8
:10295C0008350C2D38BF0C25002D064601DBA9428D
:10296C0003D90C233360002070BD00F081F8234A9A
:10297C001468214691B9224C23681BB9304600F0EB
:10298C0067F820602946304600F062F8431C26D1D7
:10299C000C233046336000F06CF8E4E70B685B1BEB
:1029AC001AD40B2B0FD90B60CC18CD50304600F03D
:1029BC0060F804F10B00231D20F00700C31A1BD094
:1029CC005A42E25070BD8C420BBF63684B68136077
:1029DC00636018BF0C46E9E70C464968CAE7C41C9B
:1029EC0024F00304A04205D0211A304600F030F840
:1029FC000130CDD02560D9E770BD00BFA400002008
:102A0C00A8000020F8B5074614460E4621B9114619
:102A1C00BDE8F840FFF798BF22B9FFF749FF2546FC
:102A2C002846F8BD00F026F884420FD921463846D6
:102A3C00FFF78AFF05460028F2D031462246FFF701
:102A4C0011FF31463846FFF733FFE9E73546E7E734
:102A5C0038B50023054C05460846236000F014F8F1
:102A6C00431C02D1236803B12B6038BD54010020F4
:102A7C007047704751F8040C0028A0F10400BCBF4B
:102A8C000B58C01870470000044B0246196809B96E
:102A9C0003491960186802441A607047AC000020A2
:102AAC0058010020F8B500BFF8BC08BC9E46704722
:0C2ABC00F8B500BFF8BC08BC9E4670478F
:102AC80002030405060708090A0B0C0D0E0F101067
:102AD8000000010001003F2B020000040300A4A82D
:102AE8000C000000070033020D000C080E00002B3C
:102AF8001E00B70010000000110070600500000003
:102B08000600000016001CEF170003000B00000071
:102B18000F000000410000004200000048000000D3
:102B280049003F014A0000004B000000440095EFB7
:102B38004500000046003F0130000707310004024D
:102B48003200040233000205340007053500040290
:102B580036000402370002053A0002033B00020374
:102B68002300000024000000250000804F00000022
:102B78004E000000000000000000000000000000FF
:102B8800000000000000000000000000000000003D
:102B9800000000000000000000000000000000002D
:102BA800000000000000000000000000000000001D
:102BB800000000000000000000000000000000000D
:103578000000000000000000010000000100000041
:10358800010000000100000001000000010000002F
:103598000100000000000000000000000000000022
:1035A8000000000000000000000000000000000013
:1035B8000000000000000000000000000000000003
:1035C80000000000000000000000000000000000F3
:1035D80000000000000000000000000000000000E3
:1035E80000000000000000000000000000000000D3
:1035F80000000000000000000000000000000000C3
:1036080000000000000000000000000000000000B2
:1036180000000000000000000100000001000000A0
:10362800010000000100000001000000010000008E
:10363800010000000000000001000000010000007F
:10364800010000000100000001000000010000006E
:103658000100000000000000000000000000000061
:103668000000000000000000000000000000000052
:103678000000000000000000000000000000000042
:103688000000000000000000000000000000000032
:103698000000000000000000000000000000000022
:1036A8000000000000000000000000000000000012
:1036B8000000000000000000010000000100000000
:1036C80001000000010000000100000001000000EE
:1036D80001000000000000000100000001000000DF
:1036E80001000000010000000100000001000000CE
:1036F80001000000000000000100000001000000BF
:1037080001000000010000000100000001000000AD
:1037180001000000000000000000000000000000A0
:103728000000000000000000000000000000000091
:103738000000000000000000000000000000000081
:103748000000000000000000000000000000000071
:10375800000000000000000001000000010000005F
:10376800010000000100000001000000010000004D
:10377800010000000000000001000000010000003E
:10378800010000000100000001000000010000002D
:10379800010000000000000001000000010000001E
:1037A800010000000100000001000000010000000D
:1037B80001000000000000000100000001000000FE
:1037C80001000000010000000100000001000000ED
:1037D80001000000000000000000000000000000E0
:1037E80000000000000000000000000000000000D1
:1037F80000000000000000000100000001000000BF
:1038080001000000010000000100000001000000AC
:10381800010000000000000001000000010000009D
:10382800010000000100000001000000010000008C
:10383800010000000000000001000000010000007D
:10384800010000000100000001000000010000006C
:10385800010000000000000001000000010000005D
:10386800010000000100000001000000010000004C
:10387800010000000000000001000000010000003D
:10388800010000000100000001000000010000002C
:10389800010000000000000000000000000000001F
:1038A8000000000000000000000000000000000010
:1038B80000000000000000000100000001000000FE
:1038C80001000000010000000100000001000000EC
:1038D80001000000000000000100000001000000DD
:1038E80001000000010000000100000001000000CC
:1038F80001000000000000000100000001000000BD
:1039080001000000010000000100000001000000AB
:10391800010000000000000001000000010000009C
:10392800010000000100000001000000010000008B
:10393800010000000000000000000000000000007E
:10394800000000000000000000000000000000006F
:10395800000000000000000000000000000000005F
:10396800000000000000000000000000000000004F
:10397800000000000000000001000000010000003D
:10398800010000000100000001000000010000002B
:10399800010000000000000001000000010000001C
:1039A800010000000100000001000000010000000B
:1039B80001000000000000000100000001000000FC
:1039C80001000000010000000100000001000000EB
:1039D80001000000000000000000000000000000DE
:1039E80000000000000000000000000000000000CF
:1039F80000000000000000000000000000000000BF
:103A080000000000000000000000000000000000AE
:103A1800000000000000000000000000000000009E
:103A2800000000000000000000000000000000008E
:103A3800000000000000000001000000010000007C
:103A4800010000000100000001000000010000006A
:103A5800010000000000000001000000010000005B
:103A6800010000000100000001000000010000004A
:103A7800010000000000000000000000000000003D
:103A8800000000000000000000000000000000002E
:103A9800000000000000000000000000000000001E
:103AA800000000000000000000000000000000000E
:103AB80000000000000000000000000000000000FE
:103AC80000000000000000000000000000000000EE
:103AD80000000000000000000000000000000000DE
:103AE80000000000000000000000000000000000CE
:103AF80000000000000000000100000001000000BC
:103B080001000000010000000100000001000000A9
:103B1800010000000000000001000000010000009A
:103B2800000000000000000000000000000000008D
:103B3800000000000000000001000000010000007B
:103B4800010000000000000000000000000000006C
:103B5800000000000000000000000000010000005C
:103B68000100000001000000010000000100000049
:103B7800010000000000000000000000000000003C
:103B8800000000000000000000000000010000002C
:103B9800000000000000000000000000010000001C
:103BA800010000000100000001000000000000000A
:103BB80000000000000000000000000000000000FD
:103BC80000000000000000000000000001000000EC
:103BD80001000000000000000000000000000000DC
:103BE80000000000000000000000000001000000CC
:103BF80001000000000000000000000001000000BB
:103C080001000000000000000000000000000000AB
:103C1800000000000000000001000000000000009B
:103C2800000000000100000000000000000000008B
:103C3800000000000000000001000000000000007B
:103C4800000000000100000000000000000000006B
:103C5800000000000000000000000000000000005C
:103C6800000000000000000000000000010000004B
:103C78000100000000000000010000000100000039
:103C88000100000001000000000000000100000029
:103C9800010000000000000000000000010000001A
:103CA800000000000100000000000000000000000B
:103CB80000000000000000000000000001000000FB
:103CC80000000000010000000000000000000000EB
:103CD80000000000000000000000000000000000DC
:103CE80000000000010000000000000000000000CB
:103CF80000000000000000000000000000000000BC
:103D080000000000000000000100000000000000AA
:103D1800000000000000000000000000000000009B
:103D28000000000001000000010000000000000089
:103D3800000000000000000000000000000000007B
:103D48000100000001000000010000000000000068
:103D5800000000000000000000000000000000005B
:103D68000000000001000000010000000000000049
:103D7800000000000000000000000000000000003B
:103D8800000000000000000001000000000000002A
:103D9800000000000000000000000000000000001B
:103DA800000000000000000000000000000000000B
:103DB80000000000000000000000000001000000FA
:103DC80001000000010000000100000001000000E7
:103DD80000000000000000000000000000000000DB
:103DE80001000000010000000100000000000000C8
:103DF80000000000000000000000000000000000BB
:103E080000000000010000000000000000000000A9
:103E1800000000000000000000000000000000009A
:103E2800000000000000000000000000000000008A
:103E3800000000000000000000000000000000007A
:103E4800000000000000000000000000000000006A
:103E5800000000000000000000000000000000005A
:103E68000000000001000000000000000000000049
:103E7800000000000000000000000000000000003A
:103E88000100000001000000010000000000000027
:103E98000000000000000000000000000100000019
:103EA8000100000001000000010000000100000006
:103EB80000000000000000000000000000000000FA
:103EC80000000000000000000000000000000000EA
:103ED80000000000000000000000000000000000DA
:103EE80001000000000000000000000000000000C9
:103EF80000000000000000000000000000000000BA
:103F080001000000010000000000000000000000A7
:103F18000000000000000000000000000000000099
:103F28000100000001000000010000000000000086
:103F38000000000000000000000000000000000079
:103F48000100000001000000000000000000000067
:103F58000000000000000000000000000000000059
:103F68000100000000000000000000000000000048
:103F78000000000000000000000000000000000039
:103F88000000000000000000000000000000000029
:103F98000000000000000000000000000000000019
:103FA8000000000000000000000000000000000009
:103FB80000000000000000000000000000000000F9
:103FC80000000000000000000000000000000000E9
:103FD80000000000000000000000000000000000D9
:103FE80000000000000000000000000000000000C9
:103FF80000000000000000000000000000000000B9
:1040080000000000000000000000000000000000A8
:104018000000000000000000000000000000000098
:104028000000000000000000000000000000000088
:104038000000000000000000000000000000000078
:104048000000000000000000000000000000000068
:104058000000000000000000010000000000000057
:104068000100000001000000010000000100000044
:104078000100000000000000000000000000000037
:104088000000000000000000000000000000000028
:104098000000000000000000000000000000000018
:1040A8000000000000000000000000000000000008
:1040B80000000000000000000000000000000000F8
:1040C80000000000000000000000000000000000E8
:1040D80000000000000000000000000000000000D8
:1040E80000000000000000000100000001000000C6
:1040F80001000000000000000000000000000000B7
:1041080000000000000000000000000000000000A7
:104118000000000000000000000000000000000097
:104128000000000000000000010000000100000085
:104138000100000000000000000000000000000076
:104148000000000000000000000000000000000067
:104158000000000000000000000000000000000057
:104168000100000000000000010000000000000045
:104178000000000000000000010000000100000035
:104188000100000001000000010000000100000023
:104198000100000000000000000000000000000016
:1041A8000100000000000000010000000000000005
:1041B80000000000000000000100000001000000F5
:1041C80001000000010000000100000001000000E3
:1041D80001000000000000000000000000000000D6
:1041E80001000000000000000100000000000000C5
:1041F80000000000000000000000000001000000B6
:1042080000000000000000000100000000000000A5
:104218000000000000000000000000000100000095
:104228000000000001000000000000000100000084
:104238000000000000000000010000000100000074
:104248000100000001000000010000000100000062
:104258000100000000000000000000000100000054
:104268000000000001000000000000000100000044
:104278000000000000000000000000000000000036
:104288000100000000000000000000000100000024
:104298000000000000000000000000000100000015
:1042A8000000000000000000000000000100000005
:1042B80001000000000000000000000000000000F5
:1042C80001000000000000000000000001000000E4
:1042D80001000000000000000000000000000000D5
:1042E80000000000010000000000000000000000C5
:1042F80000000000000000000100000001000000B4
:1043080000000000000000000100000000000000A4
:104318000000000000000000010000000100000093
:104328000000000000000000000000000100000084
:104338000000000000000000000000000100000074
:104348000100000000000000010000000100000062
:104358000000000000000000010000000000000054
:104368000000000001000000000000000000000044
:104378000100000000000000010000000000000033
:104388000100000000000000010000000000000023
:104398000100000000000000000000000100000013
:1043A8000000000000000000000000000100000004
:1043B80000000000000000000100000000000000F4
:1043C80001000000000000000000000000000000E4
:1043D80000000000000000000000000000000000D5
:1043E80000000000000000000000000000000000C5
:1043F80000000000000000000000000000000000B5
:1044080000000000000000000100000000000000A3
:104418000100000000000000000000000000000093
:104428000000000000000000000000000100000083
:104438000100000000000000000000000000000073
:104448000000000000000000000000000000000064
:104458000000000000000000000000000000000054
:104468000000000000000000000000000000000044
:104478000000000000000000000000000000000034
:104488000000000000000000000000000000000024
:104498000000000000000000000000000000000014
:1044A8000100000001000000010000000000000001
:1044B80000000000000000000000000001000000F3
:1044C80000000000000000000000000001000000E3
:1044D80000000000000000000100000000000000D3
:1044E80000000000000000000000000000000000C4
:1044F80001000000000000000000000000000000B3
:1045080000000000000000000000000000000000A3
:104518000000000000000000000000000000000093
:104528000000000000000000000000000000000083
:104538000000000000000000010000000000000072
:104548000000000000000000000000000000000063
:104558000100000000000000000000000100000051
:104568000000000000000000000000000100000042
:104578000000000000000000000000000000000033
:104588000100000001000000010000000000000020
:104598000000000000000000000000000000000013
:1045A8000000000000000000000000000000000003
:1045B80000000000000000000000000000000000F3
:1045C80000000000010000000000000000000000E2
:1045D80000000000000000000000000001000000D2
:1045E80000000000010000000000000001000000C1
:1045F80000000000000000000000000000000000B3
:10460800010000000100000001000000000000009F
:104618000000000000000000000000000100000091
:104628000000000001000000000000000100000080
:104638000000000000000000000000000000000072
:104648000000000001000000000000000000000061
:104658000000000000000000000000000000000052
:104668000000000001000000000000000000000041
:104678000000000000000000000000000000000032
:104688000000000001000000000000000000000021
:104698000000000000000000000000000100000011
:1046A80001000000010000000100000001000000FE
:1046B80000000000000000000000000000000000F2
:1046C80000000000010000000000000000000000E1
:1046D80000000000000000000000000000000000D2
:1046E80000000000010000000000000000000000C1
:1046F80000000000000000000000000000000000B2
:1047080000000000000000000000000000000000A1
:104718000000000000000000010000000000000090
:104728000100000000000000000000000000000080
:104738000000000000000000000000000100000070
:104748000100000000000000000000000000000060
:104758000000000000000000000000000000000051
:104768000000000000000000000000000000000041
:104778000000000000000000000000000000000031
:104788000000000000000000000000000000000021
:104798000000000000000000000000000000000011
:1047A8000000000001000000000000000000000000
:1047B80000000000000000000000000000000000F1
:1047C80000000000010000000000000000000000E0
:1047D80000000000000000000000000000000000D1
:1047E80000000000010000000000000000000000C0
:1047F80000000000000000000000000000000000B1
:10480800000000000100000000000000000000009F
:104818000000000000000000000000000000000090
:10482800000000000100000000000000000000007F
:104838000000000000000000000000000000000070
:104848000000000000000000000000000000000060
:10485800000000000000000001000000010000004E
:104868000000000000000000000000000000000040
:10487800000000000000000001000000010000002E
:104888000000000000000000000000000000000020
:104898000000000000000000000000000000000010
:1048A8000000000000000000000000000000000000
:1048B80000000000000000000000000000000000F0
:1048C80000000000000000000000000000000000E0
:1048D80000000000000000000000000001000000CF
:1048E80000000000000000000000000000000000C0
:1048F80000000000000000000000000000000000B0
:10490800010000000000000000000000000000009E
:10491800000000000000000000000000000000008F
:10492800000000000100000000000000000000007E
:10493800000000000000000000000000000000006F
:10494800000000000000000001000000000000005E
:10495800000000000000000000000000000000004F
:10496800000000000000000000000000010000003E
:10497800000000000000000000000000010000002E
:10498800010000000100000001000000010000001B
:10499800000000000000000001000000000000000E
:1049A80001000000000000000000000000000000FE
:1049B80001000000000000000100000000000000ED
:1049C80000000000010000000000000000000000DE
:1049D80001000000000000000100000000000000CD
:1049E80000000000000000000100000000000000BE
:1049F80001000000000000000000000001000000AD
:104A0800010000000100000001000000010000009A
:104A1800000000000000000000000000000000008E
:104A2800000000000000000000000000000000007E
:104A3800000000000000000001000000000000006D
:104A4800000000000000000000000000010000005D
:104A5800000000000000000001000000010000004C
:104A6800010000000100000001000000010000003A
:104A7800010000000000000001000000000000002C
:104A8800000000000000000000000000000000001E
:104A9800000000000000000000000000000000000E
:104AA80000000000000000000000000000000000FE
:104AB80000000000000000000100000000000000ED
:104AC80000000000000000000000000001000000DD
:104AD80000000000000000000100000001000000CC
:104AE80000000000000000000000000000000000BE
:104AF80001000000000000000100000000000000AC
:104B0800010000000000000000000000000000009C
:104B1800010000000000000001000000000000008B
:104B2800000000000100000000000000000000007C
:104B3800010000000000000001000000000000006B
:104B4800000000000000000001000000010000005B
:104B5800000000000000000000000000010000004C
:104B6800000000000000000000000000000000003D
:104B7800010000000000000001000000000000002B
:104B8800000000000000000000000000000000001D
:104B9800010000000000000001000000000000000B
:104BA80000000000000000000100000000000000FC
:104BB80001000000000000000100000000000000EB
:104BC80000000000010000000000000001000000DB
:104BD80001000000000000000000000001000000CB
:104BE80001000000000000000000000000000000BC
:104BF80001000000000000000000000000000000AC
:104C0800010000000100000000000000000000009A
:104C1800000000000000000000000000000000008C
:104C2800010000000000000001000000000000007A
:104C3800000000000000000000000000000000006C
:104C4800010000000000000000000000010000005A
:104C5800000000000000000001000000010000004A
:104C68000100000001000000010000000100000038
:104C7800010000000000000000000000000000002B
:104C8800010000000000000000000000000000001B
:104C9800000000000000000000000000010000000B
:104CA80000000000000000000100000001000000FA
:104CB80001000000000000000100000000000000EA
:104CC80000000000000000000100000000000000DB
:104CD80001000000000000000100000000000000CA
:104CE80000000000000000000100000000000000BB
:104CF80001000000000000000100000000000000AA
:104D0800000000000000000001000000000000009A
:104D18000100000000000000000000000100000089
:104D28000100000001000000000000000000000079
:104D38000100000000000000000000000100000069
:104D48000100000001000000010000000000000058
:104D5800000000000000000001000000000000004A
:104D68000000000001000000000000000100000039
:104D7800000000000000000001000000000000002A
:104D8800000000000100000000000000000000001A
:104D98000100000000000000010000000000000009
:104DA80000000000010000000000000000000000FA
:104DB80001000000000000000000000001000000E9
:104DC80001000000000000000000000000000000DA
:104DD80000000000000000000000000000000000CB
:104DE80000000000000000000000000000000000BB
:104DF80001000000000000000100000001000000A8
:104E08000100000000000000000000000000000099
:104E18000100000000000000000000000000000089
:104E28000000000001000000000000000000000079
:104E38000100000000000000000000000000000069
:104E48000000000000000000010000000000000059
:104E58000100000000000000000000000000000049
:104E68000000000000000000000000000100000039
:104E78000100000000000000000000000100000028
:104E88000100000000000000010000000100000017
:104E98000000000000000000010000000000000009
:104EA80000000000010000000000000000000000F9
:104EB80001000000000000000100000000000000E8
:104EC80000000000010000000000000000000000D9
:104ED80001000000000000000100000000000000C8
:104EE80000000000010000000000000000000000B9
:104EF80001000000000000000000000001000000A8
:104F08000100000000000000010000000100000096
:104F18000000000000000000000000000000000089
:104F28000000000000000000010000000100000077
:104F38000000000000000000010000000000000068
:104F48000000000001000000000000000000000058
:104F58000100000000000000010000000000000047
:104F68000000000001000000000000000000000038
:104F78000100000000000000000000000100000027
:104F88000000000001000000000000000000000018
:104F98000100000000000000000000000000000008
:104FA80001000000010000000100000001000000F5
:104FB80000000000000000000000000000000000E9
:104FC80000000000000000000000000000000000D9
:104FD80000000000000000000000000001000000C8
:104FE80001000000000000000100000001000000B6
:104FF80000000000000000000000000001000000A8
:105008000100000000000000010000000100000095
:105018000000000000000000000000000000000088
:105028000000000000000000000000000000000078
:105038000000000000000000000000000000000068
:105048000000000000000000000000000000000058
:105058000000000000000000000000000000000048
:105068000000000000000000000000000000000038
:105078000000000000000000010000000000000027
:105088000100000000000000010000000100000015
:105098000000000000000000000000000100000007
:1050A80001000000000000000100000001000000F5
:1050B80000000000000000000000000000000000E8
:1050C80000000000000000000000000000000000D8
:1050D80000000000000000000000000000000000C8
:1050E80000000000000000000000000000000000B8
:1050F80000000000000000000000000000000000A8
:105108000000000000000000000000000000000097
:105118000000000000000000000000000000000087
:105128000000000001000000000000000000000076
:105138000000000000000000000000000000000067
:105148000100000000000000010000000000000055
:105158000000000000000000000000000100000046
:105168000000000000000000000000000100000036
:105178000000000000000000010000000000000026
:105188000000000000000000000000000000000017
:105198000100000000000000000000000000000006
:1051A80001000000000000000100000000000000F5
:1051B80000000000000000000000000000000000E7
:1051C80001000000000000000100000000000000D5
:1051D80000000000000000000000000000000000C7
:1051E80001000000000000000100000000000000B5
:1051F80000000000000000000000000000000000A7
:105208000100000000000000010000000000000094
:105218000000000000000000000000000000000086
:105228000100000000000000010000000000000074
:105238000000000000000000010000000000000065
:105248000000000000000000000000000000000056
:105258000100000000000000000000000100000044
:105268000000000000000000000000000100000035
:105278000000000000000000000000000000000026
:105288000100000000000000010000000000000014
:105298000000000000000000000000000000000006
:1052A80000000000010000000000000000000000F5
:1052B80000000000000000000000000000000000E6
:1052C80000000000000000000000000000000000D6
:1052D80000000000000000000000000000000000C6
:1052E80000000000000000000000000001000000B5
:1052F80000000000000000000000000000000000A6
:105308000000000000000000000000000000000095
:105318000100000000000000010000000000000083
:105328000100000000000000000000000000000074
:105338000100000000000000000000000000000064
:105348000000000001000000000000000000000054
:105358000100000000000000000000000000000044
:105368000000000000000000010000000100000033
:105378000000000000000000000000000100000024
:105388000100000000000000000000000100000013
:105398000000000000000000010000000000000004
:1053A80000000000010000000000000000000000F4
:1053B80001000000000000000100000001000000E2
:1053C80001000000010000000000000000000000D3
:1053D80001000000000000000100000000000000C3
:1053E80000000000000000000000000000000000B5
:1053F80001000000000000000000000001000000A3
:105408000100000001000000010000000100000090
:105418000000000000000000010000000100000082
:105428000100000001000000010000000100000070
:105438000000000000000000000000000000000064
:105448000100000000000000000000000000000053
:105458000100000000000000000000000000000043
:105468000100000000000000000000000000000033
:105478000100000000000000000000000000000023
:105488000100000000000000000000000000000013
:105498000100000000000000010000000100000001
:1054A80001000000010000000100000001000000F0
:1054B80000000000000000000100000001000000E2
:1054C80001000000010000000100000001000000D0
:1054D80001000000000000000100000000000000C2
:1054E80000000000010000000000000000000000B3
:1054F80001000000000000000100000000000000A2
:105508000000000001000000000000000000000092
:105518000100000000000000010000000000000081
:105528000000000001000000000000000000000072
:105538000100000000000000000000000100000061
:105548000100000000000000010000000100000050
:105558000000000000000000000000000100000042
:10556800010000000100000001000000010000002F
:105578000000000000000000010000000000000022
:105588000000000000000000000000000000000013
:105598000100000000000000010000000000000001
:1055A80000000000000000000000000000000000F3
:1055B80001000000000000000100000000000000E1
:1055C80000000000000000000000000000000000D3
:1055D80001000000000000000000000001000000C1
:1055E80000000000000000000000000001000000B2
:1055F80000000000000000000100000001000000A1
:10560800010000000100000001000000010000008E
:105618000100000000000000010000000000000080
:105628000000000000000000000000000000000072
:105638000100000000000000010000000000000060
:105648000000000000000000000000000000000052
:105658000100000000000000000000000100000040
:105668000000000000000000000000000100000031
:105678000000000000000000000000000000000022
:10568800010000000100000001000000000000000F
:105698000000000000000000010000000100000000
:1056A80001000000010000000100000001000000EE
:1056B80001000000000000000100000000000000E0
:1056C80000000000010000000000000000000000D1
:1056D80001000000000000000100000000000000C0
:1056E80000000000010000000000000000000000B1
:1056F80001000000000000000100000000000000A0
:105708000000000001000000000000000000000090
:10571800010000000000000001000000000000007F
:105728000000000000000000000000000000000071
:10573800010000000000000001000000010000005E
:10574800010000000100000001000000010000004D
:105758000100000000000000000000000000000040
:105768000000000001000000000000000000000030
:105778000100000000000000000000000000000020
:105788000000000001000000000000000000000010
:105798000100000000000000000000000000000000
:1057A80000000000000000000000000000000000F1
:1057B80001000000000000000000000000000000E0
:1057C80000000000000000000000000000000000D1
:1057D80001000000000000000000000001000000BF
:1057E80001000000010000000100000001000000AD
:1057F80000000000000000000100000000000000A0
:105808000000000000000000000000000000000090
:10581800010000000000000001000000000000007E
:105828000000000000000000000000000000000070
:10583800010000000000000001000000000000005E
:10584800010000000000000000000000000000004F
:10585800010000000000000000000000010000003E
:10586800010000000000000000000000010000002E
:10587800000000000000000001000000010000001E
:10588800010000000100000001000000010000000C
:1058980001000000000000000000000000000000FF
:1058A80000000000010000000000000000000000EF
:1058B80000000000000000000000000000000000E0
:1058C80000000000010000000000000000000000CF
:1058D80000000000000000000000000000000000C0
:1058E80000000000010000000000000000000000AF
:1058F800000000000000000001000000010000009E
:10590800010000000100000001000000010000008B
:10591800010000000000000000000000000000007E
:10592800000000000000000000000000000000006F
:10593800000000000000000001000000000000005E
:10594800000000000000000000000000000000004F
:10595800010000000000000001000000010000003C
:10596800010000000100000001000000010000002B
:10597800010000000000000001000000000000001D
:10598800000000000000000000000000000000000F
:1059980001000000000000000000000000000000FE
:1059A80000000000000000000000000000000000EF
:1059B80000000000000000000000000001000000DE
:1059C80000000000000000000000000000000000CF
:1059D80000000000000000000100000000000000BE
:1059E80000000000000000000000000000000000AF
:1059F800000000000000000001000000000000009E
:105A0800000000000000000000000000000000008E
:105A1800010000000000000000000000010000007C
:105A2800010000000100000001000000010000006A
:105A3800010000000000000000000000000000005D
:105A4800000000000000000000000000000000004E
:105A5800010000000000000001000000010000003B
:105A6800010000000100000001000000010000002A
:105A7800010000000000000000000000000000001D
:105A8800000000000100000000000000000000000D
:105A980000000000000000000000000000000000FE
:105AA80001000000000000000100000000000000EC
:105AB80000000000000000000000000001000000DD
:105AC80000000000000000000000000001000000CD
:105AD80000000000000000000100000000000000BD
:105AE80000000000000000000000000000000000AE
:105AF800010000000000000001000000010000009B
:105B08000100000001000000010000000100000089
:105B1800010000000000000001000000000000007B
:105B2800000000000000000000000000000000006D
:105B3800000000000000000001000000000000005C
:105B4800000000000000000000000000000000004D
:105B5800000000000000000001000000000000003C
:105B6800000000000000000000000000000000002D
:105B7800000000000000000001000000000000001C
:105B8800000000000000000000000000000000000D
:105B980000000000000000000100000001000000FB
:105BA80001000000010000000100000001000000E9
:105BB80001000000000000000000000000000000DC
:105BC80000000000000000000000000001000000CC
:105BD80000000000000000000000000000000000BD
:105BE80000000000000000000100000000000000AC
:105BF800000000000000000000000000000000009D
:105C0800000000000000000000000000010000008B
:105C1800000000000000000001000000010000007A
:105C28000100000001000000010000000100000068
:105C38000100000000000000010000000100000059
:105C48000100000001000000010000000100000048
:105C5800010000000000000000000000000000003B
:105C6800000000000000000001000000000000002B
:105C7800000000000000000000000000000000001C
:105C8800000000000100000000000000000000000B
:105C980000000000000000000000000000000000FC
:105CA80001000000000000000000000000000000EB
:105CB80000000000000000000100000001000000DA
:105CC80001000000010000000100000001000000C8
:105CD80001000000000000000000000001000000BA
:105CE80001000000010000000100000001000000A8
:105CF800000000000000000001000000000000009B
:105D0800000000000000000000000000000000008B
:105D18000100000000000000010000000000000079
:105D2800000000000000000000000000000000006B
:105D38000100000000000000010000000000000059
:105D4800000000000000000000000000000000004B
:105D58000100000000000000000000000100000039
:105D68000100000001000000010000000100000027
:105D78000000000000000000010000000100000019
:105D88000100000001000000010000000100000007
:105D980001000000000000000000000000000000FA
:105DA80000000000010000000000000000000000EA
:105DB80001000000000000000000000000000000DA
:105DC80000000000010000000000000000000000CA
:105DD80001000000000000000000000000000000BA
:105DE80000000000010000000000000000000000AA
:105DF800010000000000000000000000000000009A
:105E08000000000000000000010000000100000088
:105E18000000000000000000000000000100000079
:105E28000100000001000000010000000100000066
:105E38000000000000000000010000000000000059
:105E4800000000000000000000000000000000004A
:105E58000100000000000000010000000000000038
:105E68000100000000000000000000000000000029
:105E78000100000000000000000000000100000018
:105E8800000000000000000000000000000000000A
:105E980001000000000000000100000000000000F8
:105EA80001000000010000000100000001000000E6
:105EB80000000000000000000100000001000000D8
:105EC80001000000010000000100000001000000C6
:105ED80001000000000000000000000000000000B9
:105EE80000000000010000000000000000000000A9
:105EF8000100000000000000000000000000000099
:105F08000100000001000000000000000000000087
:105F18000100000000000000000000000100000077
:105F28000000000001000000000000000000000068
:105F38000100000000000000010000000000000057
:105F48000000000000000000010000000100000047
:105F58000000000000000000010000000000000038
:105F68000000000000000000010000000100000027
:105F78000000000000000000010000000000000018
:105F88000000000001000000000000000000000008
:105F980001000000000000000100000000000000F7
:105FA80000000000010000000000000000000000E8
:105FB80001000000000000000100000000000000D7
:105FC80000000000010000000000000000000000C8
:105FD80001000000000000000000000001000000B7
:105FE80001000000000000000000000000000000A8
:105FF8000100000000000000000000000000000098
:106008000000000000000000000000000000000088
:106018000100000000000000000000000000000077
:106028000000000000000000000000000000000068
:106038000100000000000000010000000100000055
:106048000100000001000000010000000100000044
:106058000100000000000000000000000000000037
:106068000000000000000000000000000000000028
:106078000100000000000000000000000000000017
:106088000000000000000000000000000000000008
:1060980001000000000000000000000001000000F6
:1060A80001000000010000000100000001000000E4
:1060B80001000000000000000100000000000000D6
:1060C80000000000000000000000000000000000C8
:1060D80000000000000000000100000000000000B7
:1060E80000000000000000000000000000000000A8
:1060F8000000000000000000010000000000000097
:106108000000000000000000000000000000000087
:106118000000000000000000000000000100000076
:106128000100000001000000010000000100000063
:106138000100000000000000000000000000000056
:106148000100000001000000010000000100000043
:106158000100000000000000000000000100000035
:106168000000000000000000000000000000000027
:106178000000000000000000010000000000000016
:106188000000000000000000000000000000000007
:1061980000000000000000000000000001000000F6
:1061A80000000000000000000000000000000000E7
:1061B80000000000000000000000000000000000D7
:1061C80001000000010000000100000001000000C3
:1061D80001000000000000000100000001000000B4
:1061E80001000000010000000100000001000000A3
:1061F8000100000000000000000000000100000095
:106208000000000000000000000000000000000086
:106218000000000000000000000000000000000076
:106228000100000001000000000000000000000064
:106238000000000000000000000000000100000055
:106248000000000000000000000000000000000046
:106258000000000000000000010000000100000034
:106268000100000001000000010000000100000022
:106278000100000000000000010000000100000013
:106288000000000000000000000000000100000005
:1062980001000000000000000000000000000000F5
:1062A80001000000000000000100000000000000E4
:1062B80000000000000000000000000000000000D6
:1062C80000000000010000000000000000000000C5
:1062D80000000000000000000000000000000000B6
:1062E80001000000000000000100000000000000A4
:1062F8000000000000000000010000000100000094
:106308000000000000000000000000000100000084
:106318000100000000000000000000000000000074
:106328000000000000000000000000000100000064
:106338000100000000000000000000000000000054
:106348000000000000000000010000000000000044
:106358000000000000000000010000000100000033
:106368000100000001000000000000000000000023
:106378000000000000000000000000000000000015
:106388000000000000000000010000000000000004
:1063980000000000000000000000000000000000F5
:1063A80000000000000000000000000001000000E4
:1063B80001000000000000000100000001000000D2
:1063C80000000000000000000000000000000000C5
:1063D80001000000000000000100000000000000B3
:1063E80001000000000000000000000000000000A4
:1063F8000100000000000000010000000000000093
:106408000000000001000000000000000000000083
:106418000100000000000000010000000000000072
:106428000000000000000000010000000000000063
:106438000100000000000000010000000000000052
:106448000000000000000000000000000100000043
:106458000100000000000000000000000000000033
:106468000000000000000000000000000000000024
:106478000000000000000000000000000000000014
