:020000040800F2
:1000000000500020A12100081D2100081F21000828
:1000100021210008232100082521000800000000FC
:100020000000000000000000000000002721000880
:1000300029210008000000002B2100082D210008C4
:10004000E9210008E9210008E9210008E921000868
:10005000E9210008E9210008E9210008E921000858
:10006000E9210008E9210008E92100083D210008F4
:10007000E9210008E9210008E9210008E921000838
:10008000E9210008E921000849210008E9210008C8
:10009000E9210008E9210008E9210008E921000818
:1000A000E9210008E9210008E9210008E921000808
:1000B000E9210008E9210008E9210008E9210008F8
:1000C000E9210008E9210008E9210008E9210008E8
:1000D000E9210008E9210008E9210008E9210008D8
:1000E000E9210008E9210008E921000800000000DA
:1000F0000000000000000000000000000000000000
:0C01000000000000000000005FF808F1A3
:10010C0010B5054C237833B9044B13B10448AFF345
:10011C0000800123237010BD24000020000000008B
:10012C003422000808B5034B1BB103490348AFF355
:10013C00008008BD000000002800002034220008C8
:10014C00034613F8012B002AFBD1181A013870470B
:10015C0038B50E4B054618784FF47A73B3FBF0F3B1
:10016C000B4A1068B0FBF3F000F0A4FB044658B93E
:10017C000F2D09D8024629464FF0FF3000F05AFBEC
:10018C00044B20461D6038BD012038BD0000002006
:10019C002000002004000020074A08B51368032043
:1001AC0043F01003136000F033FB0020FFF7D0FF87
:1001BC0001F00CFF002008BD00200240034A044B54
:1001CC0011681B780B441360704700BF500000206F
:1001DC0000000020014B1868704700BF5000002041
:1001EC0038B50446FFF7F6FF0546631C1EBF044BEB
:1001FC001B78E418FFF7EEFF401B8442FAD838BD99
:10020C0000000020436A10B59A6A12F0500F1BD1FF
:10021C009A6A42F400729A621A68926802F4602236
:10022C00B2F5602F0CD1DA6852B99A6A22F4807256
:10023C009A629A6AD2045EBF9A6A42F001029A628A
:10024C00184601F0B7FD10BD1B6ABDE810401B6BD2
:10025C001847704708B5406AFFF7FBFF08BD7047A9
:10026C00036810B55A680446900627D51A6891079A
:10027C0024D5A26AD2065EBFA26A42F40072A262C0
:10028C009A6802F46022B2F5602F10D1E26872B95C
:10029C005A6822F020025A60A36A23F48073A36286
:1002AC00A36ADB045EBFA36A43F00103A36220468A
:1002BC0001F080FD6FF0120223681A6023685A68FF
:1002CC00100630D51A6851072DD5A26AD2065EBF2A
:1002DC00A26A42F40052A2629A6802F4E042B2F5B9
:1002EC00E04F0AD05A68500516D49A6802F460227E
:1002FC00B2F5602F10D1E26872B95A6822F0800210
:10030C005A60A36A23F48053A362A36AD9055EBF23
:10031C00A36A43F00103A362204600F077FA6FF062
:10032C000C0223681A6023685A6852060DD51B68A4
:10033C00DB070AD5A36A204643F48033A362FFF798
:10034C008EFF6FF0010223681A6010BD7047406A7F
:10035C0008B5836A43F040038362C36A43F0040325
:10036C00C362FFF7F3FF08BD002373B5019390F848
:10037C002430012B74D001234D6880F82430062DD5
:10038C0002684FEA85030C6825D82B441F25566B51
:10039C00053B9D4026EA050504FA03F32B43536302
:1003AC00092C4FEA44038D682FD907262344D168C2
:1003BC001E3B9E4021EA060105FA03F30B43D36072
:1003CC00A4F11003012B2BD90023002280F8242048
:1003DC00184602B070BD0C2D0BD82B441F25166B84
:1003EC00233B9D4026EA050504FA03F32B431363D4
:1003FC00D6E72B441F25D66A413B9D4026EA0505CE
:10040C0004FA03F32B43D362CAE70726116923448A
:10041C009E4021EA060105FA03F30B431361CFE773
:10042C00104B9A4216D193681B02CDD49368102CB2
:10043C0043F400039360C7D10B4B0C4A1B68B3FB0E
:10044C00F2F20A2353430193019B002BBCD0019B76
:10045C00013BF8E7836A43F0200383620123B4E78E
:10046C000223B5E7002401402000002040420F0089
:10047C00002373B50193036804469A68D20702D52A
:10048C00002002B070BD9A6842F001029A60124BD3
:10049C00124A1B68B3FBF2F30193019BC3B9FFF73C
:1004AC0099FE064623689D6815F00105E8D1FFF713
:1004BC0091FE801B0228F5D9A36A84F8245043F0DE
:1004CC001003A362E36A012043F00103E362D8E75F
:1004DC00019B013BE0E700BF2000002040420F00E1
:1004EC0090F8243010B5012B044658D0012380F825
:1004FC002430FFF7BDFF00284DD1A36A294A23F40D
:10050C00706323F0010343F48073A3622368934266
:10051C0004D125494A6812F4702F32D1A26A22F410
:10052C008012A2625A68520541BFA26A22F440525C
:10053C0042F48052A262A26A12F480521CBFE26A98
:10054C0022F00602E262002284F824206FF00202FC
:10055C001A605A6842F020025A609A6802F46022CB
:10056C00B2F5602F13D10F4A934205D1A2F58062E8
:10057C00526812F4702F0AD19A6842F4A0029A6061
:10058C0010BDA26A42F48012A2624A68CBE79A6854
:10059C0042F48012F3E7002384F8243010BD0220CB
:1005AC0010BD00BF00280140002401402DE9D841B6
:1005BC009046404B026804469A420F4602D03E4990
:1005CC008A4203D15B6813F4702F6ED194F82430F7
:1005DC00012B6CD00123204684F82430FFF748FF10
:1005EC00064600285DD1A06A216820F47060324B69
:1005FC0020F0010040F480709942A06204D12D4A91
:10060C00536813F4702F3ED1A36A23F48013A362B2
:10061C004B685A0505D5A36A23F4405343F4805321
:10062C00A362A36A206A13F4805318BFE36A3A46A4
:10063C0018BF23F00603E362002384F824301F4B19
:10064C004C3183621E4BC3621E4B03636FF002037B
:10065C0041F84C3C51F8443C43F4807341F8443C21
:10066C00434600F083F923689A6802F46022B2F5DD
:10067C00602F9A680CBF42F4A00242F480129A6078
:10068C003046BDE8D881A36A43F48013A362536853
:10069C005B0541BFA06A20F4405040F48050A0623A
:1006AC00BFE7002384F82430EAE70126E8E70226B6
:1006BC00E6E700BF002401400028014011020008B9
:1006CC00610200085B03000838B5036804469A68A9
:1006DC00D20701D4002038BD9A6822F001029A603A
:1006EC00FFF778FD054623689B68DB07F2D5FFF71B
:1006FC0071FD401B0228F6D9A36A012043F01003B8
:10070C00A362E36A43F00103E36238BD70B50446AB
:10071C00002871D0836A23B9C36280F8243001F0B9
:10072C00A5FC2046FFF7D0FFA36A13F0100FA36AB5
:10073C0064D1002862D1E16923F48853626823F004
:10074C00020343F002030A43A168A362E368B1F514
:10075C00807F42EA430238D0012914BF06464FF489
:10076C0080766569012D07D1002B30D1A369013B3F
:10077C0046EA433545F400662368B1F5807F5D6831
:10078C0025F4694545EA06055D609E681D4D05EA40
:10079C00060545EA02059D6001D0012920D1216999
:1007AC0001390905DD6A25F470052943D962996878
:1007BC00154B0B409A4215D10023E362A36A23F038
:1007CC00030343F00103A36270BD0E46C9E7A36A9D
:1007DC0043F02003A362E36A43F00103E362CBE737
:1007EC000021DFE7A36A23F0120343F01003A36296
:1007FC00E36A43F00103E362012070BD43F0100390
:10080C00A362F9E7FDF7E1FFFE0E1FFF7047000042
:10081C00074A0002D36800F4E06023F4E0631B0491
:10082C001B0C43F0BF6343F400330343D3607047A6
:10083C0000ED00E0174B30B5DC68C4F30224C4F1C2
:10084C000703251D042B28BF0423062D4FF001059B
:10085C0098BF002405FA03F303F1FF3388BF033C70
:10086C001940A14005FA04F4013C2240002842EA58
:10087C0001024FEA0212AFBF00F16040064B00F0DC
:10088C000F00D2B2A5BFD2B200F561401A5480F865
:10089C00002330BD00ED00E014ED00E0012342091F
:1008AC0000F01F0003FA00F0014B43F822007047E0
:1008BC0000E100E00138B0F1807F0AD2F021064B54
:1008CC00064A586082F823100020072298601A60AC
:1008DC0070470120704700BF10E000E000ED00E021
:1008EC00044B04281A680CBF42F0040222F00402E4
:1008FC001A60704710E000E0704708B5FFF7FCFF86
:10090C0008BD000010B550B314220168154B846863
:10091C000B44B3FBF2F39B000364134B0A68C363F1
:10092C00436822F47F522343C46822F030022343ED
:10093C00046923434469234384692343C4692343DF
:10094C0013430B600122002380F821208362C362D1
:10095C0003634363836380F82030184610BD012085
:10096C0010BD00BFF8FFFDBF00000240F0B590F8CD
:10097C002040012C35D0012490F8215080F82040E3
:10098C00A5424FF000064FF0020428D180F8214018
:10099C00046886632668076C26F001062660C66B21
:1009AC00BD407560636043680568102BC36A0BBF5C
:1009BC00A260A160E160E2604BB1236843F00E03DA
:1009CC0023602B68002043F001032B60F0BD2368EB
:1009DC0023F004032360236843F00A03F0E780F854
:1009EC0020600220F0BD000070B40425C66B026CC0
:1009FC003468036895402542196832D04D0730D5CC
:100A0C001A6896065EBF1A6822F004021A603E4A03
:100A1C00934219D01432934218D01432934217D007
:100A2C001432934217D01432934217D0143293429B
:100A3C000CBF4FF480034FF08063344A5360C36A99
:100A4C00002B5ED070BC18470423F6E74023F4E774
:100A5C004FF48063F1E74FF48043EEE74FF48023CB
:100A6C00EBE702259540254235D08D0733D51A6822
:100A7C00940606D41A6822F00A021A60012280F841
:100A8C002120214A934219D01432934218D01432A7
:100A9C00934217D01432934217D01432934217D08A
:100AAC00143293420CBF4FF400134FF00073174AEB
:100ABC005360002380F82030836AC1E70223F6E7F5
:100ACC002023F4E74FF40073F1E74FF40053EEE703
:100ADC004FF40033EBE708259540254211D0090768
:100AEC000FD5196821F00E011960012303FA02F2E7
:100AFC007260836380F82130002380F82030036B10
:100B0C009EE770BC704700BF080002400000024026
:100B1C002DE9F74F00221646654BDFF8A4E1DFF80C
:100B2C00A4C14FF001080C6808FA06F808EA04049E
:100B3C00A0457FD14D68122D00F0AF8000F2888067
:100B4C00022D00F0A7807CD8002D00F08E80012DA6
:100B5C0000F09E804FF00F09FF2C93BF824606F1E8
:100B6C008045083DD0F800B092BFB500D0F804B075
:100B7C00AD0009FA05F82BEA080802FA05F588BF5A
:100B8C0000F1040A48EA0505CAF80050D1F804A09F
:100B9C001AF0805F4ED0474D464FAD6926F00308E2
:100BAC0045F00105BD61BD6908F1804805F00105FE
:100BBC00019508F5803806F0030B019D4FEA8B0B6D
:100BCC00D8F8085009FA0BF925EA09093A4DA84258
:100BDC0068D005F58065A84266D005F58065A84209
:100BEC0064D005F58065A8420CBF0325042505FAE1
:100BFC000BF545EA0905C8F808501D681AF4803F42
:100C0C0014BF2543A5431D605D681AF4003F14BF53
:100C1C002543A5435D609D681AF4801F14BF2543CE
:100C2C00A5439D60DD681AF4001F14BF2C4325EA10
:100C3C000404DC600136102E7FF473AF03B0BDE802
:100C4C00F08F032D22D0112D84D1CA68043281E794
:100C5C001A4FBD4209D012D8DFF86C904D4504D024
:100C6C0009F580394D457FF475AF8A68C2B1012A08
:100C7C000CBFC0F81080C0F8148008226AE77545D4
:100C8C00F3D06545F1D0DFF84490EBE7002261E743
:100C9C00CA685FE7CA6808325CE7CA680C3259E771
:100CAC00042257E70025A2E70125A0E702259EE7CD
:100CBC000004014000100240000801400000211017
:100CCC000000311000003210000011100000221042
:100CDC000AB1016170470904FBE7000003682DE9C4
:100CEC00F341DB07054610D42B689F075ED42B68B5
:100CFC00190700F195802B685A0700F1BF80EA694B
:100D0C00002A40F02D81002014E0904C636803F021
:100D1C000C03042B07D0636803F00C03082B0CD1D5
:100D2C006368DE0309D523689C03DDD56B68002B53
:100D3C00DAD1012002B0BDE8F0816B68B3F5803FD9
:100D4C0010D1236843F480332360FFF743FA06463F
:100D5C0023689803C8D4FFF73DFA801B6428F7D9A1
:100D6C000320E7E79BB9236823F4803323602368CF
:100D7C0023F480232360FFF72DFA0646236899039A
:100D8C00B2D5FFF727FA801B6428F7D9E8E7B3F54B
:100D9C00A02F236803D143F480232360D1E723F4ED
:100DAC0080332360236823F48023CDE7674C63688A
:100DBC0013F00C0F07D0636803F00C03082B10D151
:100DCC006368DA030DD423689B0702D52B69012BCA
:100DDC00AFD123686A6923F0F80343EAC2032360A6
:100DEC0085E72A695A4B6AB101221A60FFF7F2F9BA
:100DFC00064623689F07ECD4FFF7ECF9801B02280A
:100E0C00F7D9ADE71A60FFF7E5F9064623689807AE
:100E1C007FF56DAFFFF7DEF9801B0228F6D99FE74F
:100E2C00AA694A4C4B4BDAB101221A60FFF7D2F98E
:100E3C000646636A9B070DD54FF4FA52464B1B6866
:100E4C00B3FBF2F3019300BF019B5A1E0192002BDE
:100E5C00F9D150E7FFF7BEF9801B0228E9D97FE7EB
:100E6C001A60FFF7B7F90646636A9F077FF543AF31
:100E7C00FFF7B0F9801B0228F6D971E7334CE36910
:100E8C00D80024D40127E36943F08053E361E3697C
:100E9C0003F080530093009B304E3368D90518D56E
:100EAC00EB68012B26D1236A43F001032362FFF781
:100EBC0091F941F288368046236A9B073FD5002F73
:100ECC003FF41DAFE36923F08053E36117E700277C
:100EDC00E2E7336843F480733360FFF77BF98046B5
:100EEC003368DA05DCD4FFF775F9A0EB0800642849
:100EFC00F6D935E7ABB9236A41F2883823F0010300
:100F0C002362236A23F004032362FFF763F9064686
:100F1C00236A9807D3D5FFF75DF9801B4045F7D9B5
:100F2C001EE7052B236A03D143F004032362BAE7BF
:100F3C0023F001032362236A23F00403B6E7FFF7CF
:100F4C0049F9A0EB0800B042B6D909E700100240FD
:100F5C000000424280044242200000200070004009
:100F6C00224C636803F00C03082B3FF4E2AE002321
:100F7C001F4E022A33602BD1FFF72CF9074623684A
:100F8C0099011FD42B6AB3F5803F05D16268A9681B
:100F9C0022F400320A436260696A62680B4322F4ED
:100FAC0074121343636001233360FFF713F9054692
:100FBC0023689A013FF5A7AEFFF70CF9401B0228F6
:100FCC00F6D9CDE6FFF706F9C01B0228D7D9C7E63C
:100FDC00FFF700F9054623689B017FF594AEFFF7F8
:100FEC00F9F8401B0228F6D9BAE600BF00100240FF
:100FFC006000424230B5194B87B002AC03F11005CA
:10100C00224618685968083303C2AB421446F7D11C
:10101C0001238DF80430022311498DF805304B68FB
:10102C0003F00C02082A17D1C3F3834206A802442A
:10103C00DB0312F8102C0CD54B680A48C3F3404361
:10104C00504306AA134413F8143CB0FBF3F007B05A
:10105C0030BD05485043FAE70248F8E74C22000837
:10106C000010024000127A0000093D004D4A2DE9A3
:10107C00F0411368054603F007038B420E4628D354
:10108C002A68910732D4D20738D4464A136803F041
:10109C0007039E4273D32A68434C12F0040F79D194
:1010AC00130706D563682A6923F4605343EAC20325
:1010BC006360FFF79FFF63683C4AC3F30313D35C81
:1010CC00D8403B4B18600020FFF742F80020BDE8E9
:1010DC00F081136823F007030B431360136803F0CC
:1010EC0007039942CCD00120BDE8F0812E49A868B5
:1010FC004B6823F0F00303434B60C4E76A682A4C47
:10110C00012A23681CD113F4003FECD0636841F230
:10111C00883823F0030313436360FFF75BF86B68B5
:10112C000746012B14D1636803F00C03042BACD0DD
:10113C00FFF750F8C01B4045F5D90320BDE8F081FE
:10114C00022A02D113F0007FDFE713F0020FDCE775
:10115C00022B0FD1636803F00C03082B95D0FFF71B
:10116C0039F8C01B4045F5D9E7E7FFF733F8C01B4A
:10117C004045E2D8636813F00C0FF6D185E713688D
:10118C0023F0070333431360136803F007039E42F5
:10119C00A9D180E76368E96823F4E0630B436360DB
:1011AC007EE700BF0020024000100240C3C60008CA
:1011BC0020000020014B1868704700BF2000002061
:1011CC0003682DE9F341D907054620D5354CE36971
:1011DC00DA0032D40127E36943F08053E361E36919
:1011EC0003F080530193019B2F4E3368DB0526D50A
:1011FC00236A13F4407336D1236A6A6823F440736C
:10120C00134323621FB1E36923F08053E361286821
:10121C00830706D5234AA968536823F440430B433C
:10122C00536010F010001BD01E4AE9685368002070
:10123C0023F480030B43536012E00027D4E7336898
:10124C0043F480733360FEF7C5FF80463368D805DE
:10125C00CED4FEF7BFFFA0EB08006428F6D903201C
:10126C0002B0BDE8F0816A6802F440729342C3D0C8
:10127C0001200E4A236A1060002023F44071106094
:10128C002162D907B8D5FEF7A5FF41F2883806468A
:10129C00236A9A07B0D4FEF79DFF801B4045F7D90F
:1012AC00DDE700BF001002400070004040044242E5
:1012BC004FF4803310B594B001220B93002102241B
:1012CC0012934FF4E0130AA80A920C910E92119407
:1012DC001393FFF703FD00B1FEE70F2305934FF4C3
:1012EC00806307900990214605A806940893FFF7A0
:1012FC00BDFE00B1FEE74FF4004301A80194039337
:10130C00FFF75EFF044600B1FEE7FFF753FF4FF413
:10131C007A73B0FBF3F0FFF7CDFA0420FFF7E0FA95
:10132C00224621464FF0FF30FFF784FA14B010BD6F
:10133C00012202481146FFF7CBBC00BF0008014058
:10134C00002202210148FFF7C3BC00BF0008014086
:10135C00012202210148FFF7BBBC00BF000801407D
:10136C00002204210148FFF7B3BC00BF0008014074
:10137C00012204210148FFF7ABBC00BF000801406B
:10138C00002208210148FFF7A3BC00BF0008014060
:10139C00012208210148FFF79BBC00BF0008014057
:1013AC00002210210148FFF793BC00BF0008014048
:1013BC00012210210148FFF78BBC00BF000801403F
:1013CC0008B5FFF7BDFFBDE80840FFF7C1BF00003F
:1013DC004FF07F63074A08491361030203F440731B
:1013EC0000F0FC000B80054903439B00088013614F
:1013FC00704700BF000C0140F8000020680000207E
:10140C0008B5FFF7E5FFFFF7DBFFBDE80840FFF786
:10141C009FBF10B50446000AFFF7F2FFE0B2BDE82B
:10142C001040FFF7EDBF10B50446FFF799FF2046BB
:10143C00FFF7EFFFBDE81040FFF79ABF38B5054640
:10144C000C46FFF79DFF2846FFF7EDFF2046FFF700
:10145C00E0FFBDE83840FFF79BBF00000B4B19883D
:10146C000B4BC1F3003181EA00021A80094A814218
:10147C0013884FF0010023F400539BB218BF43F4C0
:10148C00005313801188FFF7D9BF00BF560000200E
:10149C00600000205400002070B506460D46002464
:1014AC00002D00DC70BD06EB440336F8140059889F
:1014BC00043D0234FFF7C2FF2DB224B2F0E70B4615
:1014CC0049428A420BDD9A42A8BF0022104481B2E5
:1014DC00002ABCBFC91889B24120FFF7AFBF002258
:1014EC00F4E70000F8B50E46174604461D461B4BA4
:1014FC0081B21888FFF7A2FF194BB1B21888FFF719
:10150C009DFFBC4201D1AE4226D0164B1B889A06D9
:10151C000CD5154B1B78DB074BBF46EA052544EA77
:10152C0007242EB224B24CBF354627460F48A1B231
:10153C000088FFF783FF0E48B1B20088FFF77EFFEB
:10154C000C4AB9B21088FFF779FF0B4BA9B2188877
:10155C00BDE8F840FFF772BFF8BD00BF10000020D7
:10156C001200002056000020E00000201600002091
:10157C00180000200C0000200E00002070B5174B46
:10158C000D461B781646DB0718D5002825DB0029ED
:10159C0023DB134B1B8898421FDA124B1B88994292
:1015AC001BDA03460A4601462846FFF79BFF0E4B03
:1015BC003146BDE870401888FFF740BF00280CDBAF
:1015CC0000290ADB074B1B88984206DA044B1B8860
:1015DC00994202DA0B460246E7E770BDE0000020B4
:1015EC00080000200A000020140000202DE9F74F0D
:1015FC0081460F46924600244FF03C0B0F4B0025C2
:10160C003E194FEA840836B2A3EB08020BFB052205
:10161C00926B012A08D109EB05005246314600B203
:10162C000193FFF7ABFF019B01350F2DECD101347A
:10163C000F2CE4D103B0BDE8F08F00BF24230008C9
:10164C005D4B70B55D4C1D8800F0030310F001007C
:10165C00237000F09380F021594A022B11804FF433
:10166C00A071584A118005D0032B6FD0012B6FD17C
:10167C00282300E098234E21534A11804F21534ACE
:10168C0011802221524A1180442252490A80524927
:10169C000A804521514A11804621514A118008B1D6
:1016AC0083F0D00313F0800F14BF4FF4A04200223C
:1016BC0013F0400F14BF4FF40070002040F23F11A4
:1016CC0013F0200F14BF0826002642EA000341EA5B
:1016DC004531194341F40061424B89B20120198014
:1016EC00FFF7ACFE46F4C04141F070011120FFF74A
:1016FC00A5FE2378DA0715D53B4B1B885B0511D467
:10170C00314A324B1188188819801080334B314A7A
:10171C0018881188108019802F4A314B118818882D
:10172C00198010800021264C264A23881288013B00
:10173C00013A084612B21BB2FFF7D4FE0022B4F9EC
:10174C0000101046BDE87040FFF7B9BEF82392E7D1
:10175C004E221D4B1A804F221C4B1A8022221C4BEE
:10176C001A8044231B4A13801B4A138045221B4BAF
:10177C001A8046221A4B1A80482391E7022B3FF419
:10178C0079AF032BE2D0012B3FF472AF4E220E4BFC
:10179C001A804F220D4B1A8022220D4B1A804423A3
:1017AC000C4A13800C4A138045220C4B1A8046229B
:1017BC000B4B1A80482375E760000020E0000020E6
:1017CC00080000200A000020100000201200002059
:1017DC0014000020160000200C000020180000202F
:1017EC000E00002054000020560000202DE9F04788
:1017FC00002ABDF8209004DA95B26A42284412B24D
:10180C0000B2354D02442E8812B2B242C8BF32B279
:10181C0020EAE07092B2161A002B36B204DA9FB2AC
:10182C007B4239441BB209B22C4F0B44B7F800E091
:10183C001BB27345C8BF0FFA8EF321EAE1719BB25C
:10184C00A3EB0108013A013B1BB212B2FFF74AFEAF
:10185C00FFF796FD224B0FFA88F81888FFF7E3FD87
:10186C004645BEBF3346464698464FEA192A5FFAAC
:10187C0089F91FFA88F80FFA88F3002B1BDCFFF7A5
:10188C0087FD184B1B88DA0709D5174B1A8841F2CC
:10189C0026539A421DD1154B1B78DB0719D5002115
:1018AC003B882A88013B013A1BB212B20846BDE8BC
:1018BC00F047FFF717BE34465046013CFFF7A0FD3A
:1018CC0024B24846FFF79CFD002CF5D108F1FF38F7
:1018DC00CFE7BDE8F08700BF0A0000200800002019
:1018EC001400002056000020E2000020E000002040
:1018FC0007B50021064B074AB3F90030B2F90020B6
:10190C0000900846FFF772FF03B05DF804FB00BFC0
:10191C00080000200A000020A0212DE9F04F082724
:10192C00002489B006939DF84830BDF84CB04B4369
:10193C009DF8548004931FFA82F94E460025BDF899
:10194C001820A3B21FFA88FA03FB0A2109B20391EB
:10195C0004991344A1EB84011BB205910793059BD9
:10196C00144A03EB45131344DB69012B09D1B8F17D
:10197C00010F14D109EB05005A46079900B2FFF785
:10198C00FDFD01355644052DB6B2E8D1013F0134B9
:10199C0017F0FF0764B2D0D109B0BDE8F08F0FFA91
:1019AC0088F3CDF800B01A46039930B2FFF71EFF4A
:1019BC00E7E700BFA8260008F0B50A2885B00BD1D0
:1019CC000022204B1A80204A204B1978138803EBF5
:1019DC00C103138005B0F0BD0D28FBD01C4B194C76
:1019EC001A781A4D184B82B10621B4F900202E78C2
:1019FC0001FB0621174AB2F90020914205DD0022B5
:101A0C0022801A8802EBC6021A802F781249134ED4
:101A1C00B3F90030368809880397114FB4F90020C8
:101A2C003F8802970F4F3F888DE881003046FFF7C3
:101A3C0073FF2B78228803EB430302EB43032380D1
:101A4C00C8E700BFE800002058000020EB00002091
:101A5C00EA000020E4000020080000200A0000201A
:101A6C00FA000020FC00002038B50446FEF768FBA5
:101A7C002518AC4200D138BD14F8010BFFF79CFFC0
:101A8C00F7E708B5FFF784FCFFF752FCFFF760FCA3
:101A9C00FFF78EFCFFF784FCBDE80840FFF788BC1D
:101AAC001FB502220323694603488DE80C00FFF79B
:101ABC002FF805B05DF804FB0008014008B5FFF7EE
:101ACC00EFFF012207484FF48071FFF701F9FFF790
:101ADC0047FC0122044B05481A60BDE80840FEF79C
:101AEC00FFBC00BF000C01401C0000206C0000205B
:101AFC001FB500220323022001218DE80F00694647
:101B0C000248FFF705F805B05DF804FB000801403A
:101B1C001FB504220323694603488DE80C00FEF729
:101B2C00F7FF05B05DF804FB0008014010B50D4C43
:101B3C00002220464FF48071FFF7CAF8FFF710FC23
:101B4C00FFF7E6FFFFF704FC204600224FF400717C
:101B5C00FFF7BEF8BDE810400122034B03481A60A2
:101B6C00FEF7BEBC000C01401C0000206C000020E5
:101B7C002DE9F0410024174EFFF7A0FF254637460C
:101B8C00DFF8608033680BBBD8F800301D44FFF7DA
:101B9C0095FF0134132CF5DD1423002495FBF3F58C
:101BAC000D4B0E4E1D60FFF7C1FF25463B687BB900
:101BBC0033681D44FFF7BAFF0134132CF6DD1423F0
:101BCC0095FBF3F5064B1D60BDE8F081013CE0E7A9
:101BDC00013CF1E71C0000204400002064000020C0
:101BEC00480000205C00002010B50E4C002220465E
:101BFC004FF48071FFF76CF8204601224FF400710E
:101C0C00FFF766F8FFF7ACFBFFF782FFFFF798FBD7
:101C1C00FFF746FFBDE810400122034B03481A6052
:101C2C00FEF75EBC000C01401C0000206C00002084
:101C3C002DE9F0470025FFF7D7FFA946134E144FA7
:101C4C00DFF85480D6F800A0BAF1000F19D13C6827
:101C5C00D8F8003004F58054E41A0E4BC82C1C60E4
:101C6C00D4BF00240124AC4208BF09F1010A254667
:101C7C00FFF7BAFFD146B9F1090FE3DD2846BDE8FD
:101C8C00F0870120FEF7ACFAF5E700BF1C0000203E
:101C9C00640000204C0000205C0000202DE9F04F77
:101CAC004FF01F084FF4FC6902225A2778262F4B5D
:101CBC002F4CA3F800802F4B2F4DA3F800902F4BE7
:101CCC0085B02F481A7027802E80FFF7CDFE142187
:101CDC0042464B460846FFF789FC4FF00008FFF7D9
:101CEC00A7FF81460028FAD04FF4FC63DC22009356
:101CFC00782110235A20FFF779FD224827802E8067
:101D0C004FF0000AFFF7B0FE42F20F7B41F2873032
:101D1C001D4A03900292FFF72BFF029A0398116859
:101D2C00C829CCBF0AF1010A08F1010882451ADC66
:101D3C00D845EEDD4FF000094FF4FC635A200093B8
:101D4C00C82210237821FFF751FD104827802E80E0
:101D5C00FFF78AFEB9F1000FC1D001220C4B1A70AB
:101D6C0005B0BDE8F08FD845E6DCF6E7FC000020B6
:101D7C00E8000020FA00002058000020EB000020B2
:101D8C0000230008132300084C0000201B2300082C
:101D9C00400000201FB500220323042001218DE800
:101DAC000F0069460248FEF7B3FE05B05DF804FB70
:101DBC000008014008B50268094B9A420FD1094B43
:101DCC00094A196811605A68084B1A600022084BBE
:101DDC001A60FFF7DFFFBDE80840FFF789BE08BDBA
:101DEC0000240140F00000205C0000206400002072
:101DFC001C00002038B50024FFF77AFEFFF7CAFF5D
:101E0C00FFF73FFE0D4B0E4D1C804FF48153A42168
:101E1C000C482B80FFF740FB2B880B4AC3F3003395
:101E2C0020461380FFF71AFB0320FFF709FCBDE8DF
:101E3C0038404FF4FC60FFF75BBD00BFE6000020AC
:101E4C00560000205C2200086000002080B5564C33
:101E5C008AB0FEF7A1F9FFF72BFAA369002243F031
:101E6C001003A361A3694FF4C04103F01003029364
:101E7C00029BA3694D4843F02003A361A36900258D
:101E8C0003F020030393039BA369012743F004038E
:101E9C00A361A369022603F004030493049BA369C2
:101EAC004FF0030843F00803A361A36903F0080390
:101EBC000593059BFEF70CFF002219213C48FEF709
:101ECC0007FF00224FF47F613A48FEF701FF4FF401
:101EDC00C04306A935480693079708950996FEF75F
:101EEC0017FE192306A93248069307970895CDF8D3
:101EFC002480FEF70DFE062306A92D480693CDF887
:101F0C001C80FEF705FE4FF47F6306A92948069353
:101F1C0007970895CDF82480FEF7FAFD63692A46E9
:101F2C003B436361636929463B4001930B20019B52
:101F3C00FEF780FC0B20FEF7B1FC1F4C1F4B20461C
:101F4C0023604FF48073A3604FF46023E5606561F8
:101F5C00E36165602661FEF7D9FB00B1FEE70890EE
:101F6C0006A9204606970797FEF7FEF900B1FEE793
:101F7C0006A9204606960796FEF7F6F900B1FEE78D
:101F8C0041F28920FFF736FF32460D492046FEF715
:101F9C000DFB2046FEF7A4FA0A4C2378002BFDD14A
:101FAC00FFF77CFEF9E700BF001002400010014073
:101FBC0000080140000C01406C000020002401408E
:101FCC00F000002040000020FEE70000254B07B584
:101FDC009A69032042F001029A619A6902F00102A7
:101FEC000092009ADA6942F08052DA61DB6903F000
:101FFC0080530193019BFEF70BFC00226FF00B004A
:10200C001146FEF717FC00226FF00A001146FEF78E
:10201C0011FC00226FF009001146FEF70BFC0022A8
:10202C006FF004001146FEF705FC00226FF0030070
:10203C001146FEF7FFFB00226FF001001146FEF780
:10204C00F9FB00224FF0FF301146FEF7F3FB064A76
:10205C00536823F0E06343F00073536003B05DF802
:10206C0004FB00BF001002400000014030B50268C4
:10207C00214B87B09A4205463CD103F56C439A69D3
:10208C00032442F400729A619B6902A903F4007361
:10209C000193019B0623194802930394FEF738FD24
:1020AC000123174802A902930394FEF731FD802205
:1020BC00144C154BE2604FF4007222614FF4006235
:1020CC00236062610023202220466360A360A2612A
:1020DC00E361FEF717FC18B17B210C48FFF774FF86
:1020EC0000222C62122011466562FEF7A3FB12201F
:1020FC00FEF7D4FB07B030BD0024014000080140BE
:10210C00000C01409C00002008000240A8C60008FA
:10211C007047FEE7FEE7FEE7FEE770477047704743
:10212C0008B5FEF74BF8BDE80840FEF7E6BB00002B
:10213C000148FEF759BC00BF9C0000200148FEF787
:10214C008FB800BF6C0000200F4B1A6842F00102E0
:10215C001A6059680D4A0A405A601A6822F0847253
:10216C0022F480321A601A6822F480221A605A68AB
:10217C0022F4FE025A604FF41F029A604FF0006284
:10218C00034B9A60704700BF001002400000FFF83C
:10219C0000ED00E0002103E00B4B5B584350043191
:1021AC000A480B4B42189A42F6D30A4A02E0002323
:1021BC0042F8043B084B9A42F9D3FFF7C5FF00F0F5
:1021CC000FF8FFF743FE7047DCC600080000002044
:1021DC00240000202400002000010020FEE7000065
:1021EC0070B500250C4E0D4CA41BA410A54209D1B2
:1021FC0000F01AF800250A4E0A4CA41BA410A542A4
:10220C0005D170BD56F8253098470135EEE756F8E4
:10221C00253098470135F2E7D4C60008D4C600082B
:10222C00D4C60008D8C60008F8B500BFF8BC08BC76
:10223C009E467047F8B500BFF8BC08BC9E46704778
:10224C0002030405060708090A0B0C0D0E0F1010EB
:10225C00000001000300A4A80C0000000D000C08F5
:10226C000E00002B1E00B70001003F2B02000004E3
:10227C001000000011007060050000000600000056
:10228C0016001CEF17000300070033020B000000C0
:10229C000F00000041000000420000004800000058
:1022AC0049003F014A0000004B000000440095EF3C
:1022BC004500000046003F013000070731000402D2
:1022CC003200040233000205340007053500040215
:1022DC0036000402370002053A0002033B000203F9
:1022EC002300000024000000250000804F000000A7
:1022FC004E0000005072657373696F6E65206E61DD
:10230C00206372757A2100536567757265210046EA
:10231C0041494C21000000000000000000000000BA
:10232C0000000000000000000000000000000000A1
:10233C00010000000100000000000000000000008F
:10234C000000000000000000000000000000000081
:10235C000000000000000000000000000000000071
:10236C000000000000000000000000000100000060
:10237C000100000000000000000000000000000050
:10238C000000000000000000000000000000000041
:10239C000000000000000000000000000000000031
:1023AC00000000000000000001000000010000001F
:1023BC000000000000000000000000000000000011
:1023CC000000000000000000000000000000000001
:1023DC0000000000000000000000000000000000F1
:1023EC0000000000010000000100000000000000DF
:1023FC0000000000000000000000000000000000D1
:10240C0000000000000000000000000000000000C0
:10241C0000000000000000000000000000000000B0
:10242C0000000000000000000000000000000000A0
:10243C000000000000000000000000000000000090
:10244C000000000000000000000000000000000080
:10245C000000000000000000000000000000000070
:10246C000000000000000000000000000000000060
:10247C000000000000000000000000000000000050
:10248C00010000000100000001000000010000003C
:10249C00000000000000000001000000010000002E
:1024AC00000000000000000001000000010000001E
:1024BC00010000000100000000000000010000000D
:1024CC0001000000010000000100000000000000FD
:1024DC0000000000010000000100000000000000EE
:1024EC0000000000010000000100000001000000DD
:1024FC0001000000000000000000000000000000CF
:10250C0000000000000000000000000000000000BF
:10251C0000000000000000000000000000000000AF
:10252C00000000000000000000000000000000009F
:10253C00000000000000000000000000000000008F
:10254C00000000000000000000000000000000007F
:10255C00000000000000000000000000000000006F
:10256C00000000000000000000000000000000005F
:10257C00000000000000000000000000000000004F
:10258C00000000000000000001000000010000003D
:10259C00000000000000000000000000000000002F
:1025AC00000000000000000000000000000000001F
:1025BC00000000000000000000000000000000000F
:1025CC0000000000010000000100000000000000FD
:1025DC0000000000000000000000000000000000EF
:1025EC0000000000000000000000000000000000DF
:1025FC0000000000000000000000000000000000CF
:10260C0001000000010000000000000000000000BC
:10261C0000000000000000000000000000000000AE
:10262C00000000000000000000000000000000009E
:10263C00000000000000000000000000010000008D
:10264C00010000000000000000000000000000007D
:10265C00000000000000000000000000000000006E
:10266C00000000000000000000000000000000005E
:10267C00000000000000000000000000000000004E
:10268C00000000000000000000000000000000003E
:1030BC000100000001000000010000000000000001
:1030CC0000000000000000000000000000000000F4
:1030DC0000000000000000000000000000000000E4
:1030EC0000000000000000000000000000000000D4
:1030FC0000000000000000000000000000000000C4
:10310C0000000000000000000000000000000000B3
:10311C0000000000000000000000000000000000A3
:10312C000000000000000000000000000000000093
:10313C000000000000000000000000000000000083
:10314C00010000000100000001000000010000006F
:10315C000100000001000000010000000000000060
:10316C00010000000100000001000000010000004F
:10317C000100000001000000010000000000000040
:10318C000000000000000000000000000000000033
:10319C000000000000000000000000000000000023
:1031AC000000000000000000000000000000000013
:1031BC000000000000000000000000000000000003
:1031CC0000000000000000000000000000000000F3
:1031DC0000000000000000000000000000000000E3
:1031EC0001000000010000000100000001000000CF
:1031FC0001000000010000000100000000000000C0
:10320C0001000000010000000100000001000000AE
:10321C00010000000100000001000000000000009F
:10322C00010000000100000001000000010000008E
:10323C00010000000100000001000000000000007F
:10324C000000000000000000000000000000000072
:10325C000000000000000000000000000000000062
:10326C000000000000000000000000000000000052
:10327C000000000000000000000000000000000042
:10328C00010000000100000001000000010000002E
:10329C00010000000100000001000000000000001F
:1032AC00010000000100000001000000010000000E
:1032BC0001000000010000000100000000000000FF
:1032CC0001000000010000000100000001000000EE
:1032DC0001000000010000000100000000000000DF
:1032EC0001000000010000000100000001000000CE
:1032FC0001000000010000000100000000000000BF
:10330C0000000000000000000000000000000000B1
:10331C0000000000000000000000000000000000A1
:10332C00010000000100000001000000010000008D
:10333C00010000000100000001000000000000007E
:10334C00010000000100000001000000010000006D
:10335C00010000000100000001000000000000005E
:10336C00010000000100000001000000010000004D
:10337C00010000000100000001000000000000003E
:10338C00010000000100000001000000010000002D
:10339C00010000000100000001000000000000001E
:1033AC00010000000100000001000000010000000D
:1033BC0001000000010000000100000000000000FE
:1033CC0000000000000000000000000000000000F1
:1033DC0000000000000000000000000000000000E1
:1033EC0001000000010000000100000001000000CD
:1033FC0001000000010000000100000000000000BE
:10340C0001000000010000000100000001000000AC
:10341C00010000000100000001000000000000009D
:10342C00010000000100000001000000010000008C
:10343C00010000000100000001000000000000007D
:10344C00010000000100000001000000010000006C
:10345C00010000000100000001000000000000005D
:10346C000000000000000000000000000000000050
:10347C000000000000000000000000000000000040
:10348C000000000000000000000000000000000030
:10349C000000000000000000000000000000000020
:1034AC00010000000100000001000000010000000C
:1034BC0001000000010000000100000000000000FD
:1034CC0001000000010000000100000001000000EC
:1034DC0001000000010000000100000000000000DD
:1034EC0001000000010000000100000001000000CC
:1034FC0001000000010000000100000000000000BD
:10350C0000000000000000000000000000000000AF
:10351C00000000000000000000000000000000009F
:10352C00000000000000000000000000000000008F
:10353C00000000000000000000000000000000007F
:10354C00000000000000000000000000000000006F
:10355C00000000000000000000000000000000005F
:10356C00010000000100000001000000010000004B
:10357C00010000000100000001000000000000003C
:10358C00010000000100000001000000010000002B
:10359C00010000000100000001000000000000001C
:1035AC00000000000000000000000000000000000F
:1035BC0000000000000000000000000000000000FF
:1035CC0000000000000000000000000000000000EF
:1035DC0000000000000000000000000000000000DF
:1035EC0000000000000000000000000000000000CF
:1035FC0000000000000000000000000000000000BF
:10360C0000000000000000000000000000000000AE
:10361C00000000000000000000000000000000009E
:10362C00010000000100000001000000010000008A
:10363C00010000000100000001000000000000007B
:10364C00010000000100000000000000000000006C
:10365C00000000000000000000000000000000005E
:10366C00010000000100000001000000000000004B
:10367C00000000000000000000000000000000003E
:10368C00000000000100000001000000010000002B
:10369C00010000000100000001000000000000001B
:1036AC00000000000000000000000000000000000E
:1036BC0000000000010000000000000000000000FD
:1036CC0000000000010000000100000001000000EB
:1036DC0001000000000000000000000000000000DD
:1036EC0000000000000000000000000000000000CE
:1036FC0000000000010000000100000000000000BC
:10370C0000000000000000000000000000000000AD
:10371C00000000000100000001000000000000009B
:10372C00000000000100000001000000000000008B
:10373C00000000000000000000000000000000007D
:10374C00010000000000000000000000010000006B
:10375C00000000000000000000000000000000005D
:10376C00010000000000000000000000010000004B
:10377C00000000000000000000000000000000003D
:10378C00000000000000000000000000000000002D
:10379C00000000000100000001000000000000001B
:1037AC000100000001000000010000000100000009
:1037BC0000000000010000000100000000000000FB
:1037CC0000000000010000000000000001000000EB
:1037DC0000000000000000000000000000000000DD
:1037EC0000000000010000000000000001000000CB
:1037FC0000000000000000000000000000000000BD
:10380C0000000000000000000000000001000000AB
:10381C00000000000000000000000000000000009C
:10382C00000000000000000000000000000000008C
:10383C00010000000000000000000000000000007B
:10384C00000000000000000000000000010000006B
:10385C00010000000000000000000000000000005B
:10386C00000000000000000001000000010000004A
:10387C00010000000000000000000000000000003B
:10388C00000000000000000000000000010000002B
:10389C00010000000000000000000000000000001B
:1038AC00000000000000000000000000000000000C
:1038BC0001000000000000000000000000000000FB
:1038CC0000000000000000000000000000000000EC
:1038DC0000000000000000000000000000000000DC
:1038EC0000000000010000000100000001000000C9
:1038FC0001000000010000000000000000000000BA
:10390C0000000000000000000100000001000000A9
:10391C00010000000000000000000000000000009A
:10392C00000000000000000000000000010000008A
:10393C00000000000000000000000000000000007B
:10394C00000000000000000000000000000000006B
:10395C00000000000000000000000000000000005B
:10396C00000000000000000000000000000000004B
:10397C00000000000000000000000000000000003B
:10398C00000000000000000000000000010000002A
:10399C00000000000000000000000000000000001B
:1039AC000000000000000000010000000100000009
:1039BC0001000000000000000000000000000000FA
:1039CC0000000000010000000100000001000000E8
:1039DC0001000000010000000000000000000000D9
:1039EC0000000000000000000000000000000000CB
:1039FC0000000000000000000000000000000000BB
:103A0C0000000000000000000100000000000000A9
:103A1C00000000000000000000000000000000009A
:103A2C000000000000000000010000000100000088
:103A3C00000000000000000000000000000000007A
:103A4C000000000000000000010000000100000068
:103A5C000100000000000000000000000000000059
:103A6C000000000000000000010000000100000048
:103A7C00000000000000000000000000000000003A
:103A8C000000000000000000010000000000000029
:103A9C00000000000000000000000000000000001A
:103AAC00000000000000000000000000000000000A
:103ABC0000000000000000000000000000000000FA
:103ACC0000000000000000000000000000000000EA
:103ADC0000000000000000000000000000000000DA
:103AEC0000000000000000000000000000000000CA
:103AFC0000000000000000000000000000000000BA
:103B0C0000000000000000000000000000000000A9
:103B1C000000000000000000000000000000000099
:103B2C000000000000000000000000000000000089
:103B3C000000000000000000000000000000000079
:103B4C000000000000000000000000000000000069
:103B5C000000000000000000000000000000000059
:103B6C000000000000000000000000000000000049
:103B7C000000000000000000000000000000000039
:103B8C000100000000000000010000000100000026
:103B9C000100000001000000010000000000000016
:103BAC000000000000000000000000000000000009
:103BBC0000000000000000000000000000000000F9
:103BCC0000000000000000000000000000000000E9
:103BDC0000000000000000000000000000000000D9
:103BEC0000000000000000000000000000000000C9
:103BFC0000000000000000000000000000000000B9
:103C0C0000000000000000000000000000000000A8
:103C1C000100000001000000010000000000000095
:103C2C000000000000000000000000000000000088
:103C3C000000000000000000000000000000000078
:103C4C000000000000000000000000000000000068
:103C5C000100000001000000010000000000000055
:103C6C000000000000000000000000000000000048
:103C7C000000000000000000000000000000000038
:103C8C000000000000000000010000000000000027
:103C9C000100000000000000000000000000000017
:103CAC000100000001000000010000000100000004
:103CBC0001000000010000000100000000000000F5
:103CCC0000000000000000000100000000000000E7
:103CDC0001000000000000000000000000000000D7
:103CEC0001000000010000000100000001000000C4
:103CFC0001000000010000000100000000000000B5
:103D0C0000000000000000000100000000000000A6
:103D1C000100000000000000000000000000000096
:103D2C000000000001000000000000000000000086
:103D3C000100000000000000000000000000000076
:103D4C000000000001000000000000000100000065
:103D5C000000000001000000000000000000000056
:103D6C000100000001000000010000000100000043
:103D7C000100000001000000010000000000000034
:103D8C000000000001000000000000000100000025
:103D9C000000000001000000000000000000000016
:103DAC000000000000000000010000000000000006
:103DBC0000000000010000000000000000000000F6
:103DCC0000000000010000000000000000000000E6
:103DDC0000000000010000000100000000000000D5
:103DEC0000000000000000000100000000000000C6
:103DFC0000000000010000000100000000000000B5
:103E0C0000000000000000000000000001000000A5
:103E1C000000000000000000000000000000000096
:103E2C000100000001000000000000000000000084
:103E3C000100000000000000000000000000000075
:103E4C000100000001000000000000000000000064
:103E5C000000000001000000000000000000000055
:103E6C000000000001000000010000000000000044
:103E7C000100000001000000000000000000000034
:103E8C000100000000000000000000000100000024
:103E9C000000000000000000010000000000000015
:103EAC000100000000000000010000000000000004
:103EBC0001000000000000000100000000000000F4
:103ECC0000000000010000000000000000000000E5
:103EDC0000000000010000000000000000000000D5
:103EEC0001000000000000000100000000000000C4
:103EFC0000000000000000000000000000000000B6
:103F0C0000000000000000000000000000000000A5
:103F1C000000000000000000000000000000000095
:103F2C000000000000000000000000000000000085
:103F3C000100000000000000010000000000000073
:103F4C000000000000000000000000000000000065
:103F5C000000000001000000010000000000000053
:103F6C000000000000000000000000000000000045
:103F7C000000000000000000000000000000000035
:103F8C000000000000000000000000000000000025
:103F9C000000000000000000000000000000000015
:103FAC000000000000000000000000000000000005
:103FBC0000000000000000000000000000000000F5
:103FCC0000000000000000000100000001000000E3
:103FDC0001000000000000000000000000000000D4
:103FEC0000000000010000000000000000000000C4
:103FFC0000000000010000000000000000000000B4
:10400C0001000000000000000000000000000000A3
:10401C000000000000000000010000000000000093
:10402C000000000000000000000000000000000084
:10403C000000000000000000000000000000000074
:10404C000000000000000000000000000000000064
:10405C000000000000000000000000000000000054
:10406C000100000000000000000000000000000043
:10407C000000000000000000010000000000000033
:10408C000000000001000000000000000000000023
:10409C000000000001000000000000000000000013
:1040AC000000000000000000010000000100000002
:1040BC0001000000000000000000000000000000F3
:1040CC0000000000000000000000000000000000E4
:1040DC0000000000000000000000000000000000D4
:1040EC0000000000000000000000000001000000C3
:1040FC0000000000000000000000000000000000B4
:10410C0000000000010000000000000001000000A1
:10411C000000000001000000000000000000000092
:10412C000000000000000000010000000100000081
:10413C000100000000000000000000000000000072
:10414C000000000001000000000000000100000061
:10415C000000000001000000000000000000000052
:10416C000000000000000000000000000100000042
:10417C000000000000000000000000000000000033
:10418C000000000000000000000000000100000022
:10419C000000000000000000000000000000000013
:1041AC000000000000000000000000000100000002
:1041BC0000000000000000000000000000000000F3
:1041CC0000000000010000000100000001000000E0
:1041DC0001000000010000000000000000000000D1
:1041EC0000000000000000000000000001000000C2
:1041FC0000000000000000000000000000000000B3
:10420C0000000000000000000000000001000000A1
:10421C000000000000000000000000000000000092
:10422C000000000000000000000000000000000082
:10423C000000000000000000000000000000000072
:10424C000100000000000000010000000000000060
:10425C000000000000000000000000000000000052
:10426C000000000001000000010000000000000040
:10427C000000000000000000000000000000000032
:10428C000000000000000000000000000000000022
:10429C000000000000000000000000000000000012
:1042AC000000000000000000000000000000000002
:1042BC0000000000000000000000000000000000F2
:1042CC0000000000000000000000000001000000E1
:1042DC0000000000000000000000000000000000D2
:1042EC0000000000000000000000000001000000C1
:1042FC0000000000000000000000000000000000B2
:10430C0000000000000000000000000001000000A0
:10431C000000000000000000000000000000000091
:10432C000000000000000000000000000100000080
:10433C000000000000000000000000000000000071
:10434C000000000000000000000000000100000060
:10435C000000000000000000000000000000000051
:10436C000000000000000000000000000000000041
:10437C000000000000000000000000000000000031
:10438C00010000000100000000000000000000001F
:10439C000000000000000000000000000000000011
:1043AC0001000000010000000000000000000000FF
:1043BC0000000000000000000000000000000000F1
:1043CC0000000000000000000000000000000000E1
:1043DC0000000000000000000000000000000000D1
:1043EC0000000000000000000000000000000000C1
:1043FC0000000000000000000000000000000000B1
:10440C00000000000100000000000000000000009F
:10441C000000000000000000000000000000000090
:10442C00000000000000000001000000000000007F
:10443C000000000000000000000000000000000070
:10444C00000000000000000000000000010000005F
:10445C000000000000000000000000000000000050
:10446C000000000000000000000000000000000040
:10447C00010000000000000000000000000000002F
:10448C000000000000000000000000000000000020
:10449C00000000000100000000000000000000000F
:1044AC0000000000010000000100000001000000FD
:1044BC0001000000010000000000000000000000EE
:1044CC0001000000000000000100000000000000DE
:1044DC0000000000000000000100000000000000CF
:1044EC0001000000000000000000000001000000BE
:1044FC0000000000000000000100000000000000AF
:10450C00010000000000000000000000000000009E
:10451C00010000000000000001000000000000008D
:10452C00000000000100000001000000010000007C
:10453C00010000000100000000000000000000006D
:10454C00000000000000000000000000000000005F
:10455C00000000000000000000000000000000004F
:10456C00010000000000000000000000000000003E
:10457C00000000000100000000000000000000002E
:10458C00010000000100000001000000010000001B
:10459C00010000000100000001000000000000000C
:1045AC0001000000000000000000000000000000FE
:1045BC0000000000000000000000000000000000EF
:1045CC0000000000000000000000000000000000DF
:1045DC0000000000000000000000000000000000CF
:1045EC0001000000000000000000000000000000BE
:1045FC0000000000010000000000000000000000AE
:10460C00010000000100000000000000000000009C
:10461C00000000000000000001000000000000008D
:10462C00010000000000000001000000000000007C
:10463C00000000000000000001000000000000006D
:10464C00010000000000000000000000010000005C
:10465C00000000000000000001000000000000004D
:10466C00010000000000000000000000000000003D
:10467C00010000000100000000000000000000002C
:10468C00000000000100000000000000000000001D
:10469C00000000000000000001000000000000000D
:1046AC0001000000000000000000000000000000FD
:1046BC0000000000000000000100000000000000ED
:1046CC0001000000000000000000000000000000DD
:1046DC0001000000000000000100000000000000CC
:1046EC0001000000000000000000000001000000BC
:1046FC0000000000010000000100000000000000AC
:10470C00000000000100000001000000000000009B
:10471C00000000000000000001000000000000008C
:10472C00000000000000000001000000010000007B
:10473C00000000000000000000000000000000006D
:10474C00000000000000000001000000000000005C
:10475C00010000000000000000000000000000004C
:10476C00000000000000000001000000000000003C
:10477C00000000000100000000000000000000002C
:10478C000100000001000000010000000100000019
:10479C00010000000100000001000000000000000A
:1047AC0000000000000000000100000000000000FC
:1047BC0000000000000000000000000000000000ED
:1047CC0000000000010000000000000000000000DC
:1047DC0001000000010000000100000000000000CA
:1047EC0001000000000000000000000000000000BC
:1047FC0001000000000000000100000000000000AB
:10480C00010000000000000000000000000000009B
:10481C00010000000000000001000000000000008A
:10482C00010000000000000000000000000000007B
:10483C00010000000000000001000000000000006A
:10484C000000000001000000010000000100000059
:10485C00000000000000000001000000000000004B
:10486C000000000001000000010000000100000039
:10487C00010000000000000000000000000000002B
:10488C00010000000000000000000000010000001A
:10489C00000000000100000000000000000000000B
:1048AC0001000000000000000000000001000000FA
:1048BC0000000000000000000100000000000000EB
:1048CC0001000000000000000000000001000000DA
:1048DC0000000000000000000100000000000000CB
:1048EC0000000000010000000100000000000000BA
:1048FC0000000000000000000000000000000000AC
:10490C00000000000000000000000000000000009B
:10491C00000000000000000001000000000000008A
:10492C000100000001000000010000000000000078
:10493C00000000000000000001000000000000006A
:10494C00000000000000000000000000010000005A
:10495C00000000000000000001000000000000004A
:10496C00000000000000000000000000000000003B
:10497C000100000000000000010000000000000029
:10498C00000000000000000000000000000000001B
:10499C000000000001000000010000000000000009
:1049AC0000000000010000000100000000000000F9
:1049BC0001000000010000000000000000000000E9
:1049CC0001000000000000000000000001000000D9
:1049DC0000000000000000000100000000000000CA
:1049EC0001000000000000000000000001000000B9
:1049FC0000000000000000000100000000000000AA
:104A0C000100000000000000000000000100000098
:104A1C000000000000000000010000000000000089
:104A2C000000000001000000010000000000000078
:104A3C000100000001000000000000000000000068
:104A4C00000000000000000000000000000000005A
:104A5C000100000001000000000000000000000048
:104A6C000100000000000000000000000100000038
:104A7C000000000000000000010000000000000029
:104A8C000100000000000000000000000100000018
:104A9C000000000000000000010000000000000009
:104AAC0000000000010000000000000001000000F8
:104ABC0000000000000000000100000000000000E9
:104ACC0000000000000000000100000001000000D8
:104ADC0001000000010000000000000000000000C8
:104AEC0000000000000000000000000000000000BA
:104AFC0000000000000000000000000000000000AA
:104B0C000000000001000000010000000000000097
:104B1C000100000001000000000000000000000087
:104B2C000000000001000000010000000000000077
:104B3C000100000001000000000000000000000067
:104B4C000000000000000000000000000000000059
:104B5C000000000000000000000000000000000049
:104B6C000000000000000000000000000000000039
:104B7C000000000000000000000000000000000029
:104B8C000000000000000000000000000000000019
:104B9C000000000000000000000000000000000009
:104BAC0001000000000000000100000000000000F7
:104BBC0001000000010000000000000000000000E7
:104BCC0000000000010000000100000000000000D7
:104BDC0001000000010000000000000000000000C7
:104BEC0000000000000000000000000000000000B9
:104BFC0000000000000000000000000000000000A9
:104C0C000000000000000000000000000000000098
:104C1C000000000000000000000000000000000088
:104C2C000000000000000000000000000000000078
:104C3C000000000000000000000000000000000068
:104C4C000000000000000000000000000100000057
:104C5C000000000000000000000000000000000048
:104C6C000000000000000000010000000000000037
:104C7C000100000000000000000000000000000027
:104C8C000000000001000000000000000000000017
:104C9C000000000001000000000000000000000007
:104CAC0001000000000000000000000000000000F7
:104CBC0000000000000000000100000000000000E7
:104CCC0000000000000000000100000000000000D7
:104CDC0001000000000000000000000000000000C7
:104CEC0000000000000000000100000000000000B7
:104CFC0001000000000000000000000000000000A7
:104D0C000000000000000000010000000000000096
:104D1C000100000000000000000000000000000086
:104D2C000000000000000000010000000000000076
:104D3C000100000000000000000000000000000066
:104D4C000000000000000000010000000000000056
:104D5C000100000000000000000000000000000046
:104D6C000100000000000000000000000000000036
:104D7C000000000000000000010000000000000026
:104D8C000000000001000000000000000000000016
:104D9C000000000001000000000000000000000006
:104DAC0000000000000000000100000000000000F6
:104DBC0001000000000000000000000000000000E6
:104DCC0000000000000000000000000001000000D6
:104DDC0000000000000000000000000000000000C7
:104DEC0000000000000000000000000000000000B7
:104DFC0000000000000000000000000000000000A7
:104E0C000000000000000000000000000000000096
:104E1C000000000001000000000000000000000085
:104E2C000000000000000000000000000000000076
:104E3C000000000000000000010000000000000065
:104E4C000100000000000000010000000000000054
:104E5C000000000000000000010000000000000045
:104E6C000000000000000000000000000100000035
:104E7C000000000000000000010000000000000025
:104E8C000000000000000000000000000000000016
:104E9C000100000001000000000000000000000004
:104EAC0000000000010000000100000000000000F4
:104EBC0000000000010000000000000000000000E5
:104ECC0001000000000000000000000001000000D4
:104EDC0000000000000000000100000000000000C5
:104EEC0001000000010000000100000001000000B2
:104EFC0000000000000000000100000000000000A5
:104F0C000100000000000000000000000000000094
:104F1C000000000000000000010000000000000084
:104F2C000000000001000000010000000100000072
:104F3C000100000001000000000000000000000063
:104F4C000100000001000000010000000100000051
:104F5C000100000001000000000000000000000043
:104F6C000000000000000000010000000000000034
:104F7C000000000000000000010000000000000024
:104F8C000000000000000000010000000000000014
:104F9C000000000000000000010000000000000004
:104FAC0000000000000000000100000000000000F4
:104FBC0000000000000000000100000000000000E4
:104FCC0001000000010000000100000001000000D1
:104FDC0001000000010000000000000000000000C3
:104FEC0001000000010000000100000001000000B1
:104FFC0001000000010000000100000000000000A2
:10500C000100000000000000000000000100000092
:10501C000000000000000000010000000000000083
:10502C000100000000000000000000000100000072
:10503C000000000000000000010000000000000063
:10504C000100000000000000000000000100000052
:10505C000000000000000000010000000000000043
:10506C000000000001000000010000000000000032
:10507C000100000001000000000000000000000022
:10508C000000000001000000010000000100000011
:10509C000100000001000000000000000000000002
:1050AC0001000000000000000000000000000000F3
:1050BC0000000000000000000100000000000000E3
:1050CC0001000000000000000000000000000000D3
:1050DC0000000000000000000100000000000000C3
:1050EC0001000000000000000000000000000000B3
:1050FC0000000000000000000100000000000000A3
:10510C000000000001000000000000000000000092
:10511C000000000001000000000000000000000082
:10512C00010000000100000001000000010000006F
:10513C000100000001000000010000000000000060
:10514C000100000000000000000000000000000052
:10515C000000000000000000010000000000000042
:10516C000100000000000000000000000000000032
:10517C000000000000000000010000000000000022
:10518C000000000001000000000000000000000012
:10519C000000000001000000000000000000000002
:1051AC0000000000000000000100000001000000F1
:1051BC0001000000000000000000000000000000E2
:1051CC0001000000010000000100000001000000CF
:1051DC0001000000010000000100000000000000C0
:1051EC0001000000000000000000000001000000B1
:1051FC0000000000000000000100000000000000A2
:10520C000100000000000000000000000100000090
:10521C000000000000000000010000000000000081
:10522C000100000000000000000000000100000070
:10523C000000000000000000010000000000000061
:10524C000100000000000000000000000000000051
:10525C000000000000000000010000000000000041
:10526C00010000000100000001000000010000002E
:10527C00010000000100000001000000000000001F
:10528C000000000000000000000000000100000011
:10529C000000000000000000010000000000000001
:1052AC0000000000000000000000000001000000F1
:1052BC0000000000000000000100000000000000E1
:1052CC0000000000000000000000000000000000D2
:1052DC0000000000000000000100000000000000C1
:1052EC0000000000000000000000000000000000B2
:1052FC0000000000000000000100000000000000A1
:10530C00000000000100000001000000010000008E
:10531C00010000000100000000000000000000007F
:10532C000100000000000000000000000000000070
:10533C000000000000000000010000000000000060
:10534C000100000000000000000000000000000050
:10535C000000000000000000010000000000000040
:10536C00010000000000000001000000000000002F
:10537C000000000000000000010000000000000020
:10538C00000000000100000001000000000000000F
:10539C000000000001000000000000000000000000
:1053AC0001000000010000000100000001000000ED
:1053BC0001000000010000000100000000000000DE
:1053CC0000000000000000000000000001000000D0
:1053DC0000000000000000000000000000000000C1
:1053EC0000000000000000000000000001000000B0
:1053FC0000000000000000000000000000000000A1
:10540C00000000000000000000000000010000008F
:10541C000000000000000000000000000000000080
:10542C00010000000100000001000000010000006C
:10543C00010000000100000001000000000000005D
:10544C000000000000000000000000000000000050
:10545C000000000000000000000000000000000040
:10546C00010000000000000000000000000000002F
:10547C00000000000000000001000000000000001F
:10548C00010000000100000001000000010000000C
:10549C0001000000010000000100000000000000FD
:1054AC0001000000000000000000000000000000EF
:1054BC0000000000000000000100000000000000DF
:1054CC0000000000000000000000000000000000D0
:1054DC0000000000000000000000000000000000C0
:1054EC0000000000010000000000000000000000AF
:1054FC0000000000000000000000000000000000A0
:10550C00010000000000000000000000000000008E
:10551C00000000000000000000000000000000007F
:10552C00010000000000000000000000000000006E
:10553C00000000000000000001000000000000005E
:10554C00000000000100000001000000010000004C
:10555C00010000000100000001000000000000003C
:10556C00000000000000000000000000000000002F
:10557C00000000000000000001000000000000001E
:10558C00010000000100000001000000010000000B
:10559C0001000000010000000100000000000000FC
:1055AC0000000000000000000000000001000000EE
:1055BC0000000000000000000000000000000000DF
:1055CC0000000000000000000100000000000000CE
:1055DC0001000000000000000000000000000000BE
:1055EC0000000000010000000000000000000000AE
:1055FC00000000000100000000000000000000009E
:10560C00010000000000000000000000000000008D
:10561C00000000000000000001000000000000007D
:10562C00010000000100000001000000010000006A
:10563C00010000000100000001000000000000005B
:10564C00010000000000000000000000000000004D
:10565C00000000000000000000000000000000003E
:10566C00010000000000000000000000000000002D
:10567C00000000000000000000000000000000001E
:10568C00010000000000000000000000000000000D
:10569C0000000000000000000000000000000000FE
:1056AC0001000000000000000000000000000000ED
:1056BC0000000000000000000000000000000000DE
:1056CC0001000000010000000100000001000000CA
:1056DC0001000000010000000100000000000000BB
:1056EC0000000000000000000000000000000000AE
:1056FC00000000000100000000000000000000009D
:10570C00000000000000000000000000000000008D
:10571C00010000000000000000000000000000007C
:10572C00000000000000000000000000000000006D
:10573C00000000000100000000000000000000005C
:10574C000100000001000000010000000100000049
:10575C00010000000100000001000000000000003A
:10576C000100000001000000010000000100000029
:10577C00010000000100000001000000000000001A
:10578C00000000000000000000000000000000000D
:10579C0001000000000000000000000000000000FC
:1057AC0000000000000000000000000001000000EC
:1057BC0000000000000000000000000000000000DD
:1057CC0000000000000000000100000000000000CC
:1057DC0000000000000000000000000000000000BD
:1057EC0001000000010000000100000001000000A9
:1057FC00010000000100000001000000000000009A
:10580C000000000001000000010000000100000089
:10581C00010000000100000000000000000000007A
:10582C00010000000000000000000000000000006B
:10583C00000000000000000001000000000000005B
:10584C00010000000000000000000000000000004B
:10585C00000000000000000001000000000000003B
:10586C00010000000000000000000000000000002B
:10587C00000000000000000001000000000000001B
:10588C000000000001000000010000000100000009
:10589C0001000000010000000000000000000000FA
:1058AC0001000000010000000100000001000000E8
:1058BC0001000000010000000100000000000000D9
:1058CC0000000000000000000000000001000000CB
:1058DC0000000000000000000100000000000000BB
:1058EC0000000000000000000000000001000000AB
:1058FC00000000000000000001000000000000009B
:10590C00000000000000000000000000010000008A
:10591C00000000000000000001000000000000007A
:10592C00000000000000000000000000000000006B
:10593C000100000001000000000000000000000059
:10594C000000000001000000010000000100000048
:10595C000100000001000000000000000000000039
:10596C00010000000000000000000000000000002A
:10597C00000000000000000001000000000000001A
:10598C000100000000000000010000000000000009
:10599C0000000000000000000100000000000000FA
:1059AC0000000000010000000000000000000000EA
:1059BC0000000000000000000100000000000000DA
:1059CC0001000000000000000100000001000000C8
:1059DC0001000000010000000000000000000000B9
:1059EC0001000000010000000100000001000000A7
:1059FC000100000001000000010000000000000098
:105A0C000000000000000000000000000100000089
:105A1C000000000000000000010000000000000079
:105A2C000000000000000000010000000100000068
:105A3C000000000000000000010000000000000059
:105A4C000000000001000000000000000100000048
:105A5C000000000000000000010000000000000039
:105A6C000100000000000000000000000000000029
:105A7C000100000001000000000000000000000018
:105A8C000100000000000000000000000000000009
:105A9C0001000000010000000000000000000000F8
:105AAC0001000000000000000000000001000000E8
:105ABC0000000000000000000100000000000000D9
:105ACC0001000000000000000000000001000000C8
:105ADC0000000000000000000100000000000000B9
:105AEC0001000000000000000000000001000000A8
:105AFC000000000000000000010000000000000099
:105B0C000000000001000000010000000000000087
:105B1C000000000000000000010000000000000078
:105B2C000000000000000000000000000000000069
:105B3C000000000000000000010000000000000058
:105B4C000000000000000000000000000000000049
:105B5C000000000000000000010000000000000038
:105B6C000100000001000000010000000100000025
:105B7C000100000001000000010000000000000016
:105B8C000000000000000000000000000000000009
:105B9C0000000000000000000100000000000000F8
:105BAC0000000000000000000000000000000000E9
:105BBC0000000000000000000100000000000000D8
:105BCC0000000000010000000100000001000000C6
:105BDC0001000000010000000100000000000000B6
:105BEC0001000000000000000000000000000000A8
:105BFC000000000000000000000000000000000099
:105C0C000100000000000000000000000000000087
:105C1C000000000000000000000000000000000078
:105C2C000100000000000000000000000000000067
:105C3C000000000000000000000000000000000058
:105C4C000000000001000000010000000100000045
:105C5C000100000001000000010000000000000035
:105C6C000000000000000000010000000100000026
:105C7C000100000001000000010000000000000015
:105C8C000000000001000000000000000000000007
:105C9C0000000000000000000000000000000000F8
:105CAC0001000000000000000000000000000000E7
:105CBC0000000000000000000000000000000000D8
:105CCC0000000000010000000000000000000000C7
:105CDC0000000000000000000000000000000000B8
:105CEC0000000000000000000100000001000000A6
:105CFC000100000001000000010000000000000095
:105D0C000100000001000000010000000100000083
:105D1C000100000001000000010000000000000074
:105D2C000000000001000000000000000000000066
:105D3C000000000000000000000000000000000057
:105D4C000000000000000000010000000100000045
:105D5C000000000000000000000000000000000037
:105D6C000000000001000000000000000000000026
:105D7C000000000000000000000000000000000017
:105D8C000100000001000000010000000100000003
:105D9C0001000000010000000100000000000000F4
:105DAC0001000000010000000000000000000000E5
:105DBC0000000000010000000100000000000000D5
:105DCC0000000000000000000100000000000000C6
:105DDC0001000000000000000000000000000000B6
:105DEC0000000000000000000000000001000000A6
:105DFC000000000000000000000000000000000097
:105E0C000000000000000000010000000000000085
:105E1C000100000000000000000000000000000075
:105E2C000100000001000000000000000000000064
:105E3C000000000001000000010000000000000054
:105E4C000000000000000000000000000000000046
:105E5C000000000001000000010000000000000034
:105E6C000000000000000000000000000000000026
:105E7C000100000000000000000000000000000015
:105E8C000100000001000000010000000100000002
:105E9C0000000000000000000000000000000000F6
:105EAC0000000000000000000000000000000000E6
:105EBC0001000000000000000000000000000000D5
:105ECC0000000000000000000000000000000000C6
:105EDC0000000000010000000100000000000000B4
:105EEC0001000000010000000000000000000000A4
:105EFC000000000000000000010000000000000095
:105F0C000100000000000000010000000000000083
:105F1C000000000000000000010000000000000074
:105F2C000100000000000000000000000100000063
:105F3C000000000000000000010000000000000054
:105F4C000100000000000000000000000000000044
:105F5C000100000000000000010000000000000033
:105F6C000100000000000000000000000000000024
:105F7C000000000001000000010000000000000013
:105F8C000000000000000000000000000000000005
:105F9C0000000000000000000000000000000000F5
:105FAC0000000000000000000000000000000000E5
:105FBC0000000000000000000000000000000000D5
:105FCC0001000000010000000100000001000000C1
:105FDC0001000000010000000100000000000000B2
:105FEC0001000000000000000000000000000000A4
:105FFC000000000000000000010000000000000094
:10600C000100000000000000000000000000000083
:10601C000000000000000000010000000000000073
:10602C000000000000000000000000000000000064
:10603C000000000001000000000000000000000053
:10604C000000000000000000000000000000000044
:10605C000100000000000000000000000000000033
:10606C000000000000000000000000000100000023
:10607C000000000000000000000000000000000014
:10608C000000000000000000010000000000000003
:10609C0000000000000000000000000000000000F4
:1060AC0000000000010000000000000000000000E3
:1060BC0000000000000000000000000000000000D4
:1060CC0001000000000000000000000000000000C3
:1060DC0000000000000000000100000000000000B3
:1060EC0001000000000000000000000000000000A3
:1060FC000000000000000000010000000000000093
:10610C00010000000100000001000000010000007F
:10611C000100000001000000010000000000000070
:10612C000000000000000000000000000000000063
:10613C000000000000000000000000000000000053
:10614C000000000000000000000000000000000043
:10615C000000000000000000000000000000000033
:10616C000000000000000000000000000000000023
:10617C000100000000000000000000000000000012
:10618C000000000000000000000000000000000003
:10619C0000000000010000000000000000000000F2
:1061AC0000000000000000000000000000000000E3
:1061BC0000000000000000000100000000000000D2
:1061CC0000000000000000000000000000000000C3
:1061DC0000000000010000000000000000000000B2
:1061EC0000000000000000000000000000000000A3
:1061FC000100000000000000000000000000000092
:10620C000100000000000000000000000000000081
:10621C000000000000000000000000000000000072
:10622C000100000000000000000000000000000061
:10623C000000000000000000000000000000000052
:10624C000100000000000000000000000000000041
:10625C000000000000000000000000000000000032
:10626C000100000000000000000000000000000021
:10627C000000000000000000000000000000000012
:10628C000100000000000000000000000000000001
:10629C0000000000000000000000000000000000F2
:1062AC0000000000000000000000000000000000E2
:1062BC0000000000000000000000000000000000D2
:1062CC0000000000000000000000000000000000C2
:1062DC0000000000000000000100000000000000B1
:1062EC0000000000000000000000000000000000A2
:1062FC000000000001000000000000000000000091
:10630C000000000000000000000000000000000081
:10631C000100000000000000000000000000000070
:10632C000000000000000000000000000000000061
:10633C000000000000000000000000000000000051
:10634C000000000001000000000000000000000040
:10635C000000000000000000000000000000000031
:10636C00010000000000000001000000000000001F
:10637C000100000000000000000000000000000010
:10638C0001000000000000000100000000000000FF
:10639C0001000000000000000000000000000000F0
:1063AC0001000000000000000100000000000000DF
:1063BC0001000000000000000000000000000000D0
:1063CC0001000000010000000100000001000000BD
:1063DC0000000000000000000000000000000000B1
:1063EC00010000000100000001000000010000009D
:1063FC00010000000100000001000000000000008E
:10640C00010000000000000000000000010000007E
:10641C000000000000000000000000000000000070
:10642C00010000000000000000000000000000005F
:10643C00010000000000000000000000000000004F
:10644C00010000000000000000000000000000003F
:10645C00010000000000000000000000000000002F
:10646C00000000000100000001000000010000001D
:10647C000000000000000000000000000000000010
:10648C0000000000010000000100000001000000FD
:10649C0000000000000000000000000000000000F0
:1064AC0001000000000000000000000000000000DF
:1064BC0001000000000000000000000000000000CF
:1064CC0001000000000000000000000000000000BF
:1064DC0001000000000000000000000000000000AF
:1064EC00010000000000000000000000000000009F
