:020000040800F2
:100000000050002045230008D9220008DB22000808
:10001000DD220008DF220008E122000800000000C5
:10002000000000000000000000000000E3220008C3
:10003000E522000800000000E7220008E92200088D
:100040008D2300088D2300088D2300088D230008D0
:100050008D2300088D2300088D2300088D230008C0
:100060008D2300088D2300088D2300088D230008B0
:100070008D2300088D2300088D2300088D230008A0
:100080008D2300088D2300088D2300088D23000890
:100090008D2300088D2300088D2300088D23000880
:1000A0008D2300088D2300088D2300088D23000870
:1000B0008D2300088D2300088D2300088D23000860
:1000C0008D2300088D2300088D2300088D23000850
:1000D0008D2300088D2300088D2300088D23000840
:1000E0008D2300088D2300088D23000800000000E8
:1000F0000000000000000000000000000000000000
:0C01000000000000000000005FF808F1A3
:10010C0010B5054C237833B9044B13B10448AFF345
:10011C0000800123237010BD20000020000000008F
:10012C00D823000808B5034B1BB103490348AFF3B0
:10013C00008008BD0000000024000020D823000827
:10014C00034613F8012B002AFBD1181A013870470B
:10015C0038B50E4B054618784FF47A73B3FBF0F3B1
:10016C000B4A1068B0FBF3F000F080F8044658B965
:10017C000F2D09D8024629464FF0FF3000F042F807
:10018C00044B20461D6038BD012038BD0000002006
:10019C001C00002004000020074A08B51368032047
:1001AC0043F01003136000F01BF80020FFF7D0FFA2
:1001BC0002F03CF8002008BD00200240034A044B2A
:1001CC0011681B780B441360704700BF4800002077
:1001DC0000000020014B1868704700BF4800002049
:1001EC00074A0002D36800F4E06023F4E0631B04C8
:1001FC001B0C43F0BF6343F400330343D3607047DD
:10020C0000ED00E0174B30B5DC68C4F30224C4F1F8
:10021C000703251D042B28BF0423062D4FF00105D1
:10022C0098BF002405FA03F303F1FF3388BF033CA6
:10023C001940A14005FA04F4013C2240002842EA8E
:10024C0001024FEA0212AFBF00F16040064B00F012
:10025C000F00D2B2A5BFD2B200F561401A5480F89B
:10026C00002330BD00ED00E014ED00E00138B0F1EA
:10027C00807F0AD2F021064B064A586082F8231080
:10028C000020072298601A6070470120704700BF59
:10029C0010E000E000ED00E0044B04281A680CBFED
:1002AC0042F0040222F004021A60704710E000E0F1
:1002BC00704708B5FFF7FCFF08BD00002DE9F74FAC
:1002CC0000221646654BDFF8A4E1DFF8A4C14FF01D
:1002DC0001080C6808FA06F808EA0404A0457FD166
:1002EC004D68122D00F0AF8000F28880022D00F0D6
:1002FC00A7807CD8002D00F08E80012D00F09E8010
:10030C004FF00F09FF2C93BF824606F18045083D44
:10031C00D0F800B092BFB500D0F804B0AD0009FA27
:10032C0005F82BEA080802FA05F588BF00F1040A63
:10033C0048EA0505CAF80050D1F804A01AF0805F0D
:10034C004ED0474D464FAD6926F0030845F00105E8
:10035C00BD61BD6908F1804805F00105019508F5FE
:10036C00803806F0030B019D4FEA8B0BD8F8085030
:10037C0009FA0BF925EA09093A4DA84268D005F5A6
:10038C008065A84266D005F58065A84264D005F565
:10039C008065A8420CBF0325042505FA0BF545EA38
:1003AC000905C8F808501D681AF4803F14BF25438E
:1003BC00A5431D605D681AF4003F14BF2543A54397
:1003CC005D609D681AF4801F14BF2543A5439D6092
:1003DC00DD681AF4001F14BF2C4325EA0404DC600A
:1003EC000136102E7FF473AF03B0BDE8F08F032DF0
:1003FC0022D0112D84D1CA68043281E71A4FBD4234
:10040C0009D012D8DFF86C904D4504D009F580392D
:10041C004D457FF475AF8A68C2B1012A0CBFC0F894
:10042C001080C0F8148008226AE77545F3D0654542
:10043C00F1D0DFF84490EBE7002261E7CA685FE790
:10044C00CA6808325CE7CA680C3259E7042257E7DD
:10045C000025A2E70125A0E702259EE70004014044
:10046C000010024000080140000021100000311073
:10047C000000321000001110000022100AB10161BE
:10048C0070470904FBE7000003682DE9F341DB0723
:10049C00054610D42B689F075ED42B68190700F112
:1004AC0095802B685A0700F1BF80EA69002A40F05A
:1004BC002D81002014E0904C636803F00C03042B96
:1004CC0007D0636803F00C03082B0CD16368DE03C0
:1004DC0009D523689C03DDD56B68002BDAD101208C
:1004EC0002B0BDE8F0816B68B3F5803F10D1236892
:1004FC0043F480332360FFF76DFE064623689803B0
:10050C00C8D4FFF767FE801B6428F7D90320E7E700
:10051C009BB9236823F480332360236823F480235E
:10052C002360FFF757FE064623689903B2D5FFF701
:10053C0051FE801B6428F7D9E8E7B3F5A02F236898
:10054C0003D143F480232360D1E723F48033236069
:10055C00236823F48023CDE7674C636813F00C0FFA
:10056C0007D0636803F00C03082B10D16368DA031F
:10057C000DD423689B0702D52B69012BAFD12368BF
:10058C006A6923F0F80343EAC203236085E72A690A
:10059C005A4B6AB101221A60FFF71CFE064623680B
:1005AC009F07ECD4FFF716FE801B0228F7D9ADE7A6
:1005BC001A60FFF70FFE0646236898077FF56DAFAC
:1005CC00FFF708FE801B0228F6D99FE7AA694A4C60
:1005DC004B4BDAB101221A60FFF7FCFD0646636A49
:1005EC009B070DD54FF4FA52464B1B68B3FBF2F345
:1005FC00019300BF019B5A1E0192002BF9D150E7C9
:10060C00FFF7E8FD801B0228E9D97FE71A60FFF7A6
:10061C00E1FD0646636A9F077FF543AFFFF7DAFDFE
:10062C00801B0228F6D971E7334CE369D80024D437
:10063C000127E36943F08053E361E36903F08053DE
:10064C000093009B304E3368D90518D5EB68012B0D
:10065C0026D1236A43F001032362FFF7BBFD41F26D
:10066C0088368046236A9B073FD5002F3FF41DAF89
:10067C00E36923F08053E36117E70027E2E733686F
:10068C0043F480733360FFF7A5FD80463368DA05C9
:10069C00DCD4FFF79FFDA0EB08006428F6D935E702
:1006AC00ABB9236A41F2883823F001032362236A31
:1006BC0023F004032362FFF78DFD0646236A980797
:1006CC00D3D5FFF787FD801B4045F7D91EE7052BD7
:1006DC00236A03D143F004032362BAE723F0010336
:1006EC002362236A23F00403B6E7FFF773FDA0EB44
:1006FC000800B042B6D909E700100240000042429F
:10070C00800442421C00002000700040224C6368B0
:10071C0003F00C03082B3FF4E2AE00231F4E022A19
:10072C0033602BD1FFF756FD0746236899011FD480
:10073C002B6AB3F5803F05D16268A96822F40032B8
:10074C000A436260696A62680B4322F474121343B1
:10075C00636001233360FFF73DFD054623689A0172
:10076C003FF5A7AEFFF736FD401B0228F6D9CDE6C4
:10077C00FFF730FDC01B0228D7D9C7E6FFF72AFDCB
:10078C00054623689B017FF594AEFFF723FD401BC4
:10079C000228F6D9BAE600BF0010024060004242BF
:1007AC0030B5194B87B002AC03F11005224618681E
:1007BC005968083303C2AB421446F7D101238DF8B4
:1007CC000430022311498DF805304B6803F00C02FC
:1007DC00082A17D1C3F3834206A80244DB0312F89C
:1007EC00102C0CD54B680A48C3F34043504306AA5F
:1007FC00134413F8143CB0FBF3F007B030BD0548BC
:10080C005043FAE70248F8E7F023000800100240D2
:10081C0000127A0000093D004D4A2DE9F0411368A1
:10082C00054603F007038B420E4628D32A6891072E
:10083C0032D4D20738D4464A136803F007039E42D9
:10084C0073D32A68434C12F0040F79D1130706D5E1
:10085C0063682A6923F4605343EAC2036360FFF7B9
:10086C009FFF63683C4AC3F30313D35CD8403B4BF4
:10087C0018600020FFF76CFC0020BDE8F0811368C5
:10088C0023F007030B431360136803F0070399422B
:10089C00CCD00120BDE8F0812E49A8684B6823F02C
:1008AC00F00303434B60C4E76A682A4C012A2368AF
:1008BC001CD113F4003FECD0636841F2883823F06C
:1008CC00030313436360FFF785FC6B680746012B3A
:1008DC0014D1636803F00C03042BACD0FFF77AFC43
:1008EC00C01B4045F5D90320BDE8F081022A02D196
:1008FC0013F0007FDFE713F0020FDCE7022B0FD1C0
:10090C00636803F00C03082B95D0FFF763FCC01B46
:10091C004045F5D9E7E7FFF75DFCC01B4045E2D841
:10092C00636813F00C0FF6D185E7136823F0070307
:10093C0033431360136803F007039E42A9D180E789
:10094C006368E96823F4E0630B4363607EE700BFF0
:10095C000020024000100240792A00081C000020F0
:10096C00014B1868704700BF1C0000204FF4803307
:10097C0010B590B001220793002102240E934FF47E
:10098C00E01306A8069208910A920D940F93FFF7B4
:10099C007BFD00B1FEE70F2301934FF480630390BE
:1009AC000590214601A802940493FFF735FF0446F5
:1009BC0000B1FEE7FFF7D4FF4FF47A73B0FBF3F00E
:1009CC00FFF754FC0420FFF767FC224621464FF04A
:1009DC00FF30FFF717FC10B010BD000001220248D9
:1009EC001146FFF74BBD00BF000801400022022159
:1009FC000148FFF743BD00BF00080140012202215E
:100A0C000148FFF73BBD00BF000801400022042154
:100A1C000148FFF733BD00BF00080140012204214B
:100A2C000148FFF72BBD00BF000801400022082140
:100A3C000148FFF723BD00BF000801400122082137
:100A4C000148FFF71BBD00BF000801400022102128
:100A5C000148FFF713BD00BF00080140012210211F
:100A6C000148FFF70BBD00BF0008014008B5FFF7B8
:100A7C00BDFFBDE80840FFF7C1BF00004FF07F632A
:100A8C00074A08491361030203F4407300F0FC00A9
:100A9C000B80054903439B0008801361704700BF1E
:100AAC00000C01407C0000206000002008B5FFF71E
:100ABC00E5FFFFF7DBFFBDE80840FFF79FBF10B570
:100ACC000446000AFFF7F2FFE0B2BDE81040FFF762
:100ADC00EDBF10B50446FFF799FF2046FFF7EFFF77
:100AEC00BDE81040FFF79ABF38B505460C46FFF736
:100AFC009DFF2846FFF7EDFF2046FFF7E0FFBDE81E
:100B0C003840FFF79BBF00000B4B19880B4BC1F310
:100B1C00003181EA00021A80094A814213884FF0A1
:100B2C00010023F400539BB218BF43F4005313800D
:100B3C001188FFF7D9BF00BF4E00002058000020DD
:100B4C004C00002070B506460D460024002D00DC3C
:100B5C0070BD06EB440336F814005988043D02348A
:100B6C00FFF7C2FF2DB224B2F0E70B4649428A428E
:100B7C000BDD9A42A8BF0022104481B2002ABCBFF0
:100B8C00C91889B24120FFF7AFBF0022F4E700007B
:100B9C00F8B50E46174604461D461B4B81B2188805
:100BAC00FFF7A2FF194BB1B21888FFF79DFFBC42AB
:100BBC0001D1AE4226D0164B1B889A060CD5154B8C
:100BCC001B78DB074BBF46EA052544EA07242EB207
:100BDC0024B24CBF354627460F48A1B20088FFF718
:100BEC0083FF0E48B1B20088FFF77EFF0C4AB9B202
:100BFC001088FFF779FF0B4BA9B21888BDE8F840B5
:100C0C00FFF772BFF8BD00BF1000002012000020DB
:100C1C004E0000206200002016000020180000206A
:100C2C000C0000200E00002038B51446021E0B46A6
:100C3C0012DB002910DB094D2D88AA420CDA084D75
:100C4C002D88A94208DAFFF7A3FF064B2146188826
:100C5C00BDE83840FFF748BF38BD00BF0A00002090
:100C6C0008000020140000202DE9F04106460F4634
:100C7C00154698460024AC4201DBBDE8F0813019E2
:100C8C004246394600B2FFF7CFFF0134F3E72DE9B6
:100C9C00F04106460F46154698460024AC4201DB4F
:100CAC00BDE8F0813919424609B23046FFF7BCFF66
:100CBC000134F3E72DE9F0411F460E4680461446F9
:100CCC00BDF818502B46FFF7CFFF791E31442B4649
:100CDC002246404609B2FFF7C7FF2B463A4631463B
:100CEC004046FFF7D4FF601E40442B463A4631463F
:100CFC00BDE8F04100B2FFF7CABF00005D4B70B514
:100D0C005D4C1D8800F0030310F00100237000F00F
:100D1C009380F021594A022B11804FF4A071584A4C
:100D2C00118005D0032B6FD0012B6FD1282300E04D
:100D3C0098234E21534A11804F21534A118022216E
:100D4C00524A1180442252490A8052490A80452154
:100D5C00514A11804621514A118008B183F0D003C9
:100D6C0013F0800F14BF4FF4A042002213F0400F79
:100D7C0014BF4FF40070002040F23F1113F0200F0D
:100D8C0014BF0826002642EA000341EA4531194304
:100D9C0041F40061424B89B201201980FFF7A4FE97
:100DAC0046F4C04141F070011120FFF79DFE2378FD
:100DBC00DA0715D53B4B1B885B0511D4314A324BF6
:100DCC001188188819801080334B314A1888118883
:100DDC00108019802F4A314B118818881980108087
:100DEC000021264C264A23881288013B013A0846EA
:100DFC0012B21BB2FFF7CCFE0022B4F90010104661
:100E0C00BDE87040FFF7B1BEF82392E74E221D4BB0
:100E1C001A804F221C4B1A8022221C4B1A8044230E
:100E2C001B4A13801B4A138045221B4B1A804622F7
:100E3C001A4B1A80482391E7022B3FF479AF032B0E
:100E4C00E2D0012B3FF472AF4E220E4B1A804F2290
:100E5C000D4B1A8022220D4B1A8044230C4A13800E
:100E6C000C4A138045220C4B1A8046220B4B1A80DD
:100E7C00482375E75800002062000020080000207D
:100E8C000A00002010000020120000201400002096
:100E9C00160000200C000020180000200E0000207E
:100EAC004C0000204E0000202DE9F047002ABDF830
:100EBC00209004DA95B26A42284412B200B2354D41
:100ECC0002442E8812B2B242C8BF32B220EAE0709D
:100EDC0092B2161A002B36B204DA9FB27B42394416
:100EEC001BB209B22C4F0B44B7F800E01BB2734590
:100EFC00C8BF0FFA8EF321EAE1719BB2A3EB010894
:100F0C00013A013B1BB212B2FFF742FEFFF78EFD16
:100F1C00224B0FFA88F81888FFF7DBFD4645BEBF59
:100F2C003346464698464FEA192A5FFA89F91FFA62
:100F3C0088F80FFA88F3002B1BDCFFF77FFD184BAA
:100F4C001B88DA0709D5174B1A8841F226539A42A7
:100F5C001DD1154B1B78DB0719D500213B882A883E
:100F6C00013B013A1BB212B20846BDE8F047FFF74D
:100F7C000FBE34465046013CFFF798FD24B248465C
:100F8C00FFF794FD002CF5D108F1FF38CFE7BDE851
:100F9C00F08700BF0A000020080000201400002089
:100FAC004E000020640000206200002007B50021E4
:100FBC00064B074AB3F90030B2F9002000900846FE
:100FCC00FFF772FF03B05DF804FB00BF08000020C0
:100FDC000A0000202DE9F04F824285B015461E46CE
:100FEC00BDF83C70BDF840909DF8444080F2EF8510
:100FFC008B4280F2EC85062303FB0423002B40F389
:10100C00E68506EBC403002B40F3E1859DF83830F0
:10101C00213B532B00F2DE85DFE813F0B305DC0532
:10102C00DC05DC05DC05DC05DC05DC05DC05DC05AC
:10103C00DC05DC058C05DC05DC0565053E050305DA
:10104C00DC04B5048E0466043E041604EE03C603E9
:10105C00DC05DC05DC05DC05DC05DC059E03620338
:10106C003A03DC051203EA02DC05C202DC05DC05EE
:10107C00DC059A02DC05DC0572024A02DC05DC05A3
:10108C002202FA01BE01DC05DC0595016C01DC05D0
:10109C00DC05DC05DC05DC05DC05DC0544011C019C
:1010AC00F400DC05CC00A400DC05DC05DC05DC056B
:1010BC00DC05DC05DC05DC057C00DC05DC05DC0581
:1010CC00DC055400B3464FF00008AA464FF0000967
:1010DC0008EB06030293C44AC8EBC903134493F903
:1010EC000730012B08D1012C40F0AA863A46029910
:1010FC0009EB0500FFF798FD09F10109B9F1050F9E
:10110C00A244E8D108F10108B8F1080FA344DCD1DE
:10111C0000F05DBDB3464FF00008AA464FF0000941
:10112C0008EB06030293B14AC8EBC903134493F9C5
:10113C000730012B08D1012C40F079863A460299F0
:10114C0009EB0500FFF770FD09F10109B9F1050F75
:10115C00A244E8D108F10108B8F1080FA344DCD18E
:10116C0000F035BDB3464FF00008AA464FF0000919
:10117C0008EB060302939E4AC8EBC903134493F988
:10118C000730012B08D1012C40F048863A460299D1
:10119C0009EB0500FFF748FD09F10109B9F1050F4D
:1011AC00A244E8D108F10108B8F1080FA344DCD13E
:1011BC0000F00DBDB3464FF00008AA464FF00009F1
:1011CC0008EB060302938B4AC8EBC903134493F94B
:1011DC000730012B08D1012C40F017863A460299B2
:1011EC0009EB0500FFF720FD09F10109B9F1050F25
:1011FC00A244E8D108F10108B8F1080FA344DCD1EE
:10120C0000F0E5BCB3464FF00008AA464FF00009C9
:10121C0008EB06030293784AC8EBC903134493F90D
:10122C000730012B08D1012C40F0E6853A46029993
:10123C0009EB0500FFF7F8FC09F10109B9F1050FFD
:10124C00A244E8D108F10108B8F1080FA344DCD19D
:10125C0000F0BDBCB3464FF00008AA464FF00009A1
:10126C0008EB06030293654AC8EBC903134493F9D0
:10127C000730012B08D1012C40F0AC853A4602997D
:10128C0009EB0500FFF7D0FC09F10109B9F1050FD5
:10129C00A244E8D108F10108B8F1080FA344DCD14D
:1012AC0000F095BCB3464FF00008AA464FF0000979
:1012BC0008EB06030293524AC8EBC903134493F993
:1012CC000730012B08D1012C40F07B853A4602995E
:1012DC0009EB0500FFF7A8FC09F10109B9F1050FAD
:1012EC00A244E8D108F10108B8F1080FA344DCD1FD
:1012FC0000F06DBCAB464FF00009B2464FF0000851
:10130C00404B4B44029309EB05030393029A08EB01
:10131C008803D356012B08D1012C40F049853A465D
:10132C0008EB06010398FFF77FFC08F10108B8F100
:10133C00080FA244EAD109F10109B9F1050FA34440
:10134C00DBD100F044BCAB464FF00009B2464FF085
:10135C0000082D4B4B44029309EB05030393029AAF
:10136C0008EB8803D356012B08D1012C40F01785CC
:10137C003A4608EB06010398FFF756FC08F1010802
:10138C00B8F1080FA244EAD109F10109B9F1050F2E
:10139C00A344DBD100F01BBCAB464FF00009B246B6
:1013AC004FF00008194B4B44029309EB05030393D0
:1013BC00029A08EB8803D356012B08D1012C40F07C
:1013CC00E5843A4608EB06010398FFF72DFC08F17B
:1013DC000108B8F1080FA244EAD109F10109B9F1E9
:1013EC00050FA344DBD1F2E3352A00080D2A0008CF
:1013FC00E5290008BD290008952900086D29000879
:10140C004529000818290008EB280008BE28000808
:10141C00AB464FF00009B2464FF00008C44B4B44AA
:10142C00029309EB05030393029A08EB8803D35646
:10143C00012B08D1012C40F0A0843A4608EB0601A0
:10144C000398FFF7F1FB08F10108B8F1080FA2446B
:10145C00EAD109F10109B9F1050FA344DBD1B6E3D7
:10146C00AB464FF00009B2464FF00008B14B4B446D
:10147C00029309EB05030393029A08EB8803D356F6
:10148C00012B08D1012C40F06F843A4608EB060181
:10149C000398FFF7C9FB08F10108B8F1080FA24443
:1014AC00EAD109F10109B9F1050FA344DBD18EE3AF
:1014BC00AB464FF00009B2464FF000089E4B4B4430
:1014CC00029309EB05030393029A08EB8803D356A6
:1014DC00012B08D1012C40F03E843A4608EB060162
:1014EC000398FFF7A1FB08F10108B8F1080FA2441B
:1014FC00EAD109F10109B9F1050FA344DBD166E387
:10150C00AB464FF00009B2464FF000088B4B4B44F2
:10151C00029309EB05030393029A08EB8803D35655
:10152C00012B08D1012C40F00D843A4608EB060142
:10153C000398FFF779FB08F10108B8F1080FA244F2
:10154C00EAD109F10109B9F1050FA344DBD13EE35E
:10155C00AB464FF00009B2464FF00008784B4B44B5
:10156C00029309EB05030393029A08EB8803D35605
:10157C00012B08D1012C40F0DD833A4608EB060123
:10158C000398FFF751FB08F10108B8F1080FA244CA
:10159C00EAD109F10109B9F1050FA344DBD116E336
:1015AC00AB464FF00009B2464FF00008654B4B4478
:1015BC00029309EB05030393029A08EB8803D356B5
:1015CC00012B08D1012C40F0AD833A4608EB060103
:1015DC000398FFF729FB08F10108B8F1080FA244A2
:1015EC00EAD109F10109B9F1050FA344DBD1EEE20F
:1015FC00AB464FF00009B2464FF00008524B4B443B
:10160C00029309EB05030393029A08EB8803D35664
:10161C00012B08D1012C40F07D833A4608EB0601E2
:10162C000398FFF701FB08F10108B8F1080FA24479
:10163C00EAD109F10109B9F1050FA344DBD1C6E2E6
:10164C00AB464FF00009B2464FF000083F4B4B44FD
:10165C00029309EB05030393029A08EB8803D35614
:10166C00012B08D1012C40F04D833A4608EB0601C2
:10167C000398FFF7D9FA08F10108B8F1080FA24452
:10168C00EAD109F10109B9F1050FA344DBD19EE2BE
:10169C00AB464FF00009B2464FF000082C4B4B44C0
:1016AC00029309EB05030393029A08EB8803D356C4
:1016BC00012B08D1012C40F01D833A4608EB0601A2
:1016CC000398FFF7B1FA08F10108B8F1080FA2442A
:1016DC00EAD109F10109B9F1050FA344DBD176E296
:1016EC00AB464FF00009B2464FF00008194B4B4483
:1016FC00029309EB05030393029A08EB8803D35674
:10170C00012B08D1012C40F0ED823A4608EB060182
:10171C000398FFF789FA08F10108B8F1080FA24401
:10172C00EAD109F10109B9F1050FA344DBD14EE26D
:10173C0064280008372800080A280008DD2700085C
:10174C00832700085627000829270008CF26000801
:10175C00A226000875260008AB464FF00009B246D9
:10176C004FF00008C24B4B44029309EB0503039363
:10177C00029A08EB8803D356012B08D1012C40F0B8
:10178C00A9823A4608EB06010398FFF74DFA08F1D7
:10179C000108B8F1080FA244EAD109F10109B9F125
:1017AC00050FA344DBD112E2AB464FF00009B24661
:1017BC004FF00008AF4B4B44029309EB0503039326
:1017CC00029A08EB8803D356012B08D1012C40F068
:1017DC0021823A4608EB06010398FFF725FA08F137
:1017EC000108B8F1080FA244EAD109F10109B9F1D5
:1017FC00050FA344DBD1EAE1AB464FF00009B2463A
:10180C004FF000089C4B4B44029309EB05030393E8
:10181C00029A08EB8803D356012B08D1012C40F017
:10182C0051823A4608EB06010398FFF7FDF908F1DF
:10183C000108B8F1080FA244EAD109F10109B9F184
:10184C00050FA344DBD1C2E1AB464FF00009B24611
:10185C004FF00008894B4B44029309EB05030393AB
:10186C00029A08EB8803D356012B08D1012C40F0C7
:10187C0021823A4608EB06010398FFF7D5F908F1E7
:10188C000108B8F1080FA244EAD109F10109B9F134
:10189C00050FA344DBD19AE1AB464FF00009B246E9
:1018AC004FF00008764B4B44029309EB050303936E
:1018BC00029A08EB8803D356012B08D1012C40F077
:1018CC00F1813A4608EB06010398FFF7ADF908F1F0
:1018DC000108B8F1080FA244EAD109F10109B9F1E4
:1018EC00050FA344DBD172E1AB464FF00009B246C1
:1018FC004FF00008634B4B44029309EB0503039331
:10190C00029A08EB8803D356012B08D1012C40F026
:10191C00C1813A4606EB08010398FFF785F908F1F7
:10192C000108B8F1080FA244EAD109F10109B9F193
:10193C00050FA344DBD14AE1B3464FF00008AA4699
:10194C004FF0000908EB060302934F4AC8EBC9039A
:10195C00134493F90730012B08D1012C40F09281EC
:10196C003A46029905EB0900FFF75EF909F1010906
:10197C00B9F1050FA244E8D108F10108B8F1080F3C
:10198C00A344DCD123E1B3464FF00008AA464FF044
:10199C00000906EB080302933C4AC8EBC903134445
:1019AC0093F90730012B08D1012C40F063813A46A2
:1019BC00029909EB0500FFF737F909F10109B9F1B3
:1019CC00050FA244E8D108F10108B8F1080FA344AF
:1019DC00DCD1FCE0B3464FF00008AA464FF00009FA
:1019EC0006EB080302932A4AC8EBC903134493F984
:1019FC000730012B08D1012C40F034813A46029972
:101A0C0005EB0900FFF710F909F10109B9F1050F10
:101A1C00A244E8D108F10108B8F1080FA344DCD1C5
:101A2C00D5E0B3464FF00008AA464FF0000908EB8A
:101A3C0006030293174AC8EBC903134493F9073002
:101A4C00012B08D1012C40F005813A46029909EB93
:101A5C000500FFF7E9F809F10109B9F1050FA244F6
:101A6C00E8D108F10108B8F1080FA344DCD1AEE0CD
:101A7C0048260008912800081B260008EE250008BF
:101A8C00C1250008942500086C2500084425000891
:101A9C001C250008F4240008B3464FF00008AA46A1
:101AAC004FF0000908EB06030293CF4AC8EBC903B9
:101ABC00134493F90730012B08D1012C40F0C2805C
:101ACC003A46029905EB0900FFF7AEF809F1010956
:101ADC00B9F1050FA244E8D108F10108B8F1080FDB
:101AEC00A344DCD173E0B3464FF00008AA464FF094
:101AFC00000906EB08030293BC4AC8EBC903134464
:101B0C0093F90730012B08D1012C40F093803A4611
:101B1C00029905EB0900FFF787F809F10109B9F102
:101B2C00050FA244E8D108F10108B8F1080FA3444D
:101B3C00DCD14CE0AB464FF00009B2464FF0000848
:101B4C00AB4B4B44029305EB09030393029A08EB4E
:101B5C008803D356012B07D1012C63D13A4608EBED
:101B6C0006010398FFF760F808F10108B8F1080FB7
:101B7C00A244EBD109F10109B9F1050FA344DCD161
:101B8C0025E0AB464FF00009B2464FF00008994BE8
:101B9C004B44029309EB05030393029A08EB880369
:101BAC00D356012B07D1012C2CD13A4608EB060158
:101BBC000398FFF739F808F10108B8F1080FA244AF
:101BCC00EBD109F10109B9F1050FA344DCD105B042
:101BDC00BDE8F08F4FF00508B24608275146CDF806
:101BEC000090234622462846013FFFF75DF917F087
:101BFC00FF07A244F2D108F1FF3818F0FF08254482
:101C0C00EAD1E4E700972346224651465846FFF7AF
:101C1C004BF9D0E700972346224651465846FFF72A
:101C2C0043F9DCE500972346224651465846FFF718
:101C3C003BF999E700972346224659465046FFF751
:101C4C0033F96AE700972346224659465046FFF778
:101C5C002BF93BE700972346224659465046FFF79F
:101C6C0023F9F8E600972346224659465046FFF7DB
:101C7C001BF9C9E600972346224659465046FFF702
:101C8C0013F99AE600972346224659465046FFF729
:101C9C000BF96BE600972346224651465846FFF750
:101CAC0003F93CE600972346224651465846FFF777
:101CBC00FBF80CE600972346224651465846FFF7A0
:101CCC00F3F8DCE500972346224651465846FFF7C9
:101CDC00EBF8ACE500972346224651465846FFF7F1
:101CEC00E3F854E500972346224651465846FFF741
:101CFC00DBF810E500972346224651465846FFF77D
:101D0C00D3F8E0E400972346224651465846FFF7A5
:101D1C00CBF8B0E400972346224651465846FFF7CD
:101D2C00C3F880E400972346224651465846FFF7F5
:101D3C00BBF850E400972346224651465846FFF71D
:101D4C00B3F820E400972346224651465846FFF745
:101D5C00ABF8FFF7F0BB0097234622465146584696
:101D6C00FFF7A2F8FFF7BFBB009723462246514668
:101D7C005846FFF799F8FFF78EBB0097234622468B
:101D8C0051465846FFF790F8FFF75DBB0097234686
:101D9C00224651465846FFF787F8FFF718BB0097C5
:101DAC002346224651465846FFF77EF8FFF7E6BA1F
:101DBC0000972346224651465846FFF775F8FFF721
:101DCC00B4BA00972346224659465046FFF76CF8A2
:101DDC00FFF782BA00972346224659465046FFF732
:101DEC0063F8FFF751BA00BFCC240008A424000804
:101DFC00B0270008FC2600080097234622465946C7
:101E0C005046FFF751F8FFF717BA009723462246C2
:101E1C0059465046FFF748F8FFF7E6B900972346B6
:101E2C00224659465046FFF73FF8FFF7B5B90097E1
:101E3C002346224659465046FFF736F8FFF784B939
:101E4C0000972346224659465046FFF72DF8FFF7D8
:101E5C0053B900BFF0B50A2885B00BD10022204B36
:101E6C001A80204A204B1978138803EBC103138086
:101E7C0005B0F0BD0D28FBD01C4B194C1A781A4D2F
:101E8C00184B82B10621B4F900202E7801FB0621F3
:101E9C00174AB2F90020914205DD002222801A88EF
:101EAC0002EBC6021A802F781249134EB3F9003098
:101EBC00368809880397114FB4F900203F880297A0
:101ECC000F4F3F888DE881003046FFF783F82B7861
:101EDC00228803EB430302EB43032380C8E700BFD4
:101EEC006A000020500000206D0000206C000020D3
:101EFC0066000020080000200A0000207E00002060
:101F0C008000002038B50446FEF71AF92518AC42BB
:101F1C0000D138BD14F8010BFFF79CFFF7E7000068
:101F2C002DE9F04F04231F244FF0100B4FF4FC67E6
:101F3C00DFF834A1DFF83491DFF83481404E414DA5
:101F4C0085B04148AAF800B0A9F800B0A8F8004044
:101F5C002B7003933780FFF7D5FF4622039B3B483A
:101F6C00AAF800B0A9F80020A8F800402B70378020
:101F7C00FFF7C8FF00942D23B9223E210A20FEF75B
:101F8C0099FEB7223F2100942B230B20FEF792FEE3
:101F9C009423AAF800B04FF0020B2D48A9F800309A
:101FAC000393A8F80040378085F800B0FFF7AAFF2C
:101FBC008222039BA8F80040264C2748A9F8003041
:101FCC00AAF80020378085F800B0FFF79BFF236844
:101FDC00B3F5A07FACBF0023013323601F4B1B68FC
:101FEC00973BB3F5AE7F28D86FF443721C4B1B683C
:101FFC001344B3F5277F20D800224FF40051194821
:10200C00FEF73CFA4FF4784320680422C0F5A07028
:10201C00009364211E2300B2FEF746FF4FF4FC63CD
:10202C0020680422C0F5A270009364211E2300B224
:10203C00FEF73AFF05B0BDE8F08F0122DDE700BFE7
:10204C007E0000206D0000205D2A00086B2A00082D
:10205C00732A00083C000020762A0008400000206B
:10206C0044000020001001406A00002050000020B5
:10207C008000002008B5FEF7E1FCFEF7AFFCFEF790
:10208C00BDFCFEF7EBFCFEF7E1FCBDE80840FEF7FB
:10209C00E5BC00001FB500220323022001218DE8BE
:1020AC000F0069460248FEF709F905B05DF804FB1C
:1020BC00000801401FB500220323042001218DE8F4
:1020CC000F0069460248FEF7F9F805B05DF804FB0D
:1020DC000008014038B50024FFF7DCFFFFF7EAFFEA
:1020EC00FFF7C8FF0D4B0E4D1C804FF48153A421FC
:1020FC000C482B80FEF726FD2B880B4AC3F30033CC
:10210C0020461380FEF700FD0320FEF7F7FDBDE827
:10211C0038404FF4FC60FEF749BF00BF6800002058
:10212C004E000020002400085800002080B588B024
:10213C00FEF732F8FEF71AFC384B4FF4C0419A699F
:10214C00374842F010029A619A69012502F0100298
:10215C000092009A9A69002442F020029A619A69CE
:10216C00022602F020020192019A9A69032742F09A
:10217C0004029A619A6902F004020292029A9A6924
:10218C0042F008029A619B69002203F00803039352
:10219C00039BFEF773F900221F212248FEF76EF90C
:1021AC0000224FF47F612048FEF768F94FF4C043DA
:1021BC0004A91B480493059506940796FEF77EF830
:1021CC00192304A917480493059506940797FEF75D
:1021DC0075F8062304A913480493059506940796ED
:1021EC00FEF76CF84FF4466304A90F480493059569
:1021FC0006940796FEF762F84FF464730A4804A934
:10220C000493059506940797FEF758F841F2892038
:10221C00FFF760FFFFF784FEFCE700BF00100240F1
:10222C000010014000080140000C0140254B07B58F
:10223C009A69032042F001029A619A6902F0010244
:10224C000092009ADA6942F08052DA61DB6903F09D
:10225C0080530193019BFDF7C3FF00226FF00B002D
:10226C001146FDF7CFFF00226FF00A001146FDF773
:10227C00C9FF00226FF009001146FDF7C3FF0022D1
:10228C006FF004001146FDF7BDFF00226FF0030054
:10229C001146FDF7B7FF00226FF001001146FDF764
:1022AC00B1FF00224FF0FF301146FDF7ABFF064A9D
:1022BC00536823F0E06343F00073536003B05DF8A0
:1022CC0004FB00BF00100240000001407047FEE715
:1022DC00FEE7FEE7FEE770477047704708B5FDF76D
:1022EC006DFFBDE80840FDF7E4BF00000F4B1A6816
:1022FC0042F001021A6059680D4A0A405A601A6885
:10230C0022F0847222F480321A601A6822F480223D
:10231C001A605A6822F4FE025A604FF41F029A6047
:10232C004FF00062034B9A60704700BF00100240F0
:10233C000000FFF800ED00E0002103E00B4B5B58C0
:10234C00435004310A480B4B42189A42F6D30A4ABE
:10235C0002E0002342F8043B084B9A42F9D3FFF702
:10236C00C5FF00F00FF8FFF7E1FE7047942A000854
:10237C00000000202000002020000020840000200D
:10238C00FEE7000070B500250C4E0D4CA41BA410EC
:10239C00A54209D100F01AF800250A4E0A4CA41BDC
:1023AC00A410A54205D170BD56F8253098470135CB
:1023BC00EEE756F8253098470135F2E78C2A0008ED
:1023CC008C2A00088C2A0008902A0008F8B500BF57
:1023DC00F8BC08BC9E467047F8B500BFF8BC08BCFA
:0423EC009E46704752
:1023F00002030405060708090A0B0C0D0E0F101046
:10240000000001000300A4A80C0000000D000C084F
:102410000E00002B1E00B70001003F2B020000043D
:1024200010000000110070600500000006000000B0
:1024300016001CEF17000300070033020B0000001A
:102440000F000000410000004200000048000000B2
:1024500049003F014A0000004B000000440095EF96
:102460004500000046003F0130000707310004022C
:10247000320004023300020534000705350004026F
:1024800036000402370002053A0002033B00020353
:102490002300000024000000250000804F00000001
:1024A0004E000000000001010101010000010001D7
:1024B0000000000100010000010000010001000017
:1024C0000001000100000101010101000000000005
:1024D00000000000000100000000010000010101F7
:1024E00001010101000100000000000000000000E7
:1024F00000000000000100000000010000010100D8
:1025000000000001000100010000000100010000C6
:1025100001000001000100000001010000000100B5
:1025200000000001000100000000000100010000A7
:102530000001000100010000010001010000010193
:102540000000000100000001010000000000000187
:102550000001000000000001000001000001010175
:102560000101010100000001000000000000010065
:102570000001010100010000000100010001000054
:102580000001000100010000000100010000010144
:102590000100000100010101010100000000010033
:1025A0000000000101010100010000000101000024
:1025B0000001010000000100010101000000000015
:1025C0000001010101010000000001000000010004
:1025D00000000100000000010000000100000000F8
:1025E00001000000010000000000000000000001E8
:1025F00001010001000000010100000001000101D3
:1026000001000100000001010000000101000000C4
:1026100001000101010000000000000001010100B3
:1026200001000000010100000001000101010000A3
:102630000000000100000000010100000001000195
:102640000101000000000000000001000000010086
:102650000100010000000101000000010100000074
:102660000101010101010100000001010000000160
:102670000000000000010101010001000000010153
:102680000000000101010101000100000001010042
:102690000000010100000001010101010000000033
:1026A0000000000101010001000000010100000024
:1026B0000001000000000100000000010000000017
:1026C0000100000001000101010000000000000104
:1026D00001010101010000000001000000000101F2
:1026E00001010001000000000100000000010000E5
:1026F00000000101010101000000000000000100D4
:1027000000000001000000000100000000010000C6
:1027100000000100000000010000000000000000B7
:1027200000010000000000000001010101010100A2
:102730000000000100000000010101010001000093
:102740000000010000000001000000000100000086
:102750000000000000000100000001010000000175
:10276000010000000101000000010101010101015F
:102770000000000101000000010100000001000054
:102780000000000100000000010000000001000046
:102790000000010000000001000000000100000036
:1027A0000001000000000101010101000000000023
:1027B0000000000000000000000000000000000019
:1027C0000000000001010101010000000000000004
:1027D00000000000000000000000000000000101F7
:1027E00001000100000001010000000101000000E3
:1027F00001010000000101000000010100000001D2
:1028000000010101000000000000010101010001C0
:1028100000000001010000000101000000010101B1
:1028200001010001000000000100000000010000A3
:102830000000000000000000010101000100000094
:102840000101000000000001010100000000000182
:102850000000000001010000000100010101000072
:102860000000000001010101010000010000000062
:102870000100000000010000000001000000000154
:102880000000000001000000000100000000000046
:102890000000000000000000010000000001000036
:1028A0000000000000000000000000000100000027
:1028B0000001000000000000000000000000010016
:1028C0000000010100000001010000000101000002
:1028D00000010100000001010000000101000000F2
:1028E00001000101010000000000000100000001E2
:1028F00000010001000001000100000001000000D3
:1029000000010000000100010000010001000100C1
:1029100000000100000000000100000001000100B3
:1029200001000001000100000001000000000100A2
:102930000000000100000000010000000001000094
:102940000000000000000001000000000000010085
:102950000100010000000100010001000000010071
:10296000010001000000010101010000000001015F
:10297000010101010100010000010000000001004F
:102980000000010000000100000001000000000143
:102990000101000000000001010100000000010031
:1029A0000000010000000100000001000000010023
:1029B0000000010000000001000000000000000114
:1029C0000101000000000100010001000000010001
:1029D00001000100000001000100010000000000F2
:1029E00001010000000000000001000000000101E2
:1029F00001010101000000000001000001000000D1
:102A000000000000010000000000000100000001C3
:102A100001010000000001000000010000000100B1
:102A200000000100000001000000010000000001A2
:102A30000101000000000000000001000000000192
:102A4000010101010100010000000100000001007E
:102A50000000000000000001000000000055664179
:102A60006243205465537445212100426F54614FE5
:102A7000203100583A00593A0000000000000000E0
:0C2A800000010203040607080900000022
:042A8C00310100080C
:042A90000D0100082C
:102A940001000000100000004001F0004400460066
:102AA4004E004F00220044004500000000A24A04EA
:040000050800234587
:00000001FF
