:020000040800F2
:100000000050002081300008FD2F0008FF2F00085D
:10001000013000080330000805300008000000002F
:100020000000000000000000000000000730000891
:1000300009300008000000000B3000080D300008F7
:10004000C9300008C9300008C9300008C9300008AC
:10005000C9300008C9300008C9300008C93000089C
:10006000C9300008C9300008C93000081D30000838
:10007000C9300008C9300008C9300008C93000087C
:10008000C9300008C930000829300008C93000080C
:10009000C9300008C9300008C9300008C93000085C
:1000A000C9300008C9300008C9300008C93000084C
:1000B000C9300008C9300008C9300008C93000083C
:1000C000C9300008C9300008C9300008C93000082C
:1000D000C9300008C9300008C9300008C93000081C
:1000E000C9300008C9300008C9300008000000000D
:1000F0000000000000000000000000000000000000
:0C01000000000000000000005FF808F1A3
:10010C0010B5054C237833B9044B13B10448AFF345
:10011C0000800123237010BD880000200000000027
:10012C008839000808B5034B1BB103490348AFF3EA
:10013C00008008BD000000008C00002088390008F9
:10014C00034613F8012B002AFBD1181A013870470B
:10015C0038B50E4B054618784FF47A73B3FBF0F3B1
:10016C000B4A1068B0FBF3F000F092FB044658B950
:10017C000F2D09D8024629464FF0FF3000F048FBFE
:10018C00044B20461D6038BD012038BD0000002006
:10019C002000002004000020074A08B51368032043
:1001AC0043F01003136000F021FB0020FFF7D0FF99
:1001BC0002F07CFE002008BD00200240034A044BE4
:1001CC0011681B780B441360704700BFB00000200F
:1001DC0000000020014B1868704700BFB0000020E1
:1001EC00436A10B59A6A12F0500F1BD19A6A42F406
:1001FC0000729A621A68926802F46022B2F5602F5B
:10020C000CD1DA6852B99A6A22F480729A629A6AAC
:10021C00D2045EBF9A6A42F001029A62184601F05B
:10022C0035F810BD1B6ABDE810401B6B18477047B2
:10023C0008B5406AFFF7FBFF08BD7047036810B5AF
:10024C005A680446900627D51A68910724D5A26AE5
:10025C00D2065EBFA26A42F40072A2629A6802F4ED
:10026C006022B2F5602F10D1E26872B95A6822F0A0
:10027C0020025A60A36A23F48073A362A36ADB048E
:10028C005EBFA36A43F00103A362204600F0FEFFA9
:10029C006FF0120223681A6023685A68100630D572
:1002AC001A6851072DD5A26AD2065EBFA26A42F423
:1002BC000052A2629A6802F4E042B2F5E04F0AD012
:1002CC005A68500516D49A6802F46022B2F5602F71
:1002DC0010D1E26872B95A6822F080025A60A36A9F
:1002EC0023F48053A362A36AD9055EBFA36A43F0CB
:1002FC000103A362204600F077FA6FF00C0223682A
:10030C001A6023685A6852060DD51B68DB070AD59C
:10031C00A36A204643F48033A362FFF78EFF6FF08D
:10032C00010223681A6010BD7047406A08B5836AE1
:10033C0043F040038362C36A43F00403C362FFF7D4
:10034C00F3FF08BD002373B5019390F82430012B03
:10035C0074D001234D6880F82430062D02684FEAD2
:10036C0085030C6825D82B441F25566B053B9D40F7
:10037C0026EA050504FA03F32B435363092C4FEAD1
:10038C0044038D682FD907262344D1681E3B9E4019
:10039C0021EA060105FA03F30B43D360A4F1100321
:1003AC00012B2BD90023002280F82420184602B000
:1003BC0070BD0C2D0BD82B441F25166B233B9D4079
:1003CC0026EA050504FA03F32B431363D6E72B4403
:1003DC001F25D66A413B9D4026EA050504FA03F326
:1003EC002B43D362CAE70726116923449E4021EAB6
:1003FC00060105FA03F30B431361CFE7104B9A4246
:10040C0016D193681B02CDD49368102C43F40003CF
:10041C009360C7D10B4B0C4A1B68B3FBF2F20A2357
:10042C0053430193019B002BBCD0019B013BF8E78C
:10043C00836A43F0200383620123B4E70223B5E708
:10044C00002401402000002040420F00002373B51F
:10045C000193036804469A68D20702D5002002B0C3
:10046C0070BD9A6842F001029A60124B124A1B68E6
:10047C00B3FBF2F30193019BC3B9FFF7ABFE064646
:10048C0023689D6815F00105E8D1FFF7A3FE801BDA
:10049C000228F5D9A36A84F8245043F01003A36210
:1004AC00E36A012043F00103E362D8E7019B013BBF
:1004BC00E0E700BF2000002040420F0090F82430FD
:1004CC0010B5012B044658D0012380F82430FFF7D7
:1004DC00BDFF00284DD1A36A294A23F4706323F091
:1004EC00010343F48073A3622368934204D125492A
:1004FC004A6812F4702F32D1A26A22F48012A262DE
:10050C005A68520541BFA26A22F4405242F480520A
:10051C00A262A26A12F480521CBFE26A22F00602A6
:10052C00E262002284F824206FF002021A605A68FA
:10053C0042F020025A609A6802F46022B2F5602FF1
:10054C0013D10F4A934205D1A2F58062526812F47E
:10055C00702F0AD19A6842F4A0029A6010BDA26A68
:10056C0042F48012A2624A68CBE79A6842F4801285
:10057C00F3E7002384F8243010BD022010BD00BF27
:10058C0000280140002401402DE9D8419046404B01
:10059C00026804469A420F4602D03E498A4203D171
:1005AC005B6813F4702F6ED194F82430012B6CD04F
:1005BC000123204684F82430FFF748FF0646002824
:1005CC005DD1A06A216820F47060324B20F00100EC
:1005DC0040F480709942A06204D12D4A536813F400
:1005EC00702F3ED1A36A23F48013A3624B685A0583
:1005FC0005D5A36A23F4405343F48053A362A36A42
:10060C00206A13F4805318BFE36A3A4618BF23F0EC
:10061C000603E362002384F824301F4B4C318362C1
:10062C001E4BC3621E4B03636FF0020341F84C3C3C
:10063C0051F8443C43F4807341F8443C434600F089
:10064C0083F923689A6802F46022B2F5602F9A68E5
:10065C000CBF42F4A00242F480129A603046BDE80E
:10066C00D881A36A43F48013A36253685B0541BF2E
:10067C00A06A20F4405040F48050A062BFE70023F1
:10068C0084F82430EAE70126E8E70226E6E700BF13
:10069C000024014000280140ED0100083D02000843
:1006AC003703000838B5036804469A68D20701D4AA
:1006BC00002038BD9A6822F001029A60FFF78AFD8B
:1006CC00054623689B68DB07F2D5FFF783FD401BCB
:1006DC000228F6D9A36A012043F01003A362E36A4F
:1006EC0043F00103E36238BD70B50446002871D0B5
:1006FC00836A23B9C36280F8243002F027FC2046B9
:10070C00FFF7D0FFA36A13F0100FA36A64D100287F
:10071C0062D1E16923F48853626823F0020343F049
:10072C0002030A43A168A362E368B1F5807F42EA41
:10073C00430238D0012914BF06464FF48076656910
:10074C00012D07D1002B30D1A369013B46EA43357B
:10075C0045F400662368B1F5807F5D6825F4694532
:10076C0045EA06055D609E681D4D05EA060545EAED
:10077C0002059D6001D0012920D1216901390905AB
:10078C00DD6A25F470052943D9629968154B0B4035
:10079C009A4215D10023E362A36A23F0030343F0CA
:1007AC000103A36270BD0E46C9E7A36A43F02003A0
:1007BC00A362E36A43F00103E362CBE70021DFE7C6
:1007CC00A36A23F0120343F01003A362E36A43F01D
:1007DC000103E362012070BD43F01003A362F9E74B
:1007EC00FDF7E1FFFE0E1FFF70470000074A0002F5
:1007FC00D36800F4E06023F4E0631B041B0C43F0AB
:10080C00BF6343F400330343D360704700ED00E053
:10081C00174B30B5DC68C4F30224C4F10703251D63
:10082C00042B28BF0423062D4FF0010598BF00248C
:10083C0005FA03F303F1FF3388BF033C1940A140D1
:10084C0005FA04F4013C2240002842EA01024FEA76
:10085C000212AFBF00F16040064B00F00F00D2B2A5
:10086C00A5BFD2B200F561401A5480F8002330BD08
:10087C0000ED00E014ED00E00123420900F01F0040
:10088C0003FA00F0014B43F82200704700E100E04E
:10089C000138B0F1807F0AD2F021064B064A58602D
:1008AC0082F823100020072298601A6070470120FC
:1008BC00704700BF10E000E000ED00E0044B04289E
:1008CC001A680CBF42F0040222F004021A6070474E
:1008DC0010E000E0704708B5FFF7FCFF08BD000012
:1008EC0010B550B314220168154B84680B44B3FB4C
:1008FC00F2F39B000364134B0A68C363436822F44E
:10090C007F522343C46822F03002234304692343FB
:10091C004469234384692343C469234313430B6011
:10092C000122002380F821208362C36203634363A6
:10093C00836380F82030184610BD012010BD00BF25
:10094C00F8FFFDBF00000240F0B590F82040012CEC
:10095C0035D0012490F8215080F82040A5424FF06A
:10096C0000064FF0020428D180F821400468866309
:10097C002668076C26F001062660C66BBD407560C4
:10098C00636043680568102BC36A0BBFA260A1604B
:10099C00E160E2604BB1236843F00E0323602B68E7
:1009AC00002043F001032B60F0BD236823F0040307
:1009BC002360236843F00A03F0E780F820600220EC
:1009CC00F0BD000070B40425C66B026C346803687B
:1009DC0095402542196832D04D0730D51A689606D5
:1009EC005EBF1A6822F004021A603E4A934219D084
:1009FC001432934218D01432934217D014329342CB
:100A0C0017D01432934217D0143293420CBF4FF4C8
:100A1C0080034FF08063344A5360C36A002B5ED06E
:100A2C0070BC18470423F6E74023F4E74FF48063C7
:100A3C00F1E74FF48043EEE74FF48023EBE7022518
:100A4C009540254235D08D0733D51A68940606D4C7
:100A5C001A6822F00A021A60012280F82120214A29
:100A6C00934219D01432934218D01432934217D0B7
:100A7C001432934217D01432934217D0143293424B
:100A8C000CBF4FF400134FF00073174A5360002350
:100A9C0080F82030836AC1E70223F6E72023F4E7CD
:100AAC004FF40073F1E74FF40053EEE74FF40033CB
:100ABC00EBE708259540254211D009070FD5196899
:100ACC0021F00E011960012303FA02F272608363B4
:100ADC0080F82130002380F82030036B9EE770BC37
:100AEC00704700BF08000240000002402DE9F74F9C
:100AFC0000221646654BDFF8A4E1DFF8A4C14FF0E5
:100B0C0001080C6808FA06F808EA0404A0457FD12D
:100B1C004D68122D00F0AF8000F28880022D00F09D
:100B2C00A7807CD8002D00F08E80012D00F09E80D7
:100B3C004FF00F09FF2C93BF824606F18045083D0C
:100B4C00D0F800B092BFB500D0F804B0AD0009FAEF
:100B5C0005F82BEA080802FA05F588BF00F1040A2B
:100B6C0048EA0505CAF80050D1F804A01AF0805FD5
:100B7C004ED0474D464FAD6926F0030845F00105B0
:100B8C00BD61BD6908F1804805F00105019508F5C6
:100B9C00803806F0030B019D4FEA8B0BD8F80850F8
:100BAC0009FA0BF925EA09093A4DA84268D005F56E
:100BBC008065A84266D005F58065A84264D005F52D
:100BCC008065A8420CBF0325042505FA0BF545EA00
:100BDC000905C8F808501D681AF4803F14BF254356
:100BEC00A5431D605D681AF4003F14BF2543A5435F
:100BFC005D609D681AF4801F14BF2543A5439D605A
:100C0C00DD681AF4001F14BF2C4325EA0404DC60D1
:100C1C000136102E7FF473AF03B0BDE8F08F032DB7
:100C2C0022D0112D84D1CA68043281E71A4FBD42FB
:100C3C0009D012D8DFF86C904D4504D009F58039F5
:100C4C004D457FF475AF8A68C2B1012A0CBFC0F85C
:100C5C001080C0F8148008226AE77545F3D065450A
:100C6C00F1D0DFF84490EBE7002261E7CA685FE758
:100C7C00CA6808325CE7CA680C3259E7042257E7A5
:100C8C000025A2E70125A0E702259EE7000401400C
:100C9C00001002400008014000002110000031103B
:100CAC000000321000001110000022100AB1016186
:100CBC0070470904FBE7000003682DE9F341DB07EB
:100CCC00054610D42B689F075ED42B68190700F1DA
:100CDC0095802B685A0700F1BF80EA69002A40F022
:100CEC002D81002014E0904C636803F00C03042B5E
:100CFC0007D0636803F00C03082B0CD16368DE0388
:100D0C0009D523689C03DDD56B68002BDAD1012053
:100D1C0002B0BDE8F0816B68B3F5803F10D1236859
:100D2C0043F480332360FFF755FA06462368980393
:100D3C00C8D4FFF74FFA801B6428F7D90320E7E7E4
:100D4C009BB9236823F480332360236823F4802326
:100D5C002360FFF73FFA064623689903B2D5FFF7E5
:100D6C0039FA801B6428F7D9E8E7B3F5A02F23687C
:100D7C0003D143F480232360D1E723F48033236031
:100D8C00236823F48023CDE7674C636813F00C0FC2
:100D9C0007D0636803F00C03082B10D16368DA03E7
:100DAC000DD423689B0702D52B69012BAFD1236887
:100DBC006A6923F0F80343EAC203236085E72A69D2
:100DCC005A4B6AB101221A60FFF704FA06462368EF
:100DDC009F07ECD4FFF7FEF9801B0228F7D9ADE78B
:100DEC001A60FFF7F7F90646236898077FF56DAF91
:100DFC00FFF7F0F9801B0228F6D99FE7AA694A4C45
:100E0C004B4BDAB101221A60FFF7E4F90646636A2C
:100E1C009B070DD54FF4FA52464B1B68B3FBF2F30C
:100E2C00019300BF019B5A1E0192002BF9D150E790
:100E3C00FFF7D0F9801B0228E9D97FE71A60FFF78A
:100E4C00C9F90646636A9F077FF543AFFFF7C2F9FE
:100E5C00801B0228F6D971E7334CE369D80024D4FF
:100E6C000127E36943F08053E361E36903F08053A6
:100E7C000093009B304E3368D90518D5EB68012BD5
:100E8C0026D1236A43F001032362FFF7A3F941F251
:100E9C0088368046236A9B073FD5002F3FF41DAF51
:100EAC00E36923F08053E36117E70027E2E7336837
:100EBC0043F480733360FFF78DF980463368DA05AD
:100ECC00DCD4FFF787F9A0EB08006428F6D935E7E6
:100EDC00ABB9236A41F2883823F001032362236AF9
:100EEC0023F004032362FFF775F90646236A98077B
:100EFC00D3D5FFF76FF9801B4045F7D91EE7052BBB
:100F0C00236A03D143F004032362BAE723F00103FD
:100F1C002362236A23F00403B6E7FFF75BF9A0EB27
:100F2C000800B042B6D909E7001002400000424266
:100F3C00800442422000002000700040224C636874
:100F4C0003F00C03082B3FF4E2AE00231F4E022AE1
:100F5C0033602BD1FFF73EF90746236899011FD464
:100F6C002B6AB3F5803F05D16268A96822F4003280
:100F7C000A436260696A62680B4322F47412134379
:100F8C00636001233360FFF725F9054623689A0156
:100F9C003FF5A7AEFFF71EF9401B0228F6D9CDE6A8
:100FAC00FFF718F9C01B0228D7D9C7E6FFF712F9CB
:100FBC00054623689B017FF594AEFFF70BF9401BA8
:100FCC000228F6D9BAE600BF001002406000424287
:100FDC0030B5194B87B002AC03F1100522461868E6
:100FEC005968083303C2AB421446F7D101238DF87C
:100FFC000430022311498DF805304B6803F00C02C4
:10100C00082A17D1C3F3834206A80244DB0312F863
:10101C00102C0CD54B680A48C3F34043504306AA26
:10102C00134413F8143CB0FBF3F007B030BD054883
:10103C005043FAE70248F8E7A039000800100240D4
:10104C0000127A0000093D004D4A2DE9F041136869
:10105C00054603F007038B420E4628D32A689107F6
:10106C0032D4D20738D4464A136803F007039E42A1
:10107C0073D32A68434C12F0040F79D1130706D5A9
:10108C0063682A6923F4605343EAC2036360FFF781
:10109C009FFF63683C4AC3F30313D35CD8403B4BBC
:1010AC0018600020FFF754F80020BDE8F0811368A9
:1010BC0023F007030B431360136803F007039942F3
:1010CC00CCD00120BDE8F0812E49A8684B6823F0F4
:1010DC00F00303434B60C4E76A682A4C012A236877
:1010EC001CD113F4003FECD0636841F2883823F034
:1010FC00030313436360FFF76DF86B680746012B1E
:10110C0014D1636803F00C03042BACD0FFF762F826
:10111C00C01B4045F5D90320BDE8F081022A02D15D
:10112C0013F0007FDFE713F0020FDCE7022B0FD187
:10113C00636803F00C03082B95D0FFF74BF8C01B2A
:10114C004045F5D9E7E7FFF745F8C01B4045E2D825
:10115C00636813F00C0FF6D185E7136823F00703CF
:10116C0033431360136803F007039E42A9D180E751
:10117C006368E96823F4E0630B4363607EE700BFB8
:10118C0000200240001002402B40000820000020EC
:10119C00014B1868704700BF2000002003682DE940
:1011AC00F341D907054620D5354CE369DA0032D432
:1011BC000127E36943F08053E361E36903F0805353
:1011CC000193019B2F4E3368DB0526D5236A13F45C
:1011DC00407336D1236A6A6823F440731343236245
:1011EC001FB1E36923F08053E3612868830706D5B8
:1011FC00234AA968536823F440430B43536010F00F
:10120C0010001BD01E4AE9685368002023F48003A9
:10121C000B43536012E00027D4E7336843F4807328
:10122C003360FEF7D7FF80463368D805CED4FEF77F
:10123C00D1FFA0EB08006428F6D9032002B0BDE86A
:10124C00F0816A6802F440729342C3D001200E4AC6
:10125C00236A1060002023F4407110602162D907CA
:10126C00B8D5FEF7B7FF41F288380646236A9A07CD
:10127C00B0D4FEF7AFFF801B4045F7D9DDE700BFC8
:10128C000010024000700040400442420268084BCB
:10129C009A420CD1074B084A196811605968074AE1
:1012AC0011609A68064B1A600022064B1A60704750
:1012BC000024014050010020BC000020C40000208C
:1012CC00640100201C0000204FF4803310B594B052
:1012DC0001220B930021022412934FF4E0130AA86D
:1012EC000A920C910E9211941393FFF7E5FC00B146
:1012FC00FEE70F2305934FF4806307900990214676
:10130C0005A806940893FFF79FFE00B1FEE74FF483
:10131C00004301A801940393FFF740FF044600B17A
:10132C00FEE7FFF735FF4FF47A73B0FBF3F0FFF7EE
:10133C00AFFA0420FFF7C2FA224621464FF0FF30E5
:10134C00FFF766FA14B010BD012202481146FFF7F0
:10135C00ADBC00BF00080140002202210148FFF78C
:10136C00A5BC00BF00080140012202210148FFF783
:10137C009DBC00BF00080140002204210148FFF77A
:10138C0095BC00BF00080140012204210148FFF771
:10139C008DBC00BF00080140002208210148FFF766
:1013AC0085BC00BF00080140012208210148FFF75D
:1013BC007DBC00BF00080140002210210148FFF74E
:1013CC0075BC00BF00080140012210210148FFF745
:1013DC006DBC00BF0008014008B5FFF7BDFFBDE8BC
:1013EC000840FFF7C1BF00004FF07F63074A084970
:1013FC001361030203F4407300F0FC000B800549F9
:10140C0003439B0008801361704700BF000C014030
:10141C005C010020C800002008B5FFF7E5FFFFF7CE
:10142C00DBFFBDE80840FFF79FBF10B50446000A7C
:10143C00FFF7F2FFE0B2BDE81040FFF7EDBF10B5CB
:10144C000446FFF799FF2046FFF7EFFFBDE8104079
:10145C00FFF79ABF38B505460C46FFF79DFF2846A7
:10146C00FFF7EDFF2046FFF7E0FFBDE83840FFF740
:10147C009BBF00000B4B19880B4BC1F3003181EA69
:10148C0000021A80094A814213884FF0010023F4AC
:10149C0000539BB218BF43F4005313801188FFF71D
:1014AC00D9BF00BFB6000020C0000020B40000204F
:1014BC0070B506460D460024002D00DC70BD06EB11
:1014CC00440336F814005988043D0234FFF7C2FF78
:1014DC002DB224B2F0E70B4649428A420BDD9A4208
:1014EC00A8BF0022104481B2002ABCBFC91889B21F
:1014FC004120FFF7AFBF0022F4E70000F8B50E461D
:10150C00174604461D461B4B81B21888FFF7A2FFF5
:10151C00194BB1B21888FFF79DFFBC4201D1AE4206
:10152C0026D0164B1B889A060CD5154B1B78DB075F
:10153C004BBF46EA052544EA07242EB224B24CBF21
:10154C00354627460F48A1B20088FFF783FF0E48A7
:10155C00B1B20088FFF77EFF0C4AB9B21088FFF7D2
:10156C0079FF0B4BA9B21888BDE8F840FFF772BFA2
:10157C00F8BD00BF1000002012000020B6000020B3
:10158C004001002016000020180000200C00002054
:10159C000E00002038B51446021E0B4612DB002943
:1015AC0010DB094D2D88AA420CDA084D2D88A94272
:1015BC0008DAFFF7A3FF064B21461888BDE8384030
:1015CC00FFF748BF38BD00BF0A000020080000200C
:1015DC00140000205D4B70B55D4C1D8800F00303BA
:1015EC0010F00100237000F09380F021594A022B77
:1015FC0011804FF4A071584A118005D0032B6FD085
:10160C00012B6FD1282300E098234E21534A1180DF
:10161C004F21534A11802221524A118044225249AF
:10162C000A8052490A804521514A11804621514A6B
:10163C00118008B183F0D00313F0800F14BF4FF466
:10164C00A042002213F0400F14BF4FF40070002092
:10165C0040F23F1113F0200F14BF0826002642EA77
:10166C00000341EA4531194341F40061424B89B210
:10167C0001201980FFF7EEFE46F4C04141F07001E5
:10168C001120FFF7E7FE2378DA0715D53B4B1B88B3
:10169C005B0511D4314A324B11881888198010809F
:1016AC00334B314A18881188108019802F4A314BDE
:1016BC0011881888198010800021264C264A23880E
:1016CC001288013B013A084612B21BB2FFF716FF13
:1016DC000022B4F900101046BDE87040FFF7FBBEC5
:1016EC00F82392E74E221D4B1A804F221C4B1A8076
:1016FC0022221C4B1A8044231B4A13801B4A138042
:10170C0045221B4B1A8046221A4B1A80482391E71C
:10171C00022B3FF479AF032BE2D0012B3FF472AFD5
:10172C004E220E4B1A804F220D4B1A8022220D4B4B
:10173C001A8044230C4A13800C4A138045220C4B0C
:10174C001A8046220B4B1A80482375E7C0000020F4
:10175C0040010020080000200A000020100000209A
:10176C001200002014000020160000200C000020A5
:10177C00180000200E000020B4000020B60000204D
:10178C002DE9F047002ABDF8209004DA95B26A42A0
:10179C00284412B200B2354D02442E8812B2B24225
:1017AC00C8BF32B220EAE07092B2161A002B36B2E1
:1017BC0004DA9FB27B4239441BB209B22C4F0B4462
:1017CC00B7F800E01BB27345C8BF0FFA8EF321EADD
:1017DC00E1719BB2A3EB0108013A013B1BB212B2BF
:1017EC00FFF78CFEFFF7D8FD224B0FFA88F818880C
:1017FC00FFF725FE4645BEBF3346464698464FEAA0
:10180C00192A5FFA89F91FFA88F80FFA88F3002B66
:10181C001BDCFFF7C9FD184B1B88DA0709D5174BE2
:10182C001A8841F226539A421DD1154B1B78DB07BF
:10183C0019D500213B882A88013B013A1BB212B210
:10184C000846BDE8F047FFF759BE34465046013C08
:10185C00FFF7E2FD24B24846FFF7DEFD002CF5D180
:10186C0008F1FF38CFE7BDE8F08700BF0A00002081
:10187C000800002014000020B600002042010020C7
:10188C004001002007B50021064B074AB3F9003090
:10189C00B2F9002000900846FFF772FF03B05DF824
:1018AC0004FB00BF080000200A0000202DE9F04FC7
:1018BC00824285B015461E46BDF83C70BDF840907E
:1018CC009DF8444080F2EF858B4280F2EC85062334
:1018DC0003FB0423002B40F3E68506EBC403002B2B
:1018EC0040F3E1859DF83830213B532B00F2DE8527
:1018FC00DFE813F0B305DC05DC05DC05DC05DC05F5
:10190C00DC05DC05DC05DC05DC05DC058C05DC0513
:10191C00DC0565053E050305DC04B5048E04660490
:10192C003E041604EE03C603DC05DC05DC05DC0511
:10193C00DC05DC059E0362033A03DC051203EA02B4
:10194C00DC05C202DC05DC05DC059A02DC05DC05E5
:10195C0072024A02DC05DC052202FA01BE01DC053A
:10196C00DC0595016C01DC05DC05DC05DC05DC0522
:10197C00DC05DC0544011C01F400DC05CC00A400F2
:10198C00DC05DC05DC05DC05DC05DC05DC05DC0543
:10199C007C00DC05DC05DC05DC055400B3464FF0AF
:1019AC000008AA464FF0000908EB06030293C44A4C
:1019BC00C8EBC903134493F90730012B08D1012C50
:1019CC0040F0AA863A46029909EB0500FFF7E2FDC2
:1019DC0009F10109B9F1050FA244E8D108F1010898
:1019EC00B8F1080FA344DCD100F05DBDB3464FF055
:1019FC000008AA464FF0000908EB06030293B14A0F
:101A0C00C8EBC903134493F90730012B08D1012CFF
:101A1C0040F079863A46029909EB0500FFF7BAFDCA
:101A2C0009F10109B9F1050FA244E8D108F1010847
:101A3C00B8F1080FA344DCD100F035BDB3464FF02C
:101A4C000008AA464FF0000908EB060302939E4AD1
:101A5C00C8EBC903134493F90730012B08D1012CAF
:101A6C0040F048863A46029909EB0500FFF792FDD3
:101A7C0009F10109B9F1050FA244E8D108F10108F7
:101A8C00B8F1080FA344DCD100F00DBDB3464FF004
:101A9C000008AA464FF0000908EB060302938B4A94
:101AAC00C8EBC903134493F90730012B08D1012C5F
:101ABC0040F017863A46029909EB0500FFF76AFDDC
:101ACC0009F10109B9F1050FA244E8D108F10108A7
:101ADC00B8F1080FA344DCD100F0E5BCB3464FF0DD
:101AEC000008AA464FF0000908EB06030293784A57
:101AFC00C8EBC903134493F90730012B08D1012C0F
:101B0C0040F0E6853A46029909EB0500FFF742FDE5
:101B1C0009F10109B9F1050FA244E8D108F1010856
:101B2C00B8F1080FA344DCD100F0BDBCB3464FF0B4
:101B3C000008AA464FF0000908EB06030293654A19
:101B4C00C8EBC903134493F90730012B08D1012CBE
:101B5C0040F0AC853A46029909EB0500FFF71AFDF7
:101B6C0009F10109B9F1050FA244E8D108F1010806
:101B7C00B8F1080FA344DCD100F095BCB3464FF08C
:101B8C000008AA464FF0000908EB06030293524ADC
:101B9C00C8EBC903134493F90730012B08D1012C6E
:101BAC0040F07B853A46029909EB0500FFF7F2FC01
:101BBC0009F10109B9F1050FA244E8D108F10108B6
:101BCC00B8F1080FA344DCD100F06DBCAB464FF06C
:101BDC000009B2464FF00008404B4B44029309EB0E
:101BEC0005030393029A08EB8803D356012B08D103
:101BFC00012C40F049853A4608EB06010398FFF7A3
:101C0C00C9FC08F10108B8F1080FA244EAD109F1A6
:101C1C000109B9F1050FA344DBD100F044BCAB467C
:101C2C004FF00009B2464FF000082D4B4B44029385
:101C3C0009EB05030393029A08EB8803D356012B97
:101C4C0008D1012C40F017853A4608EB06010398A1
:101C5C00FFF7A0FC08F10108B8F1080FA244EAD183
:101C6C0009F10109B9F1050FA344DBD100F01BBC4C
:101C7C00AB464FF00009B2464FF00008194B4B44ED
:101C8C00029309EB05030393029A08EB8803D356DE
:101C9C00012B08D1012C40F0E5843A4608EB0601F3
:101CAC000398FFF777FC08F10108B8F1080FA2447C
:101CBC00EAD109F10109B9F1050FA344DBD1F2E333
:101CCC00E83F0008C03F0008983F0008703F00083C
:101CDC00483F0008203F0008F83E0008CB3E0008B3
:101CEC009E3E0008713E0008AB464FF00009B2461C
:101CFC004FF00008C44B4B44029309EB05030393CC
:101D0C00029A08EB8803D356012B08D1012C40F022
:101D1C00A0843A4608EB06010398FFF73BFC08F158
:101D2C000108B8F1080FA244EAD109F10109B9F18F
:101D3C00050FA344DBD1B6E3AB464FF00009B24626
:101D4C004FF00008B14B4B44029309EB050303938E
:101D5C00029A08EB8803D356012B08D1012C40F0D2
:101D6C006F843A4608EB06010398FFF713FC08F161
:101D7C000108B8F1080FA244EAD109F10109B9F13F
:101D8C00050FA344DBD18EE3AB464FF00009B246FE
:101D9C004FF000089E4B4B44029309EB0503039351
:101DAC00029A08EB8803D356012B08D1012C40F082
:101DBC003E843A4608EB06010398FFF7EBFB08F16B
:101DCC000108B8F1080FA244EAD109F10109B9F1EF
:101DDC00050FA344DBD166E3AB464FF00009B246D6
:101DEC004FF000088B4B4B44029309EB0503039314
:101DFC00029A08EB8803D356012B08D1012C40F032
:101E0C000D843A4608EB06010398FFF7C3FB08F173
:101E1C000108B8F1080FA244EAD109F10109B9F19E
:101E2C00050FA344DBD13EE3AB464FF00009B246AD
:101E3C004FF00008784B4B44029309EB05030393D6
:101E4C00029A08EB8803D356012B08D1012C40F0E1
:101E5C00DD833A4608EB06010398FFF79BFB08F17C
:101E6C000108B8F1080FA244EAD109F10109B9F14E
:101E7C00050FA344DBD116E3AB464FF00009B24685
:101E8C004FF00008654B4B44029309EB0503039399
:101E9C00029A08EB8803D356012B08D1012C40F091
:101EAC00AD833A4608EB06010398FFF773FB08F184
:101EBC000108B8F1080FA244EAD109F10109B9F1FE
:101ECC00050FA344DBD1EEE2AB464FF00009B2465E
:101EDC004FF00008524B4B44029309EB050303935C
:101EEC00029A08EB8803D356012B08D1012C40F041
:101EFC007D833A4608EB06010398FFF74BFB08F18C
:101F0C000108B8F1080FA244EAD109F10109B9F1AD
:101F1C00050FA344DBD1C6E2AB464FF00009B24635
:101F2C004FF000083F4B4B44029309EB050303931E
:101F3C00029A08EB8803D356012B08D1012C40F0F0
:101F4C004D833A4608EB06010398FFF723FB08F193
:101F5C000108B8F1080FA244EAD109F10109B9F15D
:101F6C00050FA344DBD19EE2AB464FF00009B2460D
:101F7C004FF000082C4B4B44029309EB05030393E1
:101F8C00029A08EB8803D356012B08D1012C40F0A0
:101F9C001D833A4608EB06010398FFF7FBFA08F19C
:101FAC000108B8F1080FA244EAD109F10109B9F10D
:101FBC00050FA344DBD176E2AB464FF00009B246E5
:101FCC004FF00008194B4B44029309EB05030393A4
:101FDC00029A08EB8803D356012B08D1012C40F050
:101FEC00ED823A4608EB06010398FFF7D3FA08F1A5
:101FFC000108B8F1080FA244EAD109F10109B9F1BD
:10200C00050FA344DBD14EE2173E0008EA3D000861
:10201C00BD3D0008903D0008363D0008093D000814
:10202C00DC3C0008823C0008553C0008283C0008B9
:10203C00AB464FF00009B2464FF00008C24B4B4480
:10204C00029309EB05030393029A08EB8803D3561A
:10205C00012B08D1012C40F0A9823A4608EB06016D
:10206C000398FFF797FA08F10108B8F1080FA2449A
:10207C00EAD109F10109B9F1050FA344DBD112E250
:10208C00AB464FF00009B2464FF00008AF4B4B4443
:10209C00029309EB05030393029A08EB8803D356CA
:1020AC00012B08D1012C40F021823A4608EB0601A5
:1020BC000398FFF76FFA08F10108B8F1080FA24472
:1020CC00EAD109F10109B9F1050FA344DBD1EAE129
:1020DC00AB464FF00009B2464FF000089C4B4B4406
:1020EC00029309EB05030393029A08EB8803D3567A
:1020FC00012B08D1012C40F051823A4608EB060125
:10210C000398FFF747FA08F10108B8F1080FA24449
:10211C00EAD109F10109B9F1050FA344DBD1C2E100
:10212C00AB464FF00009B2464FF00008894B4B44C8
:10213C00029309EB05030393029A08EB8803D35629
:10214C00012B08D1012C40F021823A4608EB060104
:10215C000398FFF71FFA08F10108B8F1080FA24421
:10216C00EAD109F10109B9F1050FA344DBD19AE1D8
:10217C00AB464FF00009B2464FF00008764B4B448B
:10218C00029309EB05030393029A08EB8803D356D9
:10219C00012B08D1012C40F0F1813A4608EB0601E5
:1021AC000398FFF7F7F908F10108B8F1080FA244FA
:1021BC00EAD109F10109B9F1050FA344DBD172E1B0
:1021CC00AB464FF00009B2464FF00008634B4B444E
:1021DC00029309EB05030393029A08EB8803D35689
:1021EC00012B08D1012C40F0C1813A4606EB0801C5
:1021FC000398FFF7CFF908F10108B8F1080FA244D2
:10220C00EAD109F10109B9F1050FA344DBD14AE187
:10221C00B3464FF00008AA464FF0000908EB06033E
:10222C0002934F4AC8EBC903134493F90730012BAF
:10223C0008D1012C40F092813A46029905EB090035
:10224C00FFF7A8F909F10109B9F1050FA244E8D18A
:10225C0008F10108B8F1080FA344DCD123E1B3461F
:10226C004FF00008AA464FF0000906EB0803029352
:10227C003C4AC8EBC903134493F90730012B08D12E
:10228C00012C40F063813A46029909EB0500FFF7F7
:10229C0081F909F10109B9F1050FA244E8D108F15E
:1022AC000108B8F1080FA344DCD1FCE0B3464FF0B1
:1022BC000008AA464FF0000906EB080302932A4ACD
:1022CC00C8EBC903134493F90730012B08D1012C37
:1022DC0040F034813A46029905EB0900FFF75AF9B0
:1022EC0009F10109B9F1050FA244E8D108F101087F
:1022FC00B8F1080FA344DCD1D5E0B3464FF0000889
:10230C00AA464FF0000908EB06030293174AC8EBE4
:10231C00C903134493F90730012B08D1012C40F069
:10232C0005813A46029909EB0500FFF733F909F1EB
:10233C000109B9F1050FA244E8D108F10108B8F17F
:10234C00080FA344DCD1AEE0FB3B0008443E000880
:10235C00CE3B0008A13B0008743B0008473B00083B
:10236C001F3B0008F73A0008CF3A0008A73A0008CC
:10237C00B3464FF00008AA464FF0000908EB0603DD
:10238C000293CF4AC8EBC903134493F90730012BCE
:10239C0008D1012C40F0C2803A46029905EB0900A5
:1023AC00FFF7F8F809F10109B9F1050FA244E8D1DA
:1023BC0008F10108B8F1080FA344DCD173E0B3466F
:1023CC004FF00008AA464FF0000906EB08030293F1
:1023DC00BC4AC8EBC903134493F90730012B08D14D
:1023EC00012C40F093803A46029905EB0900FFF767
:1023FC00D1F809F10109B9F1050FA244E8D108F1AE
:10240C000108B8F1080FA344DCD14CE0AB464FF007
:10241C000009B2464FF00008AB4B4B44029305EB5E
:10242C0009030393029A08EB8803D356012B07D1B7
:10243C00012C63D13A4608EB06010398FFF7AAF882
:10244C0008F10108B8F1080FA244EBD109F1010918
:10245C00B9F1050FA344DCD125E0AB464FF00009E0
:10246C00B2464FF00008994B4B44029309EB05031D
:10247C000393029A08EB8803D356012B07D1012C46
:10248C002CD13A4608EB06010398FFF783F808F1C4
:10249C000108B8F1080FA244EBD109F10109B9F117
:1024AC00050FA344DCD105B0BDE8F08F4FF0050853
:1024BC00B24608275146CDF80090234622462846BE
:1024CC00013FFFF75DF917F0FF07A244F2D108F1C5
:1024DC00FF3818F0FF082544EAD1E4E700972346BB
:1024EC00224651465846FFF74BF9D0E70097234652
:1024FC00224651465846FFF743F9DCE50097234640
:10250C00224651465846FFF73BF999E70097234678
:10251C00224659465046FFF733F96AE7009723469F
:10252C00224659465046FFF72BF93BE700972346C6
:10253C00224659465046FFF723F9F8E60097234602
:10254C00224659465046FFF71BF9C9E60097234629
:10255C00224659465046FFF713F99AE60097234650
:10256C00224659465046FFF70BF96BE60097234677
:10257C00224651465846FFF703F93CE6009723469E
:10258C00224651465846FFF7FBF80CE600972346C7
:10259C00224651465846FFF7F3F8DCE500972346F0
:1025AC00224651465846FFF7EBF8ACE50097234618
:1025BC00224651465846FFF7E3F854E50097234668
:1025CC00224651465846FFF7DBF810E500972346A4
:1025DC00224651465846FFF7D3F8E0E400972346CD
:1025EC00224651465846FFF7CBF8B0E400972346F5
:1025FC00224651465846FFF7C3F880E4009723461D
:10260C00224651465846FFF7BBF850E40097234644
:10261C00224651465846FFF7B3F820E4009723466C
:10262C00224651465846FFF7ABF8FFF7F0BB009730
:10263C002346224651465846FFF7A2F8FFF7BFBB88
:10264C0000972346224651465846FFF799F8FFF764
:10265C008EBB00972346224651465846FFF790F80A
:10266C00FFF75DBB00972346224651465846FFF7BD
:10267C0087F8FFF718BB0097234622465146584669
:10268C00FFF77EF8FFF7E6BA00972346224651463D
:10269C005846FFF775F8FFF7B4BA00972346224661
:1026AC0059465046FFF76CF8FFF782BA009723465D
:1026BC00224659465046FFF763F8FFF751BA00BF60
:1026CC007F3A0008573A0008633D0008AF3C000809
:1026DC0000972346224659465046FFF751F8FFF71C
:1026EC0017BA00972346224659465046FFF748F83A
:1026FC00FFF7E6B900972346224659465046FFF7A6
:10270C003FF8FFF7B5B90097234622465946504685
:10271C00FFF736F8FFF784B900972346224659464F
:10272C005046FFF72DF8FFF753B900BFF0B50A2854
:10273C0085B00BD10022204B1A80204A204B1978EF
:10274C00138803EBC103138005B0F0BD0D28FBD03B
:10275C001C4B194C1A781A4D184B82B10621B4F93E
:10276C0000202E7801FB0621174AB2F90020914275
:10277C0005DD002222801A8802EBC6021A802F780F
:10278C001249134EB3F90030368809880397114F5C
:10279C00B4F900203F8802970F4F3F888DE88100E5
:1027AC003046FFF783F82B78228803EB430302EBC8
:1027BC0043032380C8E700BF48010020B800002075
:1027CC004B0100204A010020440100200800002099
:1027DC000A0000205E0100206001002038B504468C
:1027EC00FDF7AEFC2518AC4200D138BD14F8010B36
:1027FC00FFF79CFFF7E708B5FEF7D6FDFEF7A4FD43
:10280C00FEF7B2FDFEF7E0FDFEF7D6FDBDE8084091
:10281C00FEF7DABD1FB502220323694603488DE893
:10282C000C00FEF763F905B05DF804FB00080140ED
:10283C001FB500220323022001218DE80F006946F9
:10284C000248FEF753F905B05DF804FB000801409F
:10285C0008B5FFF7DFFF01224FF480710748FEF740
:10286C0025FAFEF789FD0122054B06481A60FDF793
:10287C0025FEBDE80840FFF7DBBF00BF000C0140A0
:10288C001C000020CC0000201FB504220323694645
:10289C0003488DE80C00FEF729F905B05DF804FB40
:1028AC00000801401FB500220323042001218DE8FC
:1028BC000F0069460248FEF719F905B05DF804FBF4
:1028CC000008014038B50024FFF7B2FFFFF7EAFF1C
:1028DC00FFF791FF0D4B0E4D1C804FF48153A4213B
:1028EC000C482B80FEF7E4FD2B880B4AC3F3003316
:1028FC0020461380FEF7BEFD0320FEF76BFEBDE8FD
:10290C0038404FF4FC60FEF7BDBF00BF460100200D
:10291C00B6000020B0390008C000002010B50E4CE5
:10292C00002220464FF48071FEF7C0F9FEF724FD1B
:10293C00FFF7AAFFFEF718FD204600224FF40071A6
:10294C00FEF7B4F90122054B05481A60FDF7B6FDF8
:10295C00BDE81040FFF7A6BF000C01401C00002092
:10296C00CC0000201F22C64B2DE9F04F1A804FF4EB
:10297C00FC62C44BA1B01A804FF47843142100932D
:10298C000B23C14D1A460846FEF7FAFE00262F46C9
:10299C00DFF8F8824FF4FA74FFF75AFF2B6813B97B
:1029AC00D8F800301E44013CF6D14FF4FA7396FB74
:1029BC00F3F60A2EEEDD4FF0140AB44DFFF748FF84
:1029CC003B680BB92B681E44BAF1010AF6D14FF4DF
:1029DC00FA7596FBF5F3AE491A4606A8029300F079
:1029EC0093FB4FF4FC635022009394211223282074
:1029FC00FEF7C6FE2823DFF8A492DFF8A482A9F81C
:102A0C0000309423A8F800300223DFF88CB206A81B
:102A1C008BF80030FFF7E2FE9E4CFFF77FFF3B6820
:102A2C000BB923689A44013DF7D14FF4FA749AFB21
:102A3C00F4F397491A4613A8039300F065FB4FF47F
:102A4C00FC635022942100939A201223FEF798FEE7
:102A5C009A23A9F800309423A8F80030022313A875
:102A6C008BF80030FFF7BAFE4FF4784300930B233A
:102A7C0078211A46F020FEF783FE864A2E46156012
:102A8C0015464FF4FA7AFFF749FF3A680AB92A68F3
:102A9C001644BAF1010AF6D196FBF4F6A6F133020C
:102AAC00942AEED84FF0140A784CFFF7D1FE3A680E
:102ABC000AB922681644BAF1010AF6D14FF4FA7435
:102ACC0096FBF4F372491A4606A8049300F01CFB1B
:102ADC004FF4FC6328200093502212239421FEF71C
:102AEC004FFE2823A9F800309423A8F800300223C5
:102AFC0006A88BF80030FFF771FEFFF70FFF3B685D
:102B0C000BB92B689A44013CF7D14FF4FA759AFB38
:102B1C00F5FA5F49524613A800F0F6FA4FF4FC633D
:102B2C0094210093502212239A20FEF729FE9A2317
:102B3C00A9F8003094230222A8F80030564B13A8B1
:102B4C001A70FFF74BFE4FF4784300930B23C82108
:102B5C001A461420FEF714FE4C4B9B461C604FF497
:102B6C00FA720592FFF774FE3B68059A13B9DBF80D
:102B7C0000301C44013AF4D194FBF5F40A2CEEDD40
:102B8C004FF4FA75FFF764FE3B6813B9DBF80030BD
:102B9C001C44013DF6D14FF4FA7B94FBFBF43C4909
:102BAC00224606A800F0B0FA4FF4FC6350220093C2
:102BBC00942112232820FEF7E3FD2823A9F80030E6
:102BCC0094230222A8F80030334B06A81A70FFF7A2
:102BDC0005FEDFF8C080FFF7A1FE3B6813B9D8F8FB
:102BEC0000301D44BBF1010BF5D14FF4FA7395FB8A
:102BFC00F3F527492A4613A800F086FA4FF4FC6334
:102C0C0050220093942112239A20FEF7B9FD9A23A7
:102C1C00DFF888B04FF00208ABF800309423DFF8EF
:102C2C0080901D4F13A8A9F8003087F80080FFF79B
:102C3C00D5FD029A164906A800F066FA28261E232E
:102C4C0006A8ABF800300293A9F8006087F8008062
:102C5C00FFF7C4FD039A0E4906A800F055FA3C2272
:102C6C0006A8ABF80020A9F8006087F80080FFF7F1
:102C7C00B5FD049A064906A800F046FA12E000BF1A
:102C8C00600100205E0100201C000020BC00002020
:102C9C00543A0008C40000204B01002048010020D9
:102CAC00B80000205A22A9F80060502606A8ABF8FC
:102CBC00002087F80080FFF791FD5246164913A8B3
:102CCC0000F022FA029B13A8ABF80030A9F80060C0
:102CDC0087F80080FFF782FD22460F4913A800F009
:102CEC0013FA13A8ABF80060A9F8006087F800800D
:102CFC00FFF774FD2A46084913A800F005FA78235B
:102D0C0013A8ABF80030A9F8006087F80080FFF733
:102D1C0065FD21B0BDE8F08F543A000880B55B4CDE
:102D2C008AB0FDF739FAFEF7CFFAA369002243F017
:102D3C001003A361A3694FF4C04103F01003029385
:102D4C00029BA369524843F02003A361A3690025A9
:102D5C0003F020030393039BA369012743F00403AF
:102D6C00A361A3694FF0020803F004030493049BCE
:102D7C00A369032643F00803A361A36903F00803C6
:102D8C000593059BFDF792FF002219214148FDF7A1
:102D9C008DFF00224FF47F613F48FDF787FF4FF412
:102DAC00C04306A93A48069307970895CDF82480A6
:102DBC00FDF79CFE192306A936480693079708953C
:102DCC000996FDF793FE062306A93248069307964B
:102DDC00FDF78CFE06A9304806970796FDF786FE90
:102DEC004FF47F6306A92C4806930797089509961C
:102DFC00FDF77CFE63692A463B43636163692946A0
:102E0C003B4001930B20019BFDF702FD0B20FDF7CE
:102E1C0033FD224C224B204623604FF48073A36079
:102E2C004FF46023E5606561E36165602661FDF741
:102E3C005BFC00B1FEE7089006A9204606970797B1
:102E4C00FDF780FA00B1FEE706A92046CDF8188000
:102E5C00CDF81C80FDF776FA00B1FEE7082306A931
:102E6C00204606930796FDF76DFA00B1FEE741F296
:102E7C008920FFF727FD32460A492046FDF784FBDF
:102E8C002046FDF71BFBFFF76DFDFCE70010024031
:102E9C000010014000080140000C0140CC00002053
:102EAC000024014050010020FEE70000254B07B52F
:102EBC009A69032042F001029A619A6902F00102B8
:102ECC000092009ADA6942F08052DA61DB6903F011
:102EDC0080530193019BFDF789FC00226FF00B00DE
:102EEC001146FDF795FC00226FF00A001146FDF724
:102EFC008FFC00226FF009001146FDF789FC0022BF
:102F0C006FF004001146FDF783FC00226FF0030004
:102F1C001146FDF77DFC00226FF001001146FDF714
:102F2C0077FC00224FF0FF301146FDF771FC064A8A
:102F3C00536823F0E06343F00073536003B05DF813
:102F4C0004FB00BF001002400000014030B50268D5
:102F5C00214B87B09A4205463CD103F56C439A69E4
:102F6C00032442F400729A619B6902A903F4007372
:102F7C000193019B0623194802930394FDF7B6FDB8
:102F8C000123174802A902930394FDF7AFFD802299
:102F9C00144C154BE2604FF4007222614FF4006246
:102FAC00236062610023202220466360A360A2613B
:102FBC00E361FDF795FC18B17B210C48FFF774FF1A
:102FCC0000222C62122011466562FDF721FC1220B2
:102FDC00FDF752FC07B030BD002401400008014051
:102FEC00000C0140FC0000200800024010400008CA
:102FFC007047FEE7FEE7FEE7FEE770477047704755
:10300C0008B5FDF7DBF8BDE80840FDF764BC00002F
:10301C000148FDF7D7BC00BFFC0000200148FDF7BC
:10302C000DB900BFCC0000200F4B1A6842F0010212
:10303C001A6059680D4A0A405A601A6822F0847264
:10304C0022F480321A601A6822F480221A605A68BC
:10305C0022F4FE025A604FF41F029A604FF0006295
:10306C00034B9A60704700BF001002400000FFF84D
:10307C0000ED00E0002103E00B4B5B5843500431A2
:10308C000A480B4B42189A42F6D30A4A02E0002334
:10309C0042F8043B084B9A42F9D3FFF7C5FF00F006
:1030AC000FF8FFF73BFE7047784000080000002047
:1030BC0088000020880000206C010020FEE7000042
:1030CC0070B500250C4E0D4CA41BA410A54209D1C3
:1030DC0000F054FC00250A4E0A4CA41BA410A54277
:1030EC0005D170BD56F8253098470135EEE756F8F6
:1030FC00253098470135F2E7704000087040000811
:10310C0070400008744000080EB44FF4027100B512
:10311C009CB0ADF814106FF00041049107914FF67C
:10312C00FF711DAB02900690084853F8042BADF8C4
:10313C001610006802A9019300F066F80022029BA9
:10314C001A701CB05DF804EB03B07047240000202B
:10315C002DE9F0478E6882469E420C469146984671
:10316C0035D88A8912F4906F31D002232568096909
:10317C006F1A656905EB450595FBF3F508F101033D
:10318C003B449D4238BF1D46530531D5294600F0BE
:10319C0047FB064650B90C23CAF80030A3894FF000
:1031AC00FF3043F04003A381BDE8F0873A46216924
:1031BC0000F0C4FAA38923F4906343F08003A38145
:1031CC0026613E44266046466561ED1BA56046457A
:1031DC0028BF464649463246206800F0BAFAA36832
:1031EC0000209B1BA36023681E442660BDE8F0876B
:1031FC002A4600F073FB06460028E1D121695046AF
:10320C0000F0C2FAC7E700002DE9F04F9DB0039320
:10321C008B8980461C060D4616460FD50B696BB97B
:10322C00402100F0FDFA2860286128B90C23C8F869
:10323C0000304FF0FF30C4E040236B610023099352
:10324C0020238DF8293030234FF0010B8DF82A30D4
:10325C0037463C4614F8013B002B3CD1B7EB060A31
:10326C000BD05346324629464046FFF771FF0130DA
:10327C0000F0A280099B534409933B78002B00F08B
:10328C009B8000234FF0FF32049307930592069323
:10329C008DF853301A9305222178504800F040FAEB
:1032AC00671C049BD8B9D90644BF20228DF8532043
:1032BC001A0744BF2B228DF8532022782A2A16D0C5
:1032CC0000210A20079A27463B780134303B092B12
:1032DC0050D9C9B111E0252BC0D02746B9E73F4AD8
:1032EC003C46801A0BFA00F018430490D3E7039A7B
:1032FC00111D12680391002A01DB079204E052426F
:10330C0043F00203079204933B782E2B0DD17B786C
:10331C00791C2A2B32D1039B02371A1D1B6803928E
:10332C00002BB8BF4FF0FF3305932D4C0322397897
:10333C00204600F0F5F938B14023001B03FA00F0E9
:10334C00049B0137034304933978062225487E1CDD
:10335C008DF8281000F0E4F9002835D0224BFBB989
:10336C00039B073323F0070308330393099B4B4458
:10337C0009936DE700FB02320121A4E700230A2424
:10338C00184605930F463A780131303A092A03D989
:10339C00002BCAD00590C8E704FB00200123F1E7FD
:1033AC0003AB00932A46114B04A94046AFF30080AF
:1033BC00B0F1FF3F8146D9D1AB895B063FF539AF00
:1033CC0009981DB0BDE8F08F03AB00932A46074B5C
:1033DC0004A9404600F084F8EAE700BF3B4000082F
:1033EC004140000845400008000000005D31000825
:1033FC002DE9F04791461F468A680B6906469342B1
:10340C00B8BF1346C9F8003091F843200C46DDF8DC
:10341C00208012B10133C9F800302368990642BFED
:10342C00D9F800300233C9F80030256815F00605CC
:10343C0007D104F1190AE368D9F800209B1A9D42C0
:10344C002ADB94F843302268003318BF012392061C
:10345C002FD404F1430239463046C047013022D004
:10346C002368E56803F00603042B18BF0025D9F880
:10347C0000204FF0000908BFAD1AA368226908BFED
:10348C0025EAE5759342C4BF9B1AED181A344D45D5
:10349C001BD10020BDE8F087012352463946304647
:1034AC00C047013003D14FF0FF30BDE8F087013544
:1034BC00C1E73020E11881F843005A1C94F84510FC
:1034CC002244023382F84310C3E7012322463946D3
:1034DC003046C0470130E6D009F10109D7E70000BA
:1034EC002DE9F04317460A7E85B06E2A98460646AB
:1034FC000C460C9B01F1430E00F0BC801AD8632AD9
:10350C002ED00AD8002A00F0C880582A00F08A80F1
:10351C0004F1420584F842202AE0642A01D0692A89
:10352C00F6D121681A6811F0800F23D0111D196093
:10353C00136827E0732A00F0B48008D86F2A2AD0C9
:10354C00702AE5D10A6842F020020A6003E0752A6D
:10355C0021D0782ADCD178226F4984F8452064E0A8
:10356C001A6801F14205111D1960136884F8423084
:10357C000123A3E011F0400F02F104011960D7D030
:10358C00B2F90030002B03DA2D225B4284F8432081
:10359C0062490A2217E02068196810F0800F03D0E6
:1035AC00081D18600B6806E010F0400F01F10400D4
:1035BC001860F7D00B886F2A14BF0A2208225749CB
:1035CC00002084F843006568002DA560C0F29C8043
:1035DC00206820F004002060002B3FD1002D40F02B
:1035EC0095807546082A0BD12368DA0708D523691C
:1035FC0062689A42DEBF302305F8013C05F1FF35C5
:10360C00AEEB05032361CDF800803B4603AA2146AF
:10361C003046FFF7EDFE013055D14FF0FF3005B0CD
:10362C00BDE8F08381F845203C492268186812F007
:10363C00800F00F104051D6001D0036802E05506FF
:10364C00FBD50388D00744BF42F0200222601BB98F
:10365C00226822F0200222601022B1E77546B3FBEB
:10366C00F2F002FB1033CB5C05F8013D0346002859
:10367C00F5D1B7E708681A6810F0800F496904D0D3
:10368C00101D18601368196007E010F0400F02F16C
:10369C00040018601368F6D0198000237546236166
:1036AC00B1E71A68111D1960156800216268284677
:1036BC0000F036F808B1401B60606368236100239A
:1036CC0084F843309FE723692A4639463046C04781
:1036DC000130A2D023689B0707D5002504F11909F6
:1036EC00E368039A9B1A9D4205DBE068039B9842B2
:1036FC00B8BF184693E701234A4639463046C047BF
:10370C0001308AD00135EBE7002BA7D10B7804F1FF
:10371C00420584F8423065E75D4000084C400008E3
:10372C0010B5C9B202449042034601D1002010BD2D
:10373C001C7801308C42F6D1184610BD10B5431ED2
:10374C000A44914200D110BD11F8014B03F8014F0E
:10375C00F7E7884210B501EB020303D8421E9942E9
:10376C000CD110BD9842F9D28118D21AD34200D193
:10377C0010BD13F8014D01F8014DF7E711F8014B9D
:10378C0002F8014FEBE7000038B50546002943D09D
:10379C0051F8043C0C1F002BB8BFE41800F0D4F80F
:1037AC001E4A1368104633B9636014602846BDE89E
:1037BC00384000F0CAB8A3420BD921686218934272
:1037CC0001BF1A685B685218226063600460EDE701
:1037DC0013465A680AB1A242FAD919685818A0427D
:1037EC000BD120680144581882421960DED1106850
:1037FC005268014419605A60D8E702D90C232B6037
:10380C00D4E7206821188A4201BF11685268091850
:10381C00216062605C60C9E738BD00BFA400002075
:10382C0070B5CD1C25F0030508350C2D38BF0C25C3
:10383C00002D064601DBA94203D90C23336000207E
:10384C0070BD00F081F8234A1468214691B9224CCE
:10385C0023681BB9304600F067F8206029463046D3
:10386C0000F062F8431C26D10C233046336000F084
:10387C006CF8E4E70B685B1B1AD40B2B0FD90B60AD
:10388C00CC18CD50304600F060F804F10B00231D2D
:10389C0020F00700C31A1BD05A42E25070BD8C4274
:1038AC000BBF63684B681360636018BF0C46E9E795
:1038BC000C464968CAE7C41C24F00304A04205D096
:1038CC00211A304600F030F80130CDD02560D9E710
:1038DC0070BD00BFA4000020A8000020F8B507466A
:1038EC0014460E4621B91146BDE8F840FFF798BFC3
:1038FC0022B9FFF749FF25462846F8BD00F026F807
:10390C0084420FD921463846FFF78AFF0546002826
:10391C00F2D031462246FFF711FF31463846FFF709
:10392C0033FFE9E73546E7E738B50023054C054694
:10393C000846236000F014F8431C02D1236803B13D
:10394C002B6038BD680100207047704751F8040C9B
:10395C000028A0F10400BCBF0B58C0187047000031
:10396C00044B0246196809B90349196018680244E6
:10397C001A607047AC0000206C010020F8B500BF45
:10398C00F8BC08BC9E467047F8B500BFF8BC08BC34
:04399C009E4670478C
:1039A00002030405060708090A0B0C0D0E0F101080
:1039B000000001000300A4A80C0000000D000C088A
:1039C0000E00002B1E00B70001003F2B0200000478
:1039D00010000000110070600500000006000000EB
:1039E00016001CEF17000300070033020B00000055
:1039F0000F000000410000004200000048000000ED
:103A000049003F014A0000004B000000440095EFD0
:103A10004500000046003F01300007073100040266
:103A200032000402330002053400070535000402A9
:103A300036000402370002053A0002033B0002038D
:103A40002300000024000000250000804F0000003B
:103A50004E00000025690000000101010101000085
:103A60000100010000000100010000010000010050
:103A7000010000000100010000010101010100003E
:103A80000000000000000000010000000001000034
:103A9000010101010101010001000000000000001E
:103AA0000000000000000000010000000001000014
:103AB0000101000000000100010001000000010000
:103AC00001000001000001000100000001010000F0
:103AD00000010000000001000100000000000100E2
:103AE00001000000010001000100000100010100CF
:103AF00000010100000001000000010100000000C1
:103B000000000100010000000000010000010000B1
:103B1000010101010101010000000100000000009D
:103B2000000100000101010001000000010001008E
:103B3000010000000100010001000000010001007F
:103B4000000101010000010001010101010000006C
:103B5000000100000000010101010001000000015E
:103B6000010000000101000000010001010100004E
:103B7000000000000101010101000000000100003F
:103B80000001000000010000000001000000010031
:103B90000000000100000001000000000000000023
:103BA000000001010100010000000101000000010E
:103BB00000010101000100000001010000000101FD
:103BC00000000001000101010000000000000001F0
:103BD00001010001000000010100000001000101DD
:103BE00001000000000001000000000101000000D1
:103BF00001000101010000000000000000010000C0
:103C000000010001000100000001010000000101AD
:103C1000000000010101010101010000000101009B
:103C2000000001000000000001010101000100008E
:103C3000000101000000010101010100010000007C
:103C4000010100000001010000000101010101006B
:103C5000000000000000010101000100000001015E
:103C60000000000001000000000100000000010051
:103C7000000000010000000100010101000000003F
:103C8000000001010101010100000000010000002D
:103C9000000101010100010000000001000000001E
:103CA000010000000001010101010000000000000E
:103CB0000001000000000100000000010000000001
:103CC00001000000000100000000010000000000F1
:103CD00000000000010000000000000001010101DF
:103CE00001010000000001000000000101010100CD
:103CF00001000000000100000000010000000001C0
:103D000000000000000000000001000000010100B0
:103D1000000001010000000101000000010101019B
:103D2000010101000000010100000001010000008C
:103D30000100000000000100000000010000000080
:103D4000010000000001000000000100000000016F
:103D5000000000000100000000010101010100005D
:103D60000000000000000000000000000000000053
:103D7000000000000000000101010101000000003E
:103D80000000000000000000000000000000000033
:103D9000000101010001000000010100000001011B
:103DA000000000010100000001010000000101000D
:103DB00000000100010101000000000000010101FC
:103DC00001000100000001010000000101000000ED
:103DD00001010101010001000000000100000000DC
:103DE00001000000000000000000000101010001CE
:103DF00000000001010000000000010101000000BE
:103E000000000100000000010100000001000101AC
:103E1000010000000000000101010101000001009B
:103E2000000000010000000001000000000100008F
:103E3000000001000000000100000000010000007F
:103E40000000000000000000000000010000000071
:103E50000100000000000000000000000000000160
:103E60000000000001000000000000000000000051
:103E7000000100000001010000000101000000013C
:103E8000010000000101000000010100000001012B
:103E9000000000010001010100000000000001001D
:103EA000000001000100010000010001000000010C
:103EB00000000000010000000100010000010001FD
:103EC00000010000000100000000000100000001EE
:103ED00000010001000001000100000001000000DD
:103EE00000010000000001000000000100000000CF
:103EF00001000000000000000000010000000000C0
:103F000000010001000100000001000100010000AB
:103F1000000100010001000000010101010000009A
:103F20000001010101010101000100000100000088
:103F3000000100000001000000010000000100007D
:103F4000000001010100000000000101010000006B
:103F5000000100000001000000010000000100005D
:103F6000000100000001000000000100000000004E
:103F7000000001010100000000010001000100003B
:103F8000000100010001000000010001000100002B
:103F9000000000010100000000000000010000001E
:103FA0000001010101010100000000000100000109
:103FB00000000000000000010000000000000100FF
:103FC00000000101010000000001000000010000EC
:103FD00000010000000100000001000000010000DD
:103FE00000000101010000000000000000010000CD
:103FF00000000101010101010001000000010000B9
:1040000000010000000000000000010000000000AE
:104010002E2E5C5372635C73746D33326631787824
:104020005F68616C5F6D73702E63000000000000BC
:104030000000000102030406070809232D302B208D
:1040400000686C4C00656667454647003031323386
:1040500034353637383941424344454600303132F1
:104060003334353637383961626364656600000081
:044070003101000812
:044074000D01000832
:1040780001000000100000004001F000440046006C
:104088004E004F00220044004500000001000000DF
:1040980000A24A04280000200000000000000000E0
:1040A8000000000000000000000000000000000008
:1040B80000000000000000000000000000000000F8
:1040C80000000000000000000000000000000000E8
:1040D80000000000000000000000000000000000D8
:1040E80000000000000000000000000000000000C8
:0840F8000000000000000000C0
:04000005080030813E
:00000001FF
