:020000040800F2
:100000000050002091290008032900080529000854
:1000100007290008092900080B2900080000000032
:100020000000000000000000000000000D29000892
:100030000F290008000000001129000813290008FA
:10004000D9290008D9290008D9290008D929000888
:10005000D9290008D9290008D9290008D929000878
:10006000D9290008D9290008D92900082129000820
:10007000D9290008D9290008D9290008D929000858
:10008000D9290008D92900082D290008D9290008F4
:10009000D9290008D9290008D9290008D929000838
:1000A000D9290008D9290008D9290008D929000828
:1000B00039290008D9290008D9290008D9290008B8
:1000C000D9290008D9290008D9290008D929000808
:1000D000D9290008D9290008D9290008D9290008F8
:1000E000D9290008D9290008D929000800000000F2
:1000F0000000000000000000000000000000000000
:0C01000000000000000000005FF808F1A3
:10010C0010B5054C237833B9044B13B10448AFF345
:10011C0000800123237010BD880000200000000027
:10012C009832000808B5034B1BB103490348AFF3E1
:10013C00008008BD000000008C00002098320008F0
:10014C00034613F8012B002AFBD1181A013870470B
:10015C0038B50E4B054618784FF47A73B3FBF0F3B1
:10016C000B4A1068B0FBF3F000F0A4FB044658B93E
:10017C000F2D09D8024629464FF0FF3000F05AFBEC
:10018C00044B20461D6038BD012038BD0000002006
:10019C002000002004000020074A08B51368032043
:1001AC0043F01003136000F033FB0020FFF7D0FF87
:1001BC0002F0E4FA002008BD00200240034A044B80
:1001CC0011681B780B441360704700BFCC000020F3
:1001DC0000000020014B1868704700BFCC000020C5
:1001EC0038B50446FFF7F6FF0546631C1EBF044BEB
:1001FC001B78E418FFF7EEFF401B8442FAD838BD99
:10020C0000000020436A10B59A6A12F0500F1BD1FF
:10021C009A6A42F400729A621A68926802F4602236
:10022C00B2F5602F0CD1DA6852B99A6A22F4807256
:10023C009A629A6AD2045EBF9A6A42F001029A628A
:10024C00184602F04FF910BD1B6ABDE810401B6B3D
:10025C001847704708B5406AFFF7FBFF08BD7047A9
:10026C00036810B55A680446900627D51A6891079A
:10027C0024D5A26AD2065EBFA26A42F40072A262C0
:10028C009A6802F46022B2F5602F10D1E26872B95C
:10029C005A6822F020025A60A36A23F48073A36286
:1002AC00A36ADB045EBFA36A43F00103A36220468A
:1002BC0002F018F96FF0120223681A6023685A686A
:1002CC00100630D51A6851072DD5A26AD2065EBF2A
:1002DC00A26A42F40052A2629A6802F4E042B2F5B9
:1002EC00E04F0AD05A68500516D49A6802F460227E
:1002FC00B2F5602F10D1E26872B95A6822F0800210
:10030C005A60A36A23F48053A362A36AD9055EBF23
:10031C00A36A43F00103A362204600F077FA6FF062
:10032C000C0223681A6023685A6852060DD51B68A4
:10033C00DB070AD5A36A204643F48033A362FFF798
:10034C008EFF6FF0010223681A6010BD7047406A7F
:10035C0008B5836A43F040038362C36A43F0040325
:10036C00C362FFF7F3FF08BD002373B5019390F848
:10037C002430012B74D001234D6880F82430062DD5
:10038C0002684FEA85030C6825D82B441F25566B51
:10039C00053B9D4026EA050504FA03F32B43536302
:1003AC00092C4FEA44038D682FD907262344D168C2
:1003BC001E3B9E4021EA060105FA03F30B43D36072
:1003CC00A4F11003012B2BD90023002280F8242048
:1003DC00184602B070BD0C2D0BD82B441F25166B84
:1003EC00233B9D4026EA050504FA03F32B431363D4
:1003FC00D6E72B441F25D66A413B9D4026EA0505CE
:10040C0004FA03F32B43D362CAE70726116923448A
:10041C009E4021EA060105FA03F30B431361CFE773
:10042C00104B9A4216D193681B02CDD49368102CB2
:10043C0043F400039360C7D10B4B0C4A1B68B3FB0E
:10044C00F2F20A2353430193019B002BBCD0019B76
:10045C00013BF8E7836A43F0200383620123B4E78E
:10046C000223B5E7002401402000002040420F0089
:10047C00002373B50193036804469A68D20702D52A
:10048C00002002B070BD9A6842F001029A60124BD3
:10049C00124A1B68B3FBF2F30193019BC3B9FFF73C
:1004AC0099FE064623689D6815F00105E8D1FFF713
:1004BC0091FE801B0228F5D9A36A84F8245043F0DE
:1004CC001003A362E36A012043F00103E362D8E75F
:1004DC00019B013BE0E700BF2000002040420F00E1
:1004EC0090F8243010B5012B044658D0012380F825
:1004FC002430FFF7BDFF00284DD1A36A294A23F40D
:10050C00706323F0010343F48073A3622368934266
:10051C0004D125494A6812F4702F32D1A26A22F410
:10052C008012A2625A68520541BFA26A22F440525C
:10053C0042F48052A262A26A12F480521CBFE26A98
:10054C0022F00602E262002284F824206FF00202FC
:10055C001A605A6842F020025A609A6802F46022CB
:10056C00B2F5602F13D10F4A934205D1A2F58062E8
:10057C00526812F4702F0AD19A6842F4A0029A6061
:10058C0010BDA26A42F48012A2624A68CBE79A6854
:10059C0042F48012F3E7002384F8243010BD0220CB
:1005AC0010BD00BF00280140002401402DE9D841B6
:1005BC009046404B026804469A420F4602D03E4990
:1005CC008A4203D15B6813F4702F6ED194F82430F7
:1005DC00012B6CD00123204684F82430FFF748FF10
:1005EC00064600285DD1A06A216820F47060324B69
:1005FC0020F0010040F480709942A06204D12D4A91
:10060C00536813F4702F3ED1A36A23F48013A362B2
:10061C004B685A0505D5A36A23F4405343F4805321
:10062C00A362A36A206A13F4805318BFE36A3A46A4
:10063C0018BF23F00603E362002384F824301F4B19
:10064C004C3183621E4BC3621E4B03636FF002037B
:10065C0041F84C3C51F8443C43F4807341F8443C21
:10066C00434600F083F923689A6802F46022B2F5DD
:10067C00602F9A680CBF42F4A00242F480129A6078
:10068C003046BDE8D881A36A43F48013A362536853
:10069C005B0541BFA06A20F4405040F48050A0623A
:1006AC00BFE7002384F82430EAE70126E8E70226B6
:1006BC00E6E700BF002401400028014011020008B9
:1006CC00610200085B03000838B5036804469A68A9
:1006DC00D20701D4002038BD9A6822F001029A603A
:1006EC00FFF778FD054623689B68DB07F2D5FFF71B
:1006FC0071FD401B0228F6D9A36A012043F01003B8
:10070C00A362E36A43F00103E36238BD70B50446AB
:10071C00002871D0836A23B9C36280F8243002F0B8
:10072C007DF82046FFF7D0FFA36A13F0100FA36AE1
:10073C0064D1002862D1E16923F48853626823F004
:10074C00020343F002030A43A168A362E368B1F514
:10075C00807F42EA430238D0012914BF06464FF489
:10076C0080766569012D07D1002B30D1A369013B3F
:10077C0046EA433545F400662368B1F5807F5D6831
:10078C0025F4694545EA06055D609E681D4D05EA40
:10079C00060545EA02059D6001D0012920D1216999
:1007AC0001390905DD6A25F470052943D962996878
:1007BC00154B0B409A4215D10023E362A36A23F038
:1007CC00030343F00103A36270BD0E46C9E7A36A9D
:1007DC0043F02003A362E36A43F00103E362CBE737
:1007EC000021DFE7A36A23F0120343F01003A36296
:1007FC00E36A43F00103E362012070BD43F0100390
:10080C00A362F9E7FDF7E1FFFE0E1FFF7047000042
:10081C00074A0002D36800F4E06023F4E0631B0491
:10082C001B0C43F0BF6343F400330343D3607047A6
:10083C0000ED00E0174B30B5DC68C4F30224C4F1C2
:10084C000703251D042B28BF0423062D4FF001059B
:10085C0098BF002405FA03F303F1FF3388BF033C70
:10086C001940A14005FA04F4013C2240002842EA58
:10087C0001024FEA0212AFBF00F16040064B00F0DC
:10088C000F00D2B2A5BFD2B200F561401A5480F865
:10089C00002330BD00ED00E014ED00E0012342091F
:1008AC0000F01F0003FA00F0014B43F822007047E0
:1008BC0000E100E00138B0F1807F0AD2F021064B54
:1008CC00064A586082F823100020072298601A60AC
:1008DC0070470120704700BF10E000E000ED00E021
:1008EC00044B04281A680CBF42F0040222F00402E4
:1008FC001A60704710E000E0704708B5FFF7FCFF86
:10090C0008BD000010B550B314220168154B846863
:10091C000B44B3FBF2F39B000364134B0A68C363F1
:10092C00436822F47F522343C46822F030022343ED
:10093C00046923434469234384692343C4692343DF
:10094C0013430B600122002380F821208362C362D1
:10095C0003634363836380F82030184610BD012085
:10096C0010BD00BFF8FFFDBF00000240F0B590F8CD
:10097C002040012C35D0012490F8215080F82040E3
:10098C00A5424FF000064FF0020428D180F8214018
:10099C00046886632668076C26F001062660C66B21
:1009AC00BD407560636043680568102BC36A0BBF5C
:1009BC00A260A160E160E2604BB1236843F00E03DA
:1009CC0023602B68002043F001032B60F0BD2368EB
:1009DC0023F004032360236843F00A03F0E780F854
:1009EC0020600220F0BD000070B40425C66B026CC0
:1009FC003468036895402542196832D04D0730D5CC
:100A0C001A6896065EBF1A6822F004021A603E4A03
:100A1C00934219D01432934218D01432934217D007
:100A2C001432934217D01432934217D0143293429B
:100A3C000CBF4FF480034FF08063344A5360C36A99
:100A4C00002B5ED070BC18470423F6E74023F4E774
:100A5C004FF48063F1E74FF48043EEE74FF48023CB
:100A6C00EBE702259540254235D08D0733D51A6822
:100A7C00940606D41A6822F00A021A60012280F841
:100A8C002120214A934219D01432934218D01432A7
:100A9C00934217D01432934217D01432934217D08A
:100AAC00143293420CBF4FF400134FF00073174AEB
:100ABC005360002380F82030836AC1E70223F6E7F5
:100ACC002023F4E74FF40073F1E74FF40053EEE703
:100ADC004FF40033EBE708259540254211D0090768
:100AEC000FD5196821F00E011960012303FA02F2E7
:100AFC007260836380F82130002380F82030036B10
:100B0C009EE770BC704700BF080002400000024026
:100B1C002DE9F74F00221646654BDFF8A4E1DFF80C
:100B2C00A4C14FF001080C6808FA06F808EA04049E
:100B3C00A0457FD14D68122D00F0AF8000F2888067
:100B4C00022D00F0A7807CD8002D00F08E80012DA6
:100B5C0000F09E804FF00F09FF2C93BF824606F1E8
:100B6C008045083DD0F800B092BFB500D0F804B075
:100B7C00AD0009FA05F82BEA080802FA05F588BF5A
:100B8C0000F1040A48EA0505CAF80050D1F804A09F
:100B9C001AF0805F4ED0474D464FAD6926F00308E2
:100BAC0045F00105BD61BD6908F1804805F00105FE
:100BBC00019508F5803806F0030B019D4FEA8B0B6D
:100BCC00D8F8085009FA0BF925EA09093A4DA84258
:100BDC0068D005F58065A84266D005F58065A84209
:100BEC0064D005F58065A8420CBF0325042505FAE1
:100BFC000BF545EA0905C8F808501D681AF4803F42
:100C0C0014BF2543A5431D605D681AF4003F14BF53
:100C1C002543A5435D609D681AF4801F14BF2543CE
:100C2C00A5439D60DD681AF4001F14BF2C4325EA10
:100C3C000404DC600136102E7FF473AF03B0BDE802
:100C4C00F08F032D22D0112D84D1CA68043281E794
:100C5C001A4FBD4209D012D8DFF86C904D4504D024
:100C6C0009F580394D457FF475AF8A68C2B1012A08
:100C7C000CBFC0F81080C0F8148008226AE77545D4
:100C8C00F3D06545F1D0DFF84490EBE7002261E743
:100C9C00CA685FE7CA6808325CE7CA680C3259E771
:100CAC00042257E70025A2E70125A0E702259EE7CD
:100CBC000004014000100240000801400000211017
:100CCC000000311000003210000011100000221042
:100CDC000AB1016170470904FBE7000003682DE9C4
:100CEC00F341DB07054610D42B689F075ED42B68B5
:100CFC00190700F195802B685A0700F1BF80EA694B
:100D0C00002A40F02D81002014E0904C636803F021
:100D1C000C03042B07D0636803F00C03082B0CD1D5
:100D2C006368DE0309D523689C03DDD56B68002B53
:100D3C00DAD1012002B0BDE8F0816B68B3F5803FD9
:100D4C0010D1236843F480332360FFF743FA06463F
:100D5C0023689803C8D4FFF73DFA801B6428F7D9A1
:100D6C000320E7E79BB9236823F4803323602368CF
:100D7C0023F480232360FFF72DFA0646236899039A
:100D8C00B2D5FFF727FA801B6428F7D9E8E7B3F54B
:100D9C00A02F236803D143F480232360D1E723F4ED
:100DAC0080332360236823F48023CDE7674C63688A
:100DBC0013F00C0F07D0636803F00C03082B10D151
:100DCC006368DA030DD423689B0702D52B69012BCA
:100DDC00AFD123686A6923F0F80343EAC2032360A6
:100DEC0085E72A695A4B6AB101221A60FFF7F2F9BA
:100DFC00064623689F07ECD4FFF7ECF9801B02280A
:100E0C00F7D9ADE71A60FFF7E5F9064623689807AE
:100E1C007FF56DAFFFF7DEF9801B0228F6D99FE74F
:100E2C00AA694A4C4B4BDAB101221A60FFF7D2F98E
:100E3C000646636A9B070DD54FF4FA52464B1B6866
:100E4C00B3FBF2F3019300BF019B5A1E0192002BDE
:100E5C00F9D150E7FFF7BEF9801B0228E9D97FE7EB
:100E6C001A60FFF7B7F90646636A9F077FF543AF31
:100E7C00FFF7B0F9801B0228F6D971E7334CE36910
:100E8C00D80024D40127E36943F08053E361E3697C
:100E9C0003F080530093009B304E3368D90518D56E
:100EAC00EB68012B26D1236A43F001032362FFF781
:100EBC0091F941F288368046236A9B073FD5002F73
:100ECC003FF41DAFE36923F08053E36117E700277C
:100EDC00E2E7336843F480733360FFF77BF98046B5
:100EEC003368DA05DCD4FFF775F9A0EB0800642849
:100EFC00F6D935E7ABB9236A41F2883823F0010300
:100F0C002362236A23F004032362FFF763F9064686
:100F1C00236A9807D3D5FFF75DF9801B4045F7D9B5
:100F2C001EE7052B236A03D143F004032362BAE7BF
:100F3C0023F001032362236A23F00403B6E7FFF7CF
:100F4C0049F9A0EB0800B042B6D909E700100240FD
:100F5C000000424280044242200000200070004009
:100F6C00224C636803F00C03082B3FF4E2AE002321
:100F7C001F4E022A33602BD1FFF72CF9074623684A
:100F8C0099011FD42B6AB3F5803F05D16268A9681B
:100F9C0022F400320A436260696A62680B4322F4ED
:100FAC0074121343636001233360FFF713F9054692
:100FBC0023689A013FF5A7AEFFF70CF9401B0228F6
:100FCC00F6D9CDE6FFF706F9C01B0228D7D9C7E63C
:100FDC00FFF700F9054623689B017FF594AEFFF7F8
:100FEC00F9F8401B0228F6D9BAE600BF00100240FF
:100FFC006000424230B5194B87B002AC03F11005CA
:10100C00224618685968083303C2AB421446F7D11C
:10101C0001238DF80430022311498DF805304B68FB
:10102C0003F00C02082A17D1C3F3834206A802442A
:10103C00DB0312F8102C0CD54B680A48C3F3404361
:10104C00504306AA134413F8143CB0FBF3F007B05A
:10105C0030BD05485043FAE70248F8E7B0320008C3
:10106C000010024000127A0000093D004D4A2DE9A3
:10107C00F0411368054603F007038B420E4628D354
:10108C002A68910732D4D20738D4464A136803F041
:10109C0007039E4273D32A68434C12F0040F79D194
:1010AC00130706D563682A6923F4605343EAC20325
:1010BC006360FFF79FFF63683C4AC3F30313D35C81
:1010CC00D8403B4B18600020FFF742F80020BDE8E9
:1010DC00F081136823F007030B431360136803F0CC
:1010EC0007039942CCD00120BDE8F0812E49A868B5
:1010FC004B6823F0F00303434B60C4E76A682A4C47
:10110C00012A23681CD113F4003FECD0636841F230
:10111C00883823F0030313436360FFF75BF86B68B5
:10112C000746012B14D1636803F00C03042BACD0DD
:10113C00FFF750F8C01B4045F5D90320BDE8F081FE
:10114C00022A02D113F0007FDFE713F0020FDCE775
:10115C00022B0FD1636803F00C03082B95D0FFF71B
:10116C0039F8C01B4045F5D9E7E7FFF733F8C01B4A
:10117C004045E2D8636813F00C0FF6D185E713688D
:10118C0023F0070333431360136803F007039E42F5
:10119C00A9D180E76368E96823F4E0630B436360DB
:1011AC007EE700BF00200240001002408AD30008F6
:1011BC0020000020014B1868704700BF2000002061
:1011CC0003682DE9F341D907054620D5354CE36971
:1011DC00DA0032D40127E36943F08053E361E36919
:1011EC0003F080530193019B2F4E3368DB0526D50A
:1011FC00236A13F4407336D1236A6A6823F440736C
:10120C00134323621FB1E36923F08053E361286821
:10121C00830706D5234AA968536823F440430B433C
:10122C00536010F010001BD01E4AE9685368002070
:10123C0023F480030B43536012E00027D4E7336898
:10124C0043F480733360FEF7C5FF80463368D805DE
:10125C00CED4FEF7BFFFA0EB08006428F6D903201C
:10126C0002B0BDE8F0816A6802F440729342C3D0C8
:10127C0001200E4A236A1060002023F44071106094
:10128C002162D907B8D5FEF7A5FF41F2883806468A
:10129C00236A9A07B0D4FEF79DFF801B4045F7D90F
:1012AC00DDE700BF001002400070004040044242E5
:1012BC0003680020DA6842F00102DA601A6842F032
:1012CC0001021A60704790F83C3070B5012B4FF05A
:1012DC0002031CD0012280F83D30036880F83C20CA
:1012EC009A6822F47F4222F077029A600A68402AB8
:1012FC0079D019D8102A00F093800AD8002A00F06F
:10130C008980012380F83D30002380F83C3018465A
:10131C0070BD202A00F08A80302AF2D19A6822F01F
:10132C00700242F0370236E0702A36D01BD8502AB1
:10133C0042D0602AE5D11C6A4D6824F01004CE68B6
:10134C001C6299691A6A21F4704122F0A00242EAE7
:10135C00051241EA063199611A629A6822F070020C
:10136C0042F0670217E0B2F5805F11D0B2F5005F72
:10137C00C7D18A684D689C68C9682A4324F47F44A5
:10138C0042EA012222439A609A6842F4804202E0C7
:10139C009A6822F007029A60B3E78A684D689C68E5
:1013AC00C9682A4324F47F4442EA012222439A600A
:1013BC009A6842F07702EEE74C68CE68196A1D6AAB
:1013CC0021F00A0125F001051D629A69214322F0E2
:1013DC00F00242EA06129A6119629A6822F07002CF
:1013EC0042F05702D7E74C68CE68196A1D6A21F0A3
:1013FC000A0125F001051D629A69214322F0F002D1
:10140C0042EA06129A6119629A6822F0700242F05E
:10141C004702C0E79A6822F0700242F00702BAE76E
:10142C009A6822F0700242F01702B4E79A6822F030
:10143C00700242F02702AEE7704770477047704762
:10144C00036810B51A69044691070ED5DA6892073D
:10145C000BD56FF002021A6101229B6902779B0780
:10146C0077D0FFF7EAFF0023237723681A69500728
:10147C0010D5DA6851070DD56FF004021A610222FB
:10148C009B69227713F4407F204668D0FFF7D5FF85
:10149C000023237723681A6912070FD5DA6810071F
:1014AC000CD56FF008021A610422DB6922779907C8
:1014BC0020465AD0FFF7C1FF0023237723681A690F
:1014CC00D20610D5DA68D0060DD56FF010021A616D
:1014DC000822DB69227713F4407F20464BD0FFF7BC
:1014EC00ACFF0023237723681A69D10708D5DA6883
:1014FC00D20705D56FF0010220461A6100F058FCA6
:10150C0023681A69100608D5DA68110605D56FF03C
:10151C00800220461A6100F0AAF823681A69520664
:10152C0008D5DA68500605D56FF0400220461A61DE
:10153C00FFF785FF23681A69910622D5DA689206AF
:10154C001FD56FF020022046BDE810401A6100F054
:10155C008DB8FFF771FF2046FFF770FF83E7FFF7A9
:10156C006BFF2046FFF76AFF92E7FFF765FF204607
:10157C00FFF764FFA0E7FFF75FFF2046FFF75EFF72
:10158C00AFE710BD1A4A036890420AD0B0F1804F01
:10159C0007D0A2F59432904203D002F580629042BB
:1015AC0015D14A6823F070031343114A90420AD0B4
:1015BC00B0F1804F07D0A2F59432904203D002F5DF
:1015CC008062904203D1CA6823F4407313434A6982
:1015DC0023F08003134303608B68C3620B68836240
:1015EC00034B984204BF0B690363012343617047AB
:1015FC00002C014010B50446A0B190F83D3003F02A
:10160C00FF021BB980F83C2001F05AF90223206834
:10161C0084F83D30211DFFF7B5FF0123002084F82D
:10162C003D3010BD012010BD90F83C3010B5012BA1
:10163C004FF0020318D080F83D3003680C685A68EC
:10164C00496822F070025A605A6822435A609A68BC
:10165C0022F080029A609A680A439A60012380F80B
:10166C003D30002380F83C30184610BD7047704761
:10167C0038B501230C4C05460C482360FEF730FFAF
:10168C00236803B9FEE740F6E440094B094A1B689E
:10169C005843136040F6FF7390FBF3F090FBF5F0AA
:1016AC00054B186038BD00BF1C000020280200202C
:1016BC0004030020A4000020A80000204FF4803375
:1016CC0010B594B001220B930021022412934FF415
:1016DC00E0130AA80A920C910E9211941393FFF73F
:1016EC00FDFA00B1FEE70F2305934FF480630790DA
:1016FC000990214605A806940893FFF7B7FC00B1A2
:10170C00FEE74FF4004301A801940393FFF758FD43
:10171C00044600B1FEE7FFF74DFD4FF47A73B0FBC2
:10172C00F3F0FFF7C7F80420FFF7DAF8224621465A
:10173C004FF0FF30FFF77EF814B010BD01220248C5
:10174C001146FFF7C5BA00BF000801400022022174
:10175C000148FFF7BDBA00BF000801400122022179
:10176C000148FFF7B5BA00BF000801400022042170
:10177C000148FFF7ADBA00BF000801400122042167
:10178C000148FFF7A5BA00BF00080140002208215C
:10179C000148FFF79DBA00BF000801400122082153
:1017AC000148FFF795BA00BF000801400022102144
:1017BC000148FFF78DBA00BF00080140012210213B
:1017CC000148FFF785BA00BF0008014008B5FFF7D4
:1017DC00BDFFBDE80840FFF7C1BF00004FF07F63BD
:1017EC00074A08491361030203F4407300F0FC003C
:1017FC000B80054903439B0008801361704700BFB1
:10180C00000C0140FC0200202402002008B5FFF768
:10181C00E5FFFFF7DBFFBDE80840FFF79FBF10B502
:10182C000446000AFFF7F2FFE0B2BDE81040FFF7F4
:10183C00EDBF10B50446FFF799FF2046FFF7EFFF09
:10184C00BDE81040FFF79ABF38B505460C46FFF7C8
:10185C009DFF2846FFF7EDFF2046FFF7E0FFBDE8B0
:10186C003840FFF79BBF00000B4B19880B4BC1F3A3
:10187C00003181EA00021A80094A814213884FF034
:10188C00010023F400539BB218BF43F400531380A0
:10189C001188FFF7D9BF00BFD4000020DC00002066
:1018AC00D000002070B506460D460024002D00DC4B
:1018BC0070BD06EB440336F814005988043D02341D
:1018CC00FFF7C2FF2DB224B2F0E70B4649428A4221
:1018DC000BDD9A42A8BF0022104481B2002ABCBF83
:1018EC00C91889B24120FFF7AFBF0022F4E700000E
:1018FC00F8B50E46174604461D461B4B81B2188898
:10190C00FFF7A2FF194BB1B21888FFF79DFFBC423D
:10191C0001D1AE4226D0164B1B889A060CD5154B1E
:10192C001B78DB074BBF46EA052544EA07242EB299
:10193C0024B24CBF354627460F48A1B20088FFF7AA
:10194C0083FF0E48B1B20088FFF77EFF0C4AB9B294
:10195C001088FFF779FF0B4BA9B21888BDE8F84047
:10196C00FFF772BFF8BD00BF10000020120000206E
:10197C00D40000209C02002016000020180000203B
:10198C000C0000200E00002070B5174B0D461B7884
:10199C001646DB0718D5002825DB002923DB134B63
:1019AC001B8898421FDA124B1B8899421BDA03469C
:1019BC000A4601462846FFF79BFF0E4B3146BDE811
:1019CC0070401888FFF740BF00280CDB00290ADBA9
:1019DC00074B1B88984206DA044B1B88994202DAA3
:1019EC000B460246E7E770BD9C0200200800002071
:1019FC000A000020140000202DE9F04106460F4695
:101A0C00154698460024AC4201DBBDE8F081301944
:101A1C004246394600B2FFF7B7FF0134F3E72DE930
:101A2C00F04106460F46154698460024AC4201DBB1
:101A3C00BDE8F0813919424609B23046FFF7A4FFE0
:101A4C000134F3E72DE9F0411F460E46804614465B
:101A5C00BDF818502B46FFF7CFFF791E31442B46AB
:101A6C002246404609B2FFF7C7FF2B463A4631469D
:101A7C004046FFF7D4FF601E40442B463A463146A1
:101A8C00BDE8F04100B2FFF7CABF00005D4B70B576
:101A9C005D4C1D8800F0030310F00100237000F072
:101AAC009380F021594A022B11804FF4A071584AAF
:101ABC00118005D0032B6FD0012B6FD1282300E0B0
:101ACC0098234E21534A11804F21534A11802221D1
:101ADC00524A1180442252490A8052490A804521B7
:101AEC00514A11804621514A118008B183F0D0032C
:101AFC0013F0800F14BF4FF4A042002213F0400FDC
:101B0C0014BF4FF40070002040F23F1113F0200F6F
:101B1C0014BF0826002642EA000341EA4531194366
:101B2C0041F40061424B89B201201980FFF78CFE11
:101B3C0046F4C04141F070011120FFF785FE237877
:101B4C00DA0715D53B4B1B885B0511D4314A324B58
:101B5C001188188819801080334B314A18881188E5
:101B6C00108019802F4A314B1188188819801080E9
:101B7C000021264C264A23881288013B013A08464C
:101B8C0012B21BB2FFF7B4FE0022B4F900101046DB
:101B9C00BDE87040FFF799BEF82392E74E221D4B2B
:101BAC001A804F221C4B1A8022221C4B1A80442371
:101BBC001B4A13801B4A138045221B4B1A8046225A
:101BCC001A4B1A80482391E7022B3FF479AF032B71
:101BDC00E2D0012B3FF472AF4E220E4B1A804F22F3
:101BEC000D4B1A8022220D4B1A8044230C4A138071
:101BFC000C4A138045220C4B1A8046220B4B1A8040
:101C0C00482375E7DC0000209C020020080000201F
:101C1C000A000020100000201200002014000020F8
:101C2C00160000200C000020180000200E000020E0
:101C3C00D0000020D40000202DE9F047002ABDF888
:101C4C00209004DA95B26A42284412B200B2354DA3
:101C5C0002442E8812B2B242C8BF32B220EAE070FF
:101C6C0092B2161A002B36B204DA9FB27B42394478
:101C7C001BB209B22C4F0B44B7F800E01BB27345F2
:101C8C00C8BF0FFA8EF321EAE1719BB2A3EB0108F6
:101C9C00013A013B1BB212B2FFF72AFEFFF776FDA9
:101CAC00224B0FFA88F81888FFF7C3FD4645BEBFD4
:101CBC003346464698464FEA192A5FFA89F91FFAC5
:101CCC0088F80FFA88F3002B1BDCFFF767FD184B25
:101CDC001B88DA0709D5174B1A8841F226539A420A
:101CEC001DD1154B1B78DB0719D500213B882A88A1
:101CFC00013B013A1BB212B20846BDE8F047FFF7B0
:101D0C00F7BD34465046013CFFF780FD24B24846EF
:101D1C00FFF77CFD002CF5D108F1FF38CFE7BDE8CB
:101D2C00F08700BF0A0000200800002014000020EB
:101D3C00D40000209E0200209C02002073B50646B1
:101D4C0010460D46FFF794FC164B174C19681F23D1
:101D5C00207800930423691A21EAE1711A4609B22A
:101D6C00FFF76AFF23780133DBB2F42B02D8237020
:101D7C0002B070BD26700D4C002122680846136815
:101D8C0023F0010313604FF4FC634FF48272009351
:101D9C006B1DFFF751FF2268136843F001031360BA
:101DAC00E6E700BFA8000020D2000020A40200201B
:101DBC0010B5094CC82122680520136823F00103D3
:101DCC001360064B1A78FFF7B9FF2268136843F0CB
:101DDC000103136010BD00BFA40200201A000020F4
:101DEC0007B50021064B074AB3F90030B2F90020C1
:101DFC0000900846FFF720FF03B05DF804FB00BF1E
:101E0C00080000200A000020A0212DE9F04F8BB023
:101E1C000993BDF8543000260593BDF858309DF851
:101E2C005C9006939DF850301FFA82FA4B4307934F
:101E3C0008230493D04657460025BDF82430B4B28D
:101E4C001FFA89FB04FB0B3212B20392079A1C4453
:101E5C00A2EB8602089224B2089B1F4A03EB45139F
:101E6C001344DB69012B26D1B9F1010F19D1059A65
:101E7C000AEB0500214600B2FFF786FD01355F44F1
:101E8C00D844052DBFB21FFA88F8E5D1049B013662
:101E9C00013B13F0FF0376B20493CBD10BB0BDE83A
:101EAC00F08F059A0FFA89F300921A46039938B20B
:101EBC00FFF7C2FEE2E7B9F1010F03D10AEB05000F
:101ECC00069AD7E7069A0FFA89F3009203991A46F5
:101EDC000FFA88F0ECE700BF6C330008F0B50A2865
:101EEC0085B00BD10022204B1A80204A204B197848
:101EFC00138803EBC103138005B0F0BD0D28FBD094
:101F0C001C4B194C1A781A4D184B82B10621B4F996
:101F1C0000202E7801FB0621174AB2F900209142CD
:101F2C0005DD002222801A8802EBC6021A802F7867
:101F3C001249134EB3F90030368809880397114FB4
:101F4C00B4F900203F8802970F4F3F888DE881003D
:101F5C003046FFF759FF2B78228803EB430302EB43
:101F6C0043032380C8E700BFE6020020D600002010
:101F7C00E9020020E8020020A00200200800002056
:101F8C000A000020FE0200200003002038B50446A1
:101F9C00FEF7D6F82518AC4200D138BD14F8010B69
:101FAC00FFF79CFFF7E7000014232DE9F04FDFF853
:101FBC00F4904FF48C7B4FF4FC670425A9F80030A7
:101FCC001F23DFF8E4A0DFF8E480304E304C85B0FE
:101FDC003048A8F800300393AAF800B03780257079
:101FEC00FFF7D4FF039B4FF48771009328230F2036
:101FFC001A46FFF727FD5023A9F800304FF4784319
:10200C002548A8F800300393AAF800B03780257053
:10201C00FFF7BCFF039B4FF48771009328234B20E1
:10202C001A46FFF70FFD8C23A9F8003040F2FF731E
:10203C001A48A8F800300393AAF800B0378025702E
:10204C00FFF7A4FF039B4FF487710093282387208D
:10205C001A46FFF7F7FCC823A9F800304FF6FF79B2
:10206C000F48AAF800B0A8F8009037802570FFF749
:10207C008DFF2823CDF800901A464FF48771C320AA
:10208C00FFF7E0FC05B0BDE8F08F00BFFE020020BA
:10209C00E902002064330008663300086833000846
:1020AC006A330008D6000020E6020020000300205E
:1020BC0008B5FFF773FBFFF741FBFFF74FFBFFF78B
:1020CC007DFBFFF773FBBDE80840FFF777BB000013
:1020DC001FB502220323694603488DE80C00FEF766
:1020EC0017FD05B05DF804FB0008014008B5FFF7CB
:1020FC00EFFF012207484FF48071FEF7E9FDFFF76F
:10210C0035FB0122044B05481A60BDE80840FEF778
:10211C00E7B900BF000C01401C0000202802002081
:10212C001FB500220323022001218DE80F00694610
:10213C000248FEF7EDFC05B05DF804FB0008014019
:10214C001FB504220323694603488DE80C00FEF7F3
:10215C00DFFC05B05DF804FB0008014010B50D4C28
:10216C00002220464FF48071FEF7B2FDFFF7FEFA15
:10217C00FFF7E6FFFFF7F2FA204600224FF400715A
:10218C00FEF7A6FDBDE810400122034B03481A6080
:10219C00FEF7A6B9000C01401C000020280200200C
:1021AC0010B50E4C002220464FF48071FEF790FDC6
:1021BC00204601224FF40071FEF78AFDFFF7D6FA94
:1021CC00FFF7BEFFFFF7C2FAFFF782FFBDE8104032
:1021DC000122034B03481A60FEF782B9000C014040
:1021EC001C000020280200202DE9F0470025FFF7F5
:1021FC00D7FFA946134E144FDFF85480D6F800A031
:10220C00BAF1000F19D13C68D8F8003004F58054AD
:10221C00E41A0E4BC82C1C60D4BF00240124AC4221
:10222C0008BF09F1010A2546FFF7BAFFD146B9F1FB
:10223C00090FE3DD2846BDE8F0870120FDF7D0FF4C
:10224C00F5E700BF1C000020E0000020B8000020D3
:10225C00D80000202DE9F04F00258D4E9DB0FFF7E2
:10226C0045FF2C46B0468B4F3368002B40F00C8159
:10227C0040F2DB523B68934298BFE418FFF736FFFD
:10228C000135132DF0DD142294FBF2F2824D8349BB
:10229C0002A82A6000F0C0FB4FF4FC63502294218A
:1022AC00009328201223FFF7C7FC2823DFF808A28D
:1022BC00DFF80892AAF800309423A9F80030022322
:1022CC00774F02A83B700026FFF760FE01233446CF
:1022DC00C8F80030FFF742FFDFF8E4B1D8F800305F
:1022EC00002B40F0D380DBF800301C44FFF736FFA6
:1022FC000136132EF2DD142294FBF2F2694C67497D
:10230C000FA8226000F088FB4FF4FC63502200936E
:10231C00942112239A20FFF78FFC9A23AAF80030FD
:10232C009423A9F8003002230FA83B70FFF72EFE70
:10233C00FFF75AFF38B32B68C93BB3F5957F22D80A
:10234C002368153B6C2B1ED8574A584E1378002126
:10235C00053BDBB2052B98BF05231370326808468A
:10236C00136823F0010313604FF4FC62504B1B788D
:10237C00009205334FF48272FFF75EFC32681368EB
:10238C0043F001031360FFF72FFF10B32B68B53B2D
:10239C008A2B1ED82368473B762B1AD8424A434EC9
:1023AC00137800210533137032680846136823F044
:1023BC00010313604FF4FC623D4B1B780092053314
:1023CC004FF48272FFF738FC3268136843F0010354
:1023DC001360FFF709FF30B32B686F3B582B22D8E3
:1023EC002368653B6C2B1ED8324A304E1378002183
:1023FC000A33DBB213704FF08042D3623268084666
:10240C00136823F0010313604FF4FC62284B1B7814
:10241C00009205334FF48272FFF70EFC326813689A
:10242C0043F001031360FFF7DFFE50B32B68293B29
:10243C003A2B26D82368653B762B22D81D4B1B4C98
:10244C001A7800210A3AD2B20A2A98BF0A221A70C4
:10245C001A784FF08043DA6222680846136823F03A
:10246C00010313604FF4FC62114B1B78009205338F
:10247C004FF48272FFF7E0FB2268136843F001030C
:10248C0013601DB0BDE8F08F013DF9E6013E2FE76A
:10249C001C000020D8000020B00000206CD30008E5
:1024AC00E9020020B40000201A000020A402002041
:1024BC00BC0000201B000020E6020020D6000020FB
:1024CC00E00000201FB500220323042001218DE829
:1024DC000F0069460248FEF71BFB05B05DF804FBD4
:1024EC000008014008B502680B4B9A4212D10B4B05
:1024FC000B4A1968116059680A4A11609A680A4BAC
:10250C001A600022094B1A60FFF7DCFFBDE8084097
:10251C00FFF706BE08BD00BF00240140F0020020FA
:10252C00D8000020E0000020040300201C00002044
:10253C0038B50024FFF7F4FDFFF7C4FFFFF7B8FD33
:10254C000D4B0E4D1C804FF48153A4210C482B8055
:10255C00FFF7A8F92B880B4AC3F3003320461380EE
:10256C00FFF782F90320FFF791FABDE838404FF4EA
:10257C00FC60FFF735BC00BFE4020020D400002053
:10258C00C0320008DC00002080B5714C8CB0FDF727
:10259C0003FEFFF793F8A369002243F01003A36135
:1025AC00A3694FF4C04103F010030293029BA3698B
:1025BC00684843F02003A361A369002703F02003BC
:1025CC000393039BA369012643F00403A361A3694E
:1025DC004FF0020903F004030493049BA3694FF02A
:1025EC00030843F00803A361A3695B4D03F00803E0
:1025FC000593059BFEF76CFB002219215748FEF74B
:10260C0067FB00224FF47F615548FEF761FB4FF4E6
:10261C00C04308A94F48089309960A97CDF82C9007
:10262C00FEF776FA192308A94C48089309960A97DD
:10263C00CDF82C80FEF76CFA062308A947480893BE
:10264C00CDF82480FEF764FA4FF47F6308A9444860
:10265C00089309960A97CDF82C80FEF759FA63690E
:10266C003A463343636163693946334001930B2027
:10267C00019BFEF7DFF80B20FEF710F9394B2846CB
:10268C002B604FF48073AB604FF46023EF606F618D
:10269C00EB616F60C5F81080FEF738F800B1FEE70B
:1026AC000A9008A9284608960996FDF75DFE00B128
:1026BC00FEE708A92846CDF82090CDF82490FDF728
:1026CC0053FE00B1FEE7082308A928460893CDF86D
:1026DC002480FDF749FE00B1FEE748F69F434FF01A
:1026EC008042214C84E80C00204BA0601B782061B8
:1026FC00A0612046E360FEF77DFF00B1FEE74FF4DA
:10270C00805308A920460893FEF7DDFD00B1FEE7D3
:10271C000690079006A92046FEF786FF00B1FEE75B
:10272C0041F28920FFF704FF284642461049FDF785
:10273C003DFF104D2B782BB9FFF736FC2046FEF7EA
:10274C00B7FD2E704B20FDF74BFDFFF783FDF1E736
:10275C000010024000100140280200200008014037
:10276C00000C014000240140A40200201B000020AA
:10277C00F0020020AC000020FEE70000254B07B55E
:10278C009A69032042F001029A619A6902F00102EF
:10279C000092009ADA6942F08052DA61DB6903F048
:1027AC0080530193019BFEF733F800226FF00B006E
:1027BC001146FEF73FF800226FF00A001146FEF7B3
:1027CC0039F800226FF009001146FEF733F80022A9
:1027DC006FF004001146FEF72DF800226FF0030095
:1027EC001146FEF727F800226FF001001146FEF7A4
:1027FC0021F800224FF0FF301146FEF71BF8064A75
:10280C00536823F0E06343F00073536003B05DF84A
:10281C0004FB00BF001002400000014030B502680C
:10282C00214B87B09A4205463CD103F56C439A691B
:10283C00032442F400729A619B6902A903F40073A9
:10284C000193019B0623194802930394FEF760F948
:10285C000123174802A902930394FEF759F9802229
:10286C00144C154BE2604FF4007222614FF400627D
:10287C00236062610023202220466360A360A26172
:10288C00E361FEF73FF818B17B210C48FFF774FFAA
:10289C0000222C62122011466562FDF7CBFF12203C
:1028AC00FDF7FCFF07B030BD0024014000080140DB
:1028BC00000C014058020020080002406FD30008B1
:1028CC00036807B5B3F1804F12D103F50433DA690D
:1028DC001C2042F00102DA610022DB69114603F090
:1028EC0001030193019BFDF7A5FF1C20FDF7D6FF0B
:1028FC0003B05DF804FB7047FEE7FEE7FEE7FEE77A
:10290C0070477047704708B5FDF758FCBDE80840A4
:10291C00FDF7F3BF0148FEF767B800BF580200206F
:10292C000148FDF79DBC00BF280200200148FEF7BE
:10293C0087BD00BFA40200200F4B1A6842F00102B1
:10294C001A6059680D4A0A405A601A6822F084725B
:10295C0022F480321A601A6822F480221A605A68B3
:10296C0022F4FE025A604FF41F029A604FF000628C
:10297C00034B9A60704700BF001002400000FFF844
:10298C0000ED00E0002103E00B4B5B584350043199
:10299C000A480B4B42189A42F6D30A4A02E000232B
:1029AC0042F8043B084B9A42F9D3FFF7C5FF00F0FD
:1029BC000FF8FFF7E9FD7047D8D30008000000209E
:1029CC0088000020880000200C030020FEE7000097
:1029DC0070B500250C4E0D4CA41BA410A54209D1BA
:1029EC0000F054FC00250A4E0A4CA41BA410A5426E
:1029FC0005D170BD56F8253098470135EEE756F8ED
:102A0C00253098470135F2E7D0D30008D0D3000821
:102A1C00D0D30008D4D300080EB44FF4027100B523
:102A2C009CB0ADF814106FF00041049107914FF673
:102A3C00FF711DAB02900690084853F8042BADF8BB
:102A4C001610006802A9019300F066F80022029BA0
:102A5C001A701CB05DF804EB03B070472400002022
:102A6C002DE9F0478E6882469E420C469146984668
:102A7C0035D88A8912F4906F31D002232568096900
:102A8C006F1A656905EB450595FBF3F508F1010334
:102A9C003B449D4238BF1D46530531D5294600F0B5
:102AAC0047FB064650B90C23CAF80030A3894FF0F7
:102ABC00FF3043F04003A381BDE8F0873A4621691B
:102ACC0000F0C4FAA38923F4906343F08003A3813C
:102ADC0026613E44266046466561ED1BA560464571
:102AEC0028BF464649463246206800F0BAFAA36829
:102AFC0000209B1BA36023681E442660BDE8F08762
:102B0C002A4600F073FB06460028E1D121695046A5
:102B1C0000F0C2FAC7E700002DE9F04F9DB0039317
:102B2C008B8980461C060D4616460FD50B696BB972
:102B3C00402100F0FDFA2860286128B90C23C8F860
:102B4C0000304FF0FF30C4E040236B610023099349
:102B5C0020238DF8293030234FF0010B8DF82A30CB
:102B6C0037463C4614F8013B002B3CD1B7EB060A28
:102B7C000BD05346324629464046FFF771FF0130D1
:102B8C0000F0A280099B534409933B78002B00F082
:102B9C009B8000234FF0FF3204930793059206931A
:102BAC008DF853301A9305222178504800F040FAE2
:102BBC00671C049BD8B9D90644BF20228DF853203A
:102BCC001A0744BF2B228DF8532022782A2A16D0BC
:102BDC0000210A20079A27463B780134303B092B09
:102BEC0050D9C9B111E0252BC0D02746B9E73F4ACF
:102BFC003C46801A0BFA00F018430490D3E7039A72
:102C0C00111D12680391002A01DB079204E0524265
:102C1C0043F00203079204933B782E2B0DD17B7863
:102C2C00791C2A2B32D1039B02371A1D1B68039285
:102C3C00002BB8BF4FF0FF3305932D4C032239788E
:102C4C00204600F0F5F938B14023001B03FA00F0E0
:102C5C00049B0137034304933978062225487E1CD4
:102C6C008DF8281000F0E4F9002835D0224BFBB980
:102C7C00039B073323F0070308330393099B4B444F
:102C8C0009936DE700FB02320121A4E700230A241B
:102C9C00184605930F463A780131303A092A03D980
:102CAC00002BCAD00590C8E704FB00200123F1E7F4
:102CBC0003AB00932A46114B04A94046AFF30080A6
:102CCC00B0F1FF3F8146D9D1AB895B063FF539AFF7
:102CDC0009981DB0BDE8F08F03AB00932A46074B53
:102CEC0004A9404600F084F8EAE700BF9AD3000834
:102CFC00A0D30008A4D30008000000006D2A00082F
:102D0C002DE9F04791461F468A680B6906469342A7
:102D1C00B8BF1346C9F8003091F843200C46DDF8D3
:102D2C00208012B10133C9F800302368990642BFE4
:102D3C00D9F800300233C9F80030256815F00605C3
:102D4C0007D104F1190AE368D9F800209B1A9D42B7
:102D5C002ADB94F843302268003318BF0123920613
:102D6C002FD404F1430239463046C047013022D0FB
:102D7C002368E56803F00603042B18BF0025D9F877
:102D8C0000204FF0000908BFAD1AA368226908BFE4
:102D9C0025EAE5759342C4BF9B1AED181A344D45CC
:102DAC001BD10020BDE8F08701235246394630463E
:102DBC00C047013003D14FF0FF30BDE8F08701353B
:102DCC00C1E73020E11881F843005A1C94F84510F3
:102DDC002244023382F84310C3E7012322463946CA
:102DEC003046C0470130E6D009F10109D7E70000B1
:102DFC002DE9F04317460A7E85B06E2A98460646A2
:102E0C000C460C9B01F1430E00F0BC801AD8632ACF
:102E1C002ED00AD8002A00F0C880582A00F08A80E8
:102E2C0004F1420584F842202AE0642A01D0692A80
:102E3C00F6D121681A6811F0800F23D0111D19608A
:102E4C00136827E0732A00F0B48008D86F2A2AD0C0
:102E5C00702AE5D10A6842F020020A6003E0752A64
:102E6C0021D0782ADCD178226F4984F8452064E09F
:102E7C001A6801F14205111D1960136884F842307B
:102E8C000123A3E011F0400F02F104011960D7D027
:102E9C00B2F90030002B03DA2D225B4284F8432078
:102EAC0062490A2217E02068196810F0800F03D0DD
:102EBC00081D18600B6806E010F0400F01F10400CB
:102ECC001860F7D00B886F2A14BF0A2208225749C2
:102EDC00002084F843006568002DA560C0F29C803A
:102EEC00206820F004002060002B3FD1002D40F022
:102EFC0095807546082A0BD12368DA0708D5236913
:102F0C0062689A42DEBF302305F8013C05F1FF35BB
:102F1C00AEEB05032361CDF800803B4603AA2146A6
:102F2C003046FFF7EDFE013055D14FF0FF3005B0C4
:102F3C00BDE8F08381F845203C492268186812F0FE
:102F4C00800F00F104051D6001D0036802E05506F6
:102F5C00FBD50388D00744BF42F0200222601BB986
:102F6C00226822F0200222601022B1E77546B3FBE2
:102F7C00F2F002FB1033CB5C05F8013D0346002850
:102F8C00F5D1B7E708681A6810F0800F496904D0CA
:102F9C00101D18601368196007E010F0400F02F163
:102FAC00040018601368F6D019800023754623615D
:102FBC00B1E71A68111D196015680021626828466E
:102FCC0000F036F808B1401B606063682361002391
:102FDC0084F843309FE723692A4639463046C04778
:102FEC000130A2D023689B0707D5002504F11909ED
:102FFC00E368039A9B1A9D4205DBE068039B9842A9
:10300C00B8BF184693E701234A4639463046C047B5
:10301C0001308AD00135EBE7002BA7D10B7804F1F6
:10302C00420584F8423065E7BCD30008ABD30008F6
:10303C0010B5C9B202449042034601D1002010BD24
:10304C001C7801308C42F6D1184610BD10B5431EC9
:10305C000A44914200D110BD11F8014B03F8014F05
:10306C00F7E7884210B501EB020303D8421E9942E0
:10307C000CD110BD9842F9D28118D21AD34200D18A
:10308C0010BD13F8014D01F8014DF7E711F8014B94
:10309C0002F8014FEBE7000038B50546002943D094
:1030AC0051F8043C0C1F002BB8BFE41800F0D4F806
:1030BC001E4A1368104633B9636014602846BDE895
:1030CC00384000F0CAB8A3420BD921686218934269
:1030DC0001BF1A685B685218226063600460EDE7F8
:1030EC0013465A680AB1A242FAD919685818A04274
:1030FC000BD120680144581882421960DED1106847
:10310C005268014419605A60D8E702D90C232B602D
:10311C00D4E7206821188A4201BF11685268091847
:10312C00216062605C60C9E738BD00BFC000002050
:10313C0070B5CD1C25F0030508350C2D38BF0C25BA
:10314C00002D064601DBA94203D90C233360002075
:10315C0070BD00F081F8234A1468214691B9224CC5
:10316C0023681BB9304600F067F8206029463046CA
:10317C0000F062F8431C26D10C233046336000F07B
:10318C006CF8E4E70B685B1B1AD40B2B0FD90B60A4
:10319C00CC18CD50304600F060F804F10B00231D24
:1031AC0020F00700C31A1BD05A42E25070BD8C426B
:1031BC000BBF63684B681360636018BF0C46E9E78C
:1031CC000C464968CAE7C41C24F00304A04205D08D
:1031DC00211A304600F030F80130CDD02560D9E707
:1031EC0070BD00BFC0000020C4000020F8B5074629
:1031FC0014460E4621B91146BDE8F840FFF798BFBA
:10320C0022B9FFF749FF25462846F8BD00F026F8FD
:10321C0084420FD921463846FFF78AFF054600281D
:10322C00F2D031462246FFF711FF31463846FFF700
:10323C0033FFE9E73546E7E738B50023054C05468B
:10324C000846236000F014F8431C02D1236803B134
:10325C002B6038BD080300207047704751F8040CF0
:10326C000028A0F10400BCBF0B58C0187047000028
:10327C00044B0246196809B90349196018680244DD
:10328C001A607047C80000200C030020F8B500BF7E
:10329C00F8BC08BC9E467047F8B500BFF8BC08BC2B
:0432AC009E46704783
:1032B00002030405060708090A0B0C0D0E0F101077
:1032C000000001000300A4A80C0000000D000C0881
:1032D0000E00002B1E00B70001003F2B020000046F
:1032E00010000000110070600500000006000000E2
:1032F00016001CEF17000300070033020B0000004C
:103300000F000000410000004200000048000000E3
:1033100049003F014A0000004B000000440095EFC7
:103320004500000046003F0130000707310004025D
:1033300032000402330002053400070535000402A0
:1033400036000402370002053A0002033B00020384
:103350002300000024000000250000804F00000032
:103360004E000000550044005400530000000000CF
:10337000000000000000000000000000000000004D
:10338000000000000000000000000000000000003D
:10339000000000000000000000000000000000002D
:1033A000000000000000000000000000000000001D
:103D80000100000001000000010000000000000030
:103D90000000000000000000000000000000000023
:103DA0000000000000000000000000000000000013
:103DB0000000000000000000000000000000000003
:103DC00000000000000000000000000000000000F3
:103DD00000000000000000000000000000000000E3
:103DE00000000000000000000000000000000000D3
:103DF00000000000000000000000000000000000C3
:103E000000000000000000000000000000000000B2
:103E1000010000000100000001000000010000009E
:103E2000010000000100000001000000000000008F
:103E3000010000000100000001000000010000007E
:103E4000010000000100000001000000000000006F
:103E50000000000000000000000000000000000062
:103E60000000000000000000000000000000000052
:103E70000000000000000000000000000000000042
:103E80000000000000000000000000000000000032
:103E90000000000000000000000000000000000022
:103EA0000000000000000000000000000000000012
:103EB00001000000010000000100000001000000FE
:103EC00001000000010000000100000000000000EF
:103ED00001000000010000000100000001000000DE
:103EE00001000000010000000100000000000000CF
:103EF00001000000010000000100000001000000BE
:103F000001000000010000000100000000000000AE
:103F100000000000000000000000000000000000A1
:103F20000000000000000000000000000000000091
:103F30000000000000000000000000000000000081
:103F40000000000000000000000000000000000071
:103F5000010000000100000001000000010000005D
:103F6000010000000100000001000000000000004E
:103F7000010000000100000001000000010000003D
:103F8000010000000100000001000000000000002E
:103F9000010000000100000001000000010000001D
:103FA000010000000100000001000000000000000E
:103FB00001000000010000000100000001000000FD
:103FC00001000000010000000100000000000000EE
:103FD00000000000000000000000000000000000E1
:103FE00000000000000000000000000000000000D1
:103FF00001000000010000000100000001000000BD
:1040000001000000010000000100000000000000AD
:10401000010000000100000001000000010000009C
:10402000010000000100000001000000000000008D
:10403000010000000100000001000000010000007C
:10404000010000000100000001000000000000006D
:10405000010000000100000001000000010000005C
:10406000010000000100000001000000000000004D
:10407000010000000100000001000000010000003C
:10408000010000000100000001000000000000002D
:104090000000000000000000000000000000000020
:1040A0000000000000000000000000000000000010
:1040B00001000000010000000100000001000000FC
:1040C00001000000010000000100000000000000ED
:1040D00001000000010000000100000001000000DC
:1040E00001000000010000000100000000000000CD
:1040F00001000000010000000100000001000000BC
:1041000001000000010000000100000000000000AC
:10411000010000000100000001000000010000009B
:10412000010000000100000001000000000000008C
:10413000000000000000000000000000000000007F
:10414000000000000000000000000000000000006F
:10415000000000000000000000000000000000005F
:10416000000000000000000000000000000000004F
:10417000010000000100000001000000010000003B
:10418000010000000100000001000000000000002C
:10419000010000000100000001000000010000001B
:1041A000010000000100000001000000000000000C
:1041B00001000000010000000100000001000000FB
:1041C00001000000010000000100000000000000EC
:1041D00000000000000000000000000000000000DF
:1041E00000000000000000000000000000000000CF
:1041F00000000000000000000000000000000000BF
:1042000000000000000000000000000000000000AE
:10421000000000000000000000000000000000009E
:10422000000000000000000000000000000000008E
:10423000010000000100000001000000010000007A
:10424000010000000100000001000000000000006B
:10425000010000000100000001000000010000005A
:10426000010000000100000001000000000000004B
:10427000000000000000000000000000000000003E
:10428000000000000000000000000000000000002E
:10429000000000000000000000000000000000001E
:1042A000000000000000000000000000000000000E
:1042B00000000000000000000000000000000000FE
:1042C00000000000000000000000000000000000EE
:1042D00000000000000000000000000000000000DE
:1042E00000000000000000000000000000000000CE
:1042F00001000000010000000100000001000000BA
:1043000001000000010000000100000000000000AA
:10431000010000000100000000000000000000009B
:10432000000000000000000000000000000000008D
:10433000010000000100000001000000000000007A
:10434000000000000000000000000000000000006D
:10435000000000000100000001000000010000005A
:10436000010000000100000001000000000000004A
:10437000000000000000000000000000000000003D
:10438000000000000100000000000000000000002C
:10439000000000000100000001000000010000001A
:1043A000010000000000000000000000000000000C
:1043B00000000000000000000000000000000000FD
:1043C00000000000010000000100000000000000EB
:1043D00000000000000000000000000000000000DD
:1043E00000000000010000000100000000000000CB
:1043F00000000000010000000100000000000000BB
:1044000000000000000000000000000000000000AC
:10441000010000000000000000000000010000009A
:10442000000000000000000000000000000000008C
:10443000010000000000000000000000010000007A
:10444000000000000000000000000000000000006C
:10445000000000000000000000000000000000005C
:10446000000000000100000001000000000000004A
:104470000100000001000000010000000100000038
:10448000000000000100000001000000000000002A
:10449000000000000100000000000000010000001A
:1044A000000000000000000000000000000000000C
:1044B00000000000010000000000000001000000FA
:1044C00000000000000000000000000000000000EC
:1044D00000000000000000000000000001000000DB
:1044E00000000000000000000000000000000000CC
:1044F00000000000000000000000000000000000BC
:1045000001000000000000000000000000000000AA
:10451000000000000000000000000000010000009A
:10452000010000000000000000000000000000008A
:104530000000000000000000010000000100000079
:10454000010000000000000000000000000000006A
:10455000000000000000000000000000010000005A
:10456000010000000000000000000000000000004A
:10457000000000000000000000000000000000003B
:10458000010000000000000000000000000000002A
:10459000000000000000000000000000000000001B
:1045A000000000000000000000000000000000000B
:1045B00000000000010000000100000001000000F8
:1045C00001000000010000000000000000000000E9
:1045D00000000000000000000100000001000000D9
:1045E00001000000000000000000000000000000CA
:1045F00000000000000000000000000001000000BA
:1046000000000000000000000000000000000000AA
:10461000000000000000000000000000000000009A
:10462000000000000000000000000000000000008A
:10463000000000000000000000000000000000007A
:10464000000000000000000000000000000000006A
:104650000000000000000000000000000100000059
:10466000000000000000000000000000000000004A
:104670000000000000000000010000000100000038
:104680000100000000000000000000000000000029
:104690000000000001000000010000000100000017
:1046A0000100000001000000000000000000000008
:1046B00000000000000000000000000000000000FA
:1046C00000000000000000000000000000000000EA
:1046D00000000000000000000100000000000000D9
:1046E00000000000000000000000000000000000CA
:1046F00000000000000000000100000001000000B8
:1047000000000000000000000000000000000000A9
:104710000000000000000000010000000100000097
:104720000100000000000000000000000000000088
:104730000000000000000000010000000100000077
:104740000000000000000000000000000000000069
:104750000000000000000000010000000000000058
:104760000000000000000000000000000000000049
:104770000000000000000000000000000000000039
:104780000000000000000000000000000000000029
:104790000000000000000000000000000000000019
:1047A0000000000000000000000000000000000009
:1047B00000000000000000000000000000000000F9
:1047C00000000000000000000000000000000000E9
:1047D00000000000000000000000000000000000D9
:1047E00000000000000000000000000000000000C9
:1047F00000000000000000000000000000000000B9
:1048000000000000000000000000000000000000A8
:104810000000000000000000000000000000000098
:104820000000000000000000000000000000000088
:104830000000000000000000000000000000000078
:104840000000000000000000000000000000000068
:104850000100000000000000010000000100000055
:104860000100000001000000010000000000000045
:104870000000000000000000000000000000000038
:104880000000000000000000000000000000000028
:104890000000000000000000000000000000000018
:1048A0000000000000000000000000000000000008
:1048B00000000000000000000000000000000000F8
:1048C00000000000000000000000000000000000E8
:1048D00000000000000000000000000000000000D8
:1048E00001000000010000000100000000000000C5
:1048F00000000000000000000000000000000000B8
:1049000000000000000000000000000000000000A7
:104910000000000000000000000000000000000097
:104920000100000001000000010000000000000084
:104930000000000000000000000000000000000077
:104940000000000000000000000000000000000067
:104950000000000000000000010000000000000056
:104960000100000000000000000000000000000046
:104970000100000001000000010000000100000033
:104980000100000001000000010000000000000024
:104990000000000000000000010000000000000016
:1049A0000100000000000000000000000000000006
:1049B00001000000010000000100000001000000F3
:1049C00001000000010000000100000000000000E4
:1049D00000000000000000000100000000000000D6
:1049E00001000000000000000000000000000000C6
:1049F00000000000010000000000000000000000B6
:104A000001000000000000000000000000000000A5
:104A10000000000001000000000000000100000094
:104A20000000000001000000000000000000000085
:104A30000100000001000000010000000100000072
:104A40000100000001000000010000000000000063
:104A50000000000001000000000000000100000054
:104A60000000000001000000000000000000000045
:104A70000000000000000000010000000000000035
:104A80000000000001000000000000000000000025
:104A90000000000001000000000000000000000015
:104AA0000000000001000000010000000000000004
:104AB00000000000000000000100000000000000F5
:104AC00000000000010000000100000000000000E4
:104AD00000000000000000000000000001000000D5
:104AE00000000000000000000000000000000000C6
:104AF00001000000010000000000000000000000B4
:104B000001000000000000000000000000000000A4
:104B10000100000001000000000000000000000093
:104B20000000000001000000000000000000000084
:104B30000000000001000000010000000000000073
:104B40000100000001000000000000000000000063
:104B50000100000000000000000000000100000053
:104B60000000000000000000010000000000000044
:104B70000100000000000000010000000000000033
:104B80000100000000000000010000000000000023
:104B90000000000001000000000000000000000014
:104BA0000000000001000000000000000000000004
:104BB00001000000000000000100000000000000F3
:104BC00000000000000000000000000000000000E5
:104BD00000000000000000000000000000000000D5
:104BE00000000000000000000000000000000000C5
:104BF00000000000000000000000000000000000B5
:104C000001000000000000000100000000000000A2
:104C10000000000000000000000000000000000094
:104C20000000000001000000010000000000000082
:104C30000000000000000000000000000000000074
:104C40000000000000000000000000000000000064
:104C50000000000000000000000000000000000054
:104C60000000000000000000000000000000000044
:104C70000000000000000000000000000000000034
:104C80000000000000000000000000000000000024
:104C90000000000000000000010000000100000012
:104CA0000100000000000000000000000000000003
:104CB00000000000010000000000000000000000F3
:104CC00000000000010000000000000000000000E3
:104CD00001000000000000000000000000000000D3
:104CE00000000000000000000100000000000000C3
:104CF00000000000000000000000000000000000B4
:104D000000000000000000000000000000000000A3
:104D10000000000000000000000000000000000093
:104D20000000000000000000000000000000000083
:104D30000100000000000000000000000000000072
:104D40000000000000000000010000000000000062
:104D50000000000001000000000000000000000052
:104D60000000000001000000000000000000000042
:104D70000000000000000000010000000100000031
:104D80000100000000000000000000000000000022
:104D90000000000000000000000000000000000013
:104DA0000000000000000000000000000000000003
:104DB00000000000000000000000000001000000F2
:104DC00000000000000000000000000000000000E3
:104DD00000000000010000000000000001000000D1
:104DE00000000000010000000000000000000000C2
:104DF00000000000000000000100000001000000B1
:104E000001000000000000000000000000000000A1
:104E10000000000001000000000000000100000090
:104E20000000000001000000000000000000000081
:104E30000000000000000000000000000100000071
:104E40000000000000000000000000000000000062
:104E50000000000000000000000000000100000051
:104E60000000000000000000000000000000000042
:104E70000000000000000000000000000100000031
:104E80000000000000000000000000000000000022
:104E9000000000000100000001000000010000000F
:104EA0000100000001000000000000000000000000
:104EB00000000000000000000000000001000000F1
:104EC00000000000000000000000000000000000E2
:104ED00000000000000000000000000001000000D1
:104EE00000000000000000000000000000000000C2
:104EF00000000000000000000000000000000000B2
:104F000000000000000000000000000000000000A1
:104F1000010000000000000001000000000000008F
:104F20000000000000000000000000000000000081
:104F3000000000000100000001000000000000006F
:104F40000000000000000000000000000000000061
:104F50000000000000000000000000000000000051
:104F60000000000000000000000000000000000041
:104F70000000000000000000000000000000000031
:104F80000000000000000000000000000000000021
:104F90000000000000000000000000000100000010
:104FA0000000000000000000000000000000000001
:104FB00000000000000000000000000001000000F0
:104FC00000000000000000000000000000000000E1
:104FD00000000000000000000000000001000000D0
:104FE00000000000000000000000000000000000C1
:104FF00000000000000000000000000001000000B0
:1050000000000000000000000000000000000000A0
:10501000000000000000000000000000010000008F
:105020000000000000000000000000000000000080
:105030000000000000000000000000000000000070
:105040000000000000000000000000000000000060
:10505000010000000100000000000000000000004E
:105060000000000000000000000000000000000040
:10507000010000000100000000000000000000002E
:105080000000000000000000000000000000000020
:105090000000000000000000000000000000000010
:1050A0000000000000000000000000000000000000
:1050B00000000000000000000000000000000000F0
:1050C00000000000000000000000000000000000E0
:1050D00000000000010000000000000000000000CF
:1050E00000000000000000000000000000000000C0
:1050F00000000000000000000100000000000000AF
:10510000000000000000000000000000000000009F
:10511000000000000000000000000000010000008E
:10512000000000000000000000000000000000007F
:10513000000000000000000000000000000000006F
:10514000010000000000000000000000000000005E
:10515000000000000000000000000000000000004F
:10516000000000000100000000000000000000003E
:10517000000000000100000001000000010000002C
:10518000010000000100000000000000000000001D
:10519000010000000000000001000000000000000D
:1051A00000000000000000000100000000000000FE
:1051B00001000000000000000000000001000000ED
:1051C00000000000000000000100000000000000DE
:1051D00001000000000000000000000000000000CE
:1051E00001000000000000000100000000000000BD
:1051F00000000000010000000100000001000000AC
:10520000010000000100000000000000000000009C
:10521000000000000000000000000000000000008E
:10522000000000000000000000000000000000007E
:10523000010000000000000000000000000000006D
:10524000000000000100000000000000000000005D
:10525000010000000100000001000000010000004A
:10526000010000000100000001000000000000003B
:10527000010000000000000000000000000000002D
:10528000000000000000000000000000000000001E
:10529000000000000000000000000000000000000E
:1052A00000000000000000000000000000000000FE
:1052B00001000000000000000000000000000000ED
:1052C00000000000010000000000000000000000DD
:1052D00001000000010000000000000000000000CC
:1052E00000000000000000000100000000000000BD
:1052F00001000000000000000100000000000000AC
:10530000000000000000000001000000000000009C
:10531000010000000000000000000000010000008B
:10532000000000000000000001000000000000007C
:10533000010000000000000000000000000000006C
:10534000010000000100000000000000000000005B
:10535000000000000100000000000000000000004C
:10536000000000000000000001000000000000003C
:10537000010000000000000000000000000000002C
:10538000000000000000000001000000000000001C
:10539000010000000000000000000000000000000C
:1053A00001000000000000000100000000000000FB
:1053B00001000000000000000000000001000000EB
:1053C00000000000010000000100000000000000DB
:1053D00000000000010000000100000000000000CB
:1053E00000000000000000000100000000000000BC
:1053F00000000000000000000100000001000000AB
:10540000000000000000000000000000000000009C
:10541000000000000000000001000000000000008B
:10542000010000000000000000000000000000007B
:10543000000000000000000001000000000000006B
:10544000000000000100000000000000000000005B
:105450000100000001000000010000000100000048
:105460000100000001000000010000000000000039
:10547000000000000000000001000000000000002B
:10548000000000000000000000000000000000001C
:10549000000000000100000000000000000000000B
:1054A00001000000010000000100000000000000F9
:1054B00001000000000000000000000000000000EB
:1054C00001000000000000000100000000000000DA
:1054D00001000000000000000000000000000000CB
:1054E00001000000000000000100000000000000BA
:1054F00001000000000000000000000000000000AB
:105500000100000000000000010000000000000099
:105510000000000001000000010000000100000088
:10552000000000000000000001000000000000007A
:105530000000000001000000010000000100000068
:10554000010000000000000000000000000000005A
:105550000100000000000000000000000100000049
:10556000000000000100000000000000000000003A
:105570000100000000000000000000000100000029
:10558000000000000000000001000000000000001A
:105590000100000000000000000000000100000009
:1055A00000000000000000000100000000000000FA
:1055B00000000000010000000100000000000000E9
:1055C00000000000000000000000000000000000DB
:1055D00000000000000000000000000000000000CB
:1055E00000000000000000000100000000000000BA
:1055F00001000000010000000100000000000000A8
:105600000000000000000000010000000000000099
:105610000000000000000000000000000100000089
:105620000000000000000000010000000000000079
:10563000000000000000000000000000000000006A
:105640000100000000000000010000000000000058
:10565000000000000000000000000000000000004A
:105660000000000001000000010000000000000038
:105670000000000001000000010000000000000028
:105680000100000001000000000000000000000018
:105690000100000000000000000000000100000008
:1056A00000000000000000000100000000000000F9
:1056B00001000000000000000000000001000000E8
:1056C00000000000000000000100000000000000D9
:1056D00001000000000000000000000001000000C8
:1056E00000000000000000000100000000000000B9
:1056F00000000000010000000100000000000000A8
:105700000100000001000000000000000000000097
:105710000000000000000000000000000000000089
:105720000100000001000000000000000000000077
:105730000100000000000000000000000100000067
:105740000000000000000000010000000000000058
:105750000100000000000000000000000100000047
:105760000000000000000000010000000000000038
:105770000000000001000000000000000100000027
:105780000000000000000000010000000000000018
:105790000000000000000000010000000100000007
:1057A00001000000010000000000000000000000F7
:1057B00000000000000000000000000000000000E9
:1057C00000000000000000000000000000000000D9
:1057D00000000000010000000100000000000000C7
:1057E00001000000010000000000000000000000B7
:1057F00000000000010000000100000000000000A7
:105800000100000001000000000000000000000096
:105810000000000000000000000000000000000088
:105820000000000000000000000000000000000078
:105830000000000000000000000000000000000068
:105840000000000000000000000000000000000058
:105850000000000000000000000000000000000048
:105860000000000000000000000000000000000038
:105870000100000000000000010000000000000026
:105880000100000001000000000000000000000016
:105890000000000001000000010000000000000006
:1058A00001000000010000000000000000000000F6
:1058B00000000000000000000000000000000000E8
:1058C00000000000000000000000000000000000D8
:1058D00000000000000000000000000000000000C8
:1058E00000000000000000000000000000000000B8
:1058F00000000000000000000000000000000000A8
:105900000000000000000000000000000000000097
:105910000000000000000000000000000100000086
:105920000000000000000000000000000000000077
:105930000000000000000000010000000000000066
:105940000100000000000000000000000000000056
:105950000000000001000000000000000000000046
:105960000000000001000000000000000000000036
:105970000100000000000000000000000000000026
:105980000000000000000000010000000000000016
:105990000000000000000000010000000000000006
:1059A00001000000000000000000000000000000F6
:1059B00000000000000000000100000000000000E6
:1059C00001000000000000000000000000000000D6
:1059D00000000000000000000100000000000000C6
:1059E00001000000000000000000000000000000B6
:1059F00000000000000000000100000000000000A6
:105A00000100000000000000000000000000000095
:105A10000000000000000000010000000000000085
:105A20000100000000000000000000000000000075
:105A30000100000000000000000000000000000065
:105A40000000000000000000010000000000000055
:105A50000000000001000000000000000000000045
:105A60000000000001000000000000000000000035
:105A70000000000000000000010000000000000025
:105A80000100000000000000000000000000000015
:105A90000000000000000000000000000100000005
:105AA00000000000000000000000000000000000F6
:105AB00000000000000000000000000000000000E6
:105AC00000000000000000000000000000000000D6
:105AD00000000000000000000000000000000000C6
:105AE00000000000010000000000000000000000B5
:105AF00000000000000000000000000000000000A6
:105B00000000000000000000010000000000000094
:105B10000100000000000000010000000000000083
:105B20000000000000000000010000000000000074
:105B30000000000000000000000000000100000064
:105B40000000000000000000010000000000000054
:105B50000000000000000000000000000000000045
:105B60000100000001000000000000000000000033
:105B70000000000001000000010000000000000023
:105B80000000000001000000000000000000000014
:105B90000100000000000000000000000100000003
:105BA00000000000000000000100000000000000F4
:105BB00001000000010000000100000001000000E1
:105BC00000000000000000000100000000000000D4
:105BD00001000000000000000000000000000000C4
:105BE00000000000000000000100000000000000B4
:105BF00000000000010000000100000001000000A2
:105C00000100000001000000000000000000000092
:105C10000100000001000000010000000100000080
:105C20000100000001000000000000000000000072
:105C30000000000000000000010000000000000063
:105C40000000000000000000010000000000000053
:105C50000000000000000000010000000000000043
:105C60000000000000000000010000000000000033
:105C70000000000000000000010000000000000023
:105C80000000000000000000010000000000000013
:105C90000100000001000000010000000100000000
:105CA00001000000010000000000000000000000F2
:105CB00001000000010000000100000001000000E0
:105CC00001000000010000000100000000000000D1
:105CD00001000000000000000000000001000000C2
:105CE00000000000000000000100000000000000B3
:105CF00001000000000000000000000001000000A2
:105D00000000000000000000010000000000000092
:105D10000100000000000000000000000100000081
:105D20000000000000000000010000000000000072
:105D30000000000001000000010000000000000061
:105D40000100000001000000000000000000000051
:105D50000000000001000000010000000100000040
:105D60000100000001000000000000000000000031
:105D70000100000000000000000000000000000022
:105D80000000000000000000010000000000000012
:105D90000100000000000000000000000000000002
:105DA00000000000000000000100000000000000F2
:105DB00001000000000000000000000000000000E2
:105DC00000000000000000000100000000000000D2
:105DD00000000000010000000000000000000000C2
:105DE00000000000010000000000000000000000B2
:105DF000010000000100000001000000010000009F
:105E0000010000000100000001000000000000008F
:105E10000100000000000000000000000000000081
:105E20000000000000000000010000000000000071
:105E30000100000000000000000000000000000061
:105E40000000000000000000010000000000000051
:105E50000000000001000000000000000000000041
:105E60000000000001000000000000000000000031
:105E70000000000000000000010000000100000020
:105E80000100000000000000000000000000000011
:105E900001000000010000000100000001000000FE
:105EA00001000000010000000100000000000000EF
:105EB00001000000000000000000000001000000E0
:105EC00000000000000000000100000000000000D1
:105ED00001000000000000000000000001000000C0
:105EE00000000000000000000100000000000000B1
:105EF00001000000000000000000000001000000A0
:105F00000000000000000000010000000000000090
:105F10000100000000000000000000000000000080
:105F20000000000000000000010000000000000070
:105F3000010000000100000001000000010000005D
:105F4000010000000100000001000000000000004E
:105F50000000000000000000000000000100000040
:105F60000000000000000000010000000000000030
:105F70000000000000000000000000000100000020
:105F80000000000000000000010000000000000010
:105F90000000000000000000000000000000000001
:105FA00000000000000000000100000000000000F0
:105FB00000000000000000000000000000000000E1
:105FC00000000000000000000100000000000000D0
:105FD00000000000010000000100000001000000BE
:105FE00001000000010000000000000000000000AF
:105FF00001000000000000000000000000000000A0
:10600000000000000000000001000000000000008F
:10601000010000000000000000000000000000007F
:10602000000000000000000001000000000000006F
:10603000010000000000000001000000000000005E
:10604000000000000000000001000000000000004F
:10605000000000000100000001000000000000003E
:10606000000000000100000000000000000000002F
:10607000010000000100000001000000010000001C
:10608000010000000100000001000000000000000D
:1060900000000000000000000000000001000000FF
:1060A00000000000000000000000000000000000F0
:1060B00000000000000000000000000001000000DF
:1060C00000000000000000000000000000000000D0
:1060D00000000000000000000000000001000000BF
:1060E00000000000000000000000000000000000B0
:1060F000010000000100000001000000010000009C
:10610000010000000100000001000000000000008C
:10611000000000000000000000000000000000007F
:10612000000000000000000000000000000000006F
:10613000010000000000000000000000000000005E
:10614000000000000000000001000000000000004E
:10615000010000000100000001000000010000003B
:10616000010000000100000001000000000000002C
:10617000010000000000000000000000000000001E
:10618000000000000000000001000000000000000E
:1061900000000000000000000000000000000000FF
:1061A00000000000000000000000000000000000EF
:1061B00000000000010000000000000000000000DE
:1061C00000000000000000000000000000000000CF
:1061D00001000000000000000000000000000000BE
:1061E00000000000000000000000000000000000AF
:1061F000010000000000000000000000000000009E
:10620000000000000000000001000000000000008D
:10621000000000000100000001000000010000007B
:10622000010000000100000001000000000000006B
:10623000000000000000000000000000000000005E
:10624000000000000000000001000000000000004D
:10625000010000000100000001000000010000003A
:10626000010000000100000001000000000000002B
:10627000000000000000000000000000010000001D
:10628000000000000000000000000000000000000E
:1062900000000000000000000100000000000000FD
:1062A00001000000000000000000000000000000ED
:1062B00000000000010000000000000000000000DD
:1062C00000000000010000000000000000000000CD
:1062D00001000000000000000000000000000000BD
:1062E00000000000000000000100000000000000AD
:1062F000010000000100000001000000010000009A
:10630000010000000100000001000000000000008A
:10631000010000000000000000000000000000007C
:10632000000000000000000000000000000000006D
:10633000010000000000000000000000000000005C
:10634000000000000000000000000000000000004D
:10635000010000000000000000000000000000003C
:10636000000000000000000000000000000000002D
:10637000010000000000000000000000000000001C
:10638000000000000000000000000000000000000D
:1063900001000000010000000100000001000000F9
:1063A00001000000010000000100000000000000EA
:1063B00000000000000000000000000000000000DD
:1063C00000000000010000000000000000000000CC
:1063D00000000000000000000000000000000000BD
:1063E00001000000000000000000000000000000AC
:1063F000000000000000000000000000000000009D
:10640000000000000100000000000000000000008B
:106410000100000001000000010000000100000078
:106420000100000001000000010000000000000069
:106430000100000001000000010000000100000058
:106440000100000001000000010000000000000049
:10645000000000000000000000000000000000003C
:10646000010000000000000000000000000000002B
:10647000000000000000000000000000010000001B
:10648000000000000000000000000000000000000C
:1064900000000000000000000100000000000000FB
